:100000000C943D000C9452000C9452000C9452003D
:100010000C9452000C9452000C9452000C94520018
:100020000C9452000C9452000C9452000C94520008
:100030000C9452000C9452000C9452000C945200F8
:100040000C9452000C9452000C9452000C945200E8
:100050000C9452000C9452000C9452000C945200D8
:100060000C9452000C9452006364696E6F70737547
:1000700078585B6566674546470011241FBECFEF81
:10008000D8E0DEBFCDBF11E0A0E0B1E0E0EDF8E2E6
:1000900002C005900D92A032B107D9F70E94100E50
:1000A0000C94CB130C940000DC018D919C91119762
:1000B000181619065CF4FB0180E090E0119201969D
:1000C0002D913C91119782179307C4F31D921C92B6
:1000D00008950F931F93CF93DF93DC018B01FA01F7
:1000E00011961C921E922081211589F0319680E094
:1000F00090E0800F911FEC0128838D919C911197C6
:10010000019611969C938E9321912111F2CFDF914C
:10011000CF911F910F910895CF92DF92EF92FF92AE
:100120000F931F93CF93DF93EC018B01922F842FBA
:1001300025E040E1C92ED32EE82EF52EC701B601E9
:100140000E949C1080E190E099838883DF91CF9199
:100150001F910F91FF90EF90DF90CF900895299A13
:1001600085ED8A95F1F700002998089595B1937C63
:1001700095B984FD2A9A85FD2B9A86FD2C9A87FDD8
:100180002D9A299A85ED8A95F1F70000299808950E
:10019000CF93C82F0E94B6008C2F8295807F0E943B
:1001A000B6002D98CF910895CF93C82F28980E941C
:1001B000B6008C2F8295807F0E94B6002D98CF913B
:1001C0000895CF93C82F289A0E94B6008C2F82954D
:1001D000807F0E94B6002D98CF910895289885B110
:1001E000837C85B92A9A2B9A299A85ED8A95F1F70D
:1001F0000000299880E30E94B6002D98289885B1C8
:10020000837C85B92A9A2B9A299A95ED9A95F1F7CC
:100210000000299880E20E94B6002D98289885B1A8
:10022000837C85B92B9A299A85ED8A95F1F7000090
:10023000299880E80E94B6002D98289885B1837C83
:1002400085B9299A95ED9A95F1F70000299880EEE5
:100250000E94B6002D98289885B1837C85B9299A8B
:1002600085ED8A95F1F70000299880E60E94B60096
:100270002D98289885B1837C85B9299A95ED9A9512
:10028000F1F70000299880E10E94B6002D988FEDCB
:100290009EE20197F1F700C000000895289885B10B
:1002A000837C85B9299A85ED8A95F1F70000299814
:1002B00085B1837C85B92A9A299A95ED9A95F1F7AB
:1002C000000029982D988FED9EE20197F1F700C06C
:1002D000000008950F931F93CF93FC01C081C115B7
:1002E00091F08C010F5F1F4F289A8C2F0E94B6004F
:1002F0008C2F8295807F0E94B6002D98F801C191C5
:100300008F01C111F1CFCF911F910F910895EF92FD
:10031000FF921F93CF93DF93CDB7DEB728970FB629
:10032000F894DEBF0FBECDBFBE016F5F7F4F28E0E8
:10033000FB0111922A95E9F74AE00E94E410198125
:10034000111599F07E01F2E0EF0EF11C289A812F31
:100350000E94B600812F8295807F0E94B6002D9862
:10036000F70111917F011111F1CF28960FB6F89482
:10037000DEBF0FBECDBFDF91CF911F91FF90EF90F9
:100380000895AF92BF92CF92DF92EF92FF920F93B8
:100390001F93CF938C015B017A016901289885B185
:1003A000837C85B9299A85ED8A95F1F70000299813
:1003B00080E10E94B6002D98EFEDFEE23197F1F753
:1003C00000C00000289885B1837C85B92D9A299AB0
:1003D000F5EDFA95F1F70000299880E00E94B6004B
:1003E0002D98013111050CF09DC0F501C081FFEF82
:1003F000AF1ABF0AC11579F0289A8C2F0E94B60057
:100400008C2F8295807F0E94B6002D98F501C191B6
:100410005F01C111F1CF289885B1837C85B92C9AF1
:100420002D9A299AF5EDFA95F1F70000299880E0C8
:100430000E94B6002D9881E1E816F1040CF055C039
:10044000F601C081FFEFCF1ADF0AC11579F0289AB3
:100450008C2F0E94B6008C2F8295807F0E94B60060
:100460002D98F601C1916F01C111F1CF289885B186
:10047000837C85B92D9A299AF5EDFA95F1F700005C
:10048000299880E00E94B6002D980131110554F59D
:1004900010161106ECF420E030E0289885B1837C3A
:1004A00085B92A9A299A85ED8A95F1F7000029984D
:1004B00085B1837C85B92C9A299A95ED9A95F1F7A7
:1004C000000029982D982F5F3F4F0217130729F737
:1004D000CF911F910F91FF90EF90DF90CF90BF9041
:1004E000AF9008950FE010E0D6CFFFE0EF1AF108CB
:1004F000EC0CFD1CF701C081C11509F4B7CFFFEF6B
:10050000EF1AFF0A289A8C2F0E94B6008C2F829532
:10051000807F0E94B6002D98F701C1917F01C11123
:10052000F1CFA4CFF8013F97EA0DFB1DC081C115A3
:1005300009F471CF31965F01289A8C2F0E94B60082
:100540008C2F8295807F0E94B6002D98F501C19175
:100550005F01C111F1CF5FCF0F931F93CF93DF9353
:10056000DC01EB01FA01808191810B973CF08FEF68
:100570009FEF11969C938E93998388838D919C9184
:100580001197019621F0808191810A9764F160E0D2
:1005900070E001E010E09BB1AB014E5F5F4F98014E
:1005A00002C0220F331F4A95E2F7A901822F8095DE
:1005B00089238BB920E030E086B190E0022E02C0A2
:1005C000959587950A94E2F780FF12C02F5F3F4F01
:1005D0002530310589F78BB1842B8BB96F5F7F4F45
:1005E00065307105C1F6DF91CF911F910F9108958C
:1005F0006D937C9339832883118210828BB1842B75
:100600008BB9DF91CF911F910F910895CF93DF9315
:10061000CDB7DEB769970FB6F894DEBF0FBECDBF7A
:10062000AC0199E1E0E0F1E0DE01119601900D925C
:100630009A95E1F79B01220F331F220F331F620FA0
:10064000731FCE010196680F791F640F751FFB01A0
:10065000808169960FB6F894DEBF0FBECDBFDF91E3
:10066000CF9108959C01029740F022503109223029
:10067000310530F482E090E0089581E090E0089543
:100680008FEF9FEF0895EF92FF920F931F93CF93F9
:10069000DF9300D000D000D0CDB7DEB77B01098357
:1006A0001A832B833C834D835E83FB012081318140
:1006B000A901440F551F420F531F440F551FDC0162
:1006C000A40FB51F86E0FE01319601900D928A9528
:1006D000E1F72F5F3F4FF701318320830F900F9099
:1006E0000F900F900F900F90DF91CF911F910F916E
:1006F000FF90EF9008950F931F93CF93DF93CDB7A3
:10070000DEB72C970FB6F894DEBF0FBECDBF8B01BE
:10071000FB0120813181A901440F551F420F531F56
:10072000440F551F840F951FFC01369786E0DE01AC
:10073000179601900D928A95E1F721503109F80141
:100740003183208386E0FE013796DE011196019009
:100750000D928A95E1F729813A814B815C816D8107
:100760007E8180E090E02C960FB6F894DEBF0FBE3D
:10077000CDBFDF91CF911F910F9108952F923F929E
:100780004F925F926F927F928F929F92AF92BF92A1
:10079000CF92DF92EF92FF920F931F93CF93DF934D
:1007A000CDB7DEB7C056D6400FB6F894DEBF0FBE49
:1007B000CDBF4C01342ECF5AD94F5883C155D640A6
:1007C000CE5AD94F6883C255D640272E8E010F5777
:1007D0001B4F7801A12CB12CC12CD12C3E014FE72D
:1007E000641A4EEF740AE9E14E2EE1E05E2E28C055
:1007F000893209F474C08A3209F46EC0883209F073
:100800004FC08B818E7F8B838B819C81AD81BE811C
:1008100021E030E052E040E0F701508341838283E1
:100820009383A483B583FFEFAF1ABF0AC20ED31E12
:1008300046E0E40EF11C50E4C516D1040CF05FC094
:10084000F401EC0DFD1D8081811509F454C0D30124
:100850001D921C928B3209F15CF28F32D9F08337F2
:1008600071F08D32E9F4B1E0BB831C828B819C81F5
:10087000AD81BE8121E030E051E040E0CDCF1C826F
:100880001B828B819C81AD81BE8121E030E054E0F0
:1008900040E0C2CFF3E0FB83E8CF1C821B82E6CFAF
:1008A0007F926F929E012F5F3F4F3F932F935F92F6
:1008B0004F92FF93EF930E944C1189819A81AB81F3
:1008C000BC81F301208131810FB6F894DEBF0FBEE9
:1008D000CDBF50E040E0A0CFE2E0EB83C6CF8B81FC
:1008E0008E7F8B838B819C81AD81BE8121E030E046
:1008F00053E040E091CFA114B10409F4A7C1C501B0
:10090000880F991F8A0D9B1D880F991F4C01800E1F
:10091000911E20E030E080E090E0412C512C7724C3
:1009200073942EC0CF5FD94F19821882C150D64020
:10093000CD5FD94F79836883C350D64046E0FE012E
:10094000EF5FF94FDE01119601900D924A95E1F7A4
:10095000DC01AA0FBB1FA80FB91FAA0FBB1FFE0106
:100960003196AE0FBF1FBD5F46E001900D924A95D4
:10097000E1F701960A5F1F4F8016910609F454C0F3
:1009800046E0F801DE01AF5FB94F01900D924A9544
:10099000E1F7D8014D915C91119712966D917C9180
:1009A0004115510509F4BECF4130510509F46CC120
:1009B0004230510509F41EC24330510509F4FEC20C
:1009C00044305105B9F6CF5FD94F59834883C150A0
:1009D000D640CD5FD94F79836883C350D64066E057
:1009E000FE01EF5FF94FAE014F5F5F4FDA010190FB
:1009F0000D926A95E1F7D901AA0FBB1FA20FB31F91
:100A0000AA0FBB1FA40FB51FA058BE4F66E0FA0186
:100A100001900D926A95E1F72F5F3F4F0A5F1F4FDC
:100A20008016910609F0ACCF121613060CF056C0D2
:100A30007E01AFE7EA1AAEEFFA0AA901440F551F8B
:100A4000420F531F440F551F465051094E0D5F1D55
:100A5000BC01660F771F680F791F660F771F8E0125
:100A60000F5F1C4F060F171FBE016F5F7F4F6C019A
:100A700096E0FA01DB0101900D929A95E1F796E07C
:100A8000FB01DE01A75EB94F01900D929A95E1F747
:100A900096E0FE01E75EF94FDE01A55DB94F0190DA
:100AA0000D929A95E1F796E0FE01E55DF94FDB01C5
:100AB00001900D929A95E1F796E0FB01D801019023
:100AC0000D929A95E1F7FA01465051090A5F1F4FBE
:100AD000EE16FF0669F6C601820F931F1816190657
:100AE0000CF0B4C08E010F5F1C4F6C01CC0CDD1CF0
:100AF000C80ED91ECC0CDD1CC00ED11EE12CF12C71
:100B000034C0CD5BD94F19821882C354D640CB5B19
:100B1000D94F59834883C554D64086E0FE01ED5B2A
:100B2000F94FDE01A95FB94F01900D928A95E1F767
:100B3000D701AA0FBB1FAE0DBF1DAA0FBB1F9E0181
:100B40002F5F3F4FA20FB31F86E0FE01E95FF94F11
:100B500001900D928A95E1F73FEFE31AF30A0A5FDD
:100B60001F4F0C151D0509F471C086E0F801DE0168
:100B7000AD5BB94F01900D928A95E1F7F801808144
:100B8000918142815381009709F4BBCF8130910557
:100B900009F45EC1049719F7452B09F75701AA0C10
:100BA000BB1CAE0CBF1CAA0CBB1CAC0EBD1EF501C1
:100BB00035975F0186E0DE01A95FB94F01900D9284
:100BC0008A95E1F786E0FE01E95FF94FDE01AF5F4C
:100BD000B94F01900D928A95E1F786E0FE01EF5F33
:100BE000F94FDE01A35CB94F01900D928A95E1F7B0
:100BF000CD5FD94F688179818A819B81C350D6406E
:100C00009B01AC010E94870FC15CD94F6883798337
:100C10008A839B83CF53D64086E0FE01E35CF94F85
:100C2000DE01A95FB94F01900D928A95E1F786E048
:100C3000FE01E95FF94FD50101900D928A95E1F728
:100C40000A5F1F4F0C151D0509F08FCF6B817C814A
:100C50008D819E81C05AD94F0FB6F894DEBF0FBE6A
:100C6000CDBFDF91CF911F910F91FF90EF90DF905B
:100C7000CF90BF90AF909F908F907F906F905F903C
:100C80004F903F902F900895A901440F551F420F98
:100C9000531F440F551F121613060CF07DC041144C
:100CA000510409F079C0FE01E558FE4FE40FF51F2D
:100CB0000280F381E02D6230710508F46AC0DB0127
:100CC0001297129720F43297329708F065C05E01B0
:100CD000FFE7AF1AFEEFBF0A465051097501E40E57
:100CE000F51EAC01440F551F480F591F440F551FE7
:100CF000CC24C394E3E0DE2ECC0EDD1EC40ED51E44
:100D0000AE014F5F5F4FC55AD94F99838883CB554A
:100D1000D64096E0F701DA0101900D929A95E1F73D
:100D200096E0FA01DE01AB5DB94F01900D929A9504
:100D3000E1F796E0FE01EB5DF94FDE01A95CB94FEA
:100D400001900D929A95E1F796E0FE01E95CF94F6A
:100D5000DA0101900D929A95E1F796E0FA01D60139
:100D600001900D929A95E1F7F70186E0E81AF108F3
:100D700096E0C90ED11CAE16BF0659F6C55AD94F1A
:100D800088819981CB55D640820F931F21E030E0B6
:100D900010C0349708F49BCFF1E8AF2EBB24B39476
:100DA000AC0EBD1EA40EB51E2F5F3F4FAE014F5FB0
:100DB0005F4FCF5FD94F7882C150D640CE5FD94FB9
:100DC0001882C250D640CD5FD94F79836883C35013
:100DD000D64066E0FE01EF5FF94FDA0101900D9217
:100DE0006A95E1F766E0FA01D50101900D926A95E6
:100DF000E1F7C0CDCF5FD94F59834883C150D6406A
:100E0000CD5FD94F79836883C350D64046E0FE0159
:100E1000EF5FF94FDE01119601900D924A95E1F7CF
:100E2000D901AA0FBB1FA20FB31FAA0FBB1FFE0140
:100E30003196AE0FBF1FA058BE4F46E001900D92F5
:100E40004A95E1F72F5F3F4F44244394512C92CDB4
:100E50005701AA0CBB1CAE0CBF1CAA0CBB1CFE018C
:100E60003597EA0DFB1D86E0DE01A95FB94F0190C1
:100E70000D928A95E1F781E0E81AF10886E0FE011B
:100E8000E95FF94FDE01AD5EB94F01900D928A9591
:100E9000E1F7CB5ED94F488059806A807B80C5518D
:100EA000D640E114F10409F0F7C0632DCF5AD94FB1
:100EB0007881C155D640CE5AD94F8881C255D64087
:100EC000922DEE24E394F12CFE0131965F01411541
:100ED000510509F047C0A3019201C35BD94F688354
:100EE000CD54D640C25BD94F7883CE54D640C15B37
:100EF000D94F8883CF54D640C05BD94F9883C05513
:100F0000D640C35BD94F688179818A819B81CD545A
:100F1000D6400E94870FD50111961C921E92C75B86
:100F2000D94F6883C954D640C65BD94F7883CA5419
:100F3000D640C55BD94F8883CB54D640C45BD94FCC
:100F40009883CC54D640C75BD94F288139814A81D8
:100F50005B81C954D64012962D933D934D935C937B
:100F60001597FDCD4130510509F4E5C042305105DA
:100F700009F4C0C04330510571F6A3019201C35A70
:100F8000D94F6883CD55D640C25AD94F7883CE55B4
:100F9000D640C15AD94F8883CF55D640C05AD94F71
:100FA0009883C056D640C35AD94F688179818A81C7
:100FB0009B81CD55D6400E94F30FADCFA901440FC0
:100FC000551F420F531F440F551FFE01EF57FE4F91
:100FD000E40FF51F608171816230710509F4CCC0A6
:100FE0005901BA0166507109AE014F575E4F640F47
:100FF000751FAC01440F551F480F591F440F551F53
:10100000CC24C394A3E0DA2ECC0EDD1EC40ED51E74
:10101000AE014F5F5F4F2C0196E0FB01DA010190BA
:101020000D929A95E1F72150310996E0FA01DE011F
:10103000A15EB94F01900D929A95E1F796E0FE01FD
:10104000E15EF94FDE01AF5CB94F01900D929A95C8
:10105000E1F796E0FE01EF5CF94FDA0101900D92A5
:101060009A95E1F796E0FA01D60101900D929A95D2
:10107000E1F786E0C80ED11CFB010190F081E02D64
:1010800066507109329741F6C2018A0D9B1D821B81
:10109000930B412C512C6ECCAC0EBD1ED5011B9771
:1010A0005D0186E0FD01DE01A95FB94F01900D925F
:1010B0008A95E1F786E0FE01E95FF94FDE01A35F63
:1010C000B94F01900D928A95E1F7C15FD94F6881C0
:1010D000CF50D640C05FD94F7881C051D640CF5E47
:1010E000D94F8881C151D640CE5ED94F9881C25127
:1010F000D640EDCEA3019201C95AD94F6883C75596
:10110000D640C85AD94F7883C855D640C75AD94F08
:101110008883C955D640C65AD94F9883CA55D640F8
:10112000C95AD94F688179818A819B81C755D64038
:101130000E94520DF0CEA3019201CD5AD94F68837F
:10114000C355D640CC5AD94F7883C455D640CB5AD4
:10115000D94F8883C555D640CA5AD94F9883C655AA
:10116000D640CD5AD94F688179818A819B81C355F8
:10117000D6400E94860FCFCE412C512CFBCBCF9274
:10118000DF92EF92FF92FC016A017B0120FD08C013
:1011900023FD05C022FF02C0F382E282D182C08219
:1011A000FF90EF90DF90CF900895CF92DF92EF9273
:1011B000FF926B017C0183E044FD10C084E046FD9A
:1011C0000DC0D601F701AA0FBB1FEE1FFF1F109421
:1011D000D1F7CA0EDB1EEE1EFF1E81E0CC0CDD1C1B
:1011E000EE1CFF1C8A95D1F7C701B601620F711D75
:1011F000811D911DFF90EF90DF90CF9008950F9388
:101200001F93CF93DF938C01C8010E940911EC0159
:1012100097FD08C00E94C110892BB1F7B801CE011B
:101220000E946511CE01DF91CF911F910F9108951A
:10123000A0E0B0E0EEE1F9E00C946A10D82EE92EBF
:101240008B01742EC52EB22E0E940911EC01992734
:10125000CB3221F08D9791F46894B7F8015010408B
:1012600031F480E0CDB7DEB7EDE00C9486108D2D23
:101270009E2D0E940911EC0197FDF3CFFB2CE89401
:10128000F1F88B2D8073811134C0C03391F5480182
:1012900021E0821A910839F08D2D9E2D0E940911AE
:1012A000EC0197FF16C0812C912C5401F7FE08C069
:1012B000B094A09490948094811C911CA11CB11CAA
:1012C0002F2DB501A401872D9C2D0E94BF0881E020
:1012D000C9CF8F7D883539F58B2D8264F82E025069
:1012E000104009F38D2D9E2D0E940911EC0197FDF0
:1012F000DACF812C912C54012C2F20532830F0F080
:10130000F4FC09C02A30D0F0F6FE05C02F7D8FEE28
:10131000820F863090F06D2D7E2DCE010E946511DA
:10132000F1FE9FCFC3CFFB2C6894F1F8B6FC03C04D
:101330002B2D2261F22E8401DCCF27504F2DC501C9
:10134000B4010E94D5084B015C016894F1F801508A
:10135000104009F4ABCF8D2D9E2D0E940911EC0198
:1013600097FFCACFA3CFA0E2B0E0E9EBF9E00C947D
:1013700067103C015B017A01CE0101964C0180E2CD
:10138000F40111928A95E9F7F301B381890180E0B4
:1013900090E0A0E050E070E021E030E0F801B3FD23
:1013A0004591B3FF4191642F8F01411107C000E0C7
:1013B00010E0C801A096E0E10C9483104E3511F4C2
:1013C000009741F178171906FCF44D3551F14D3273
:1013D000D9F4511511F1E62FE695E695E695E80D5D
:1013E000F92DF11D462F4770290102C0440C551CF0
:1013F0004A95E2F7A2015081452B40836A1779F0A4
:101400006A1730F46F5FE7CF5111E5CFA42FE3CF18
:101410006150E1CF71E00196C1CF51E0FCCF50E0C7
:10142000FACF511519F08E8180628E83711561F0AB
:10143000F4019E012F5D3F4F8081DF013196809541
:101440008C93E217F307C1F755245394C3010E940C
:1014500009116C0197FD17C0E82FE695E695E69512
:10146000E80DF92DF11D808190E09601277033275A
:1014700002C0959587952A95E2F780FD07C0B301D4
:10148000C6010E946511511471F091CFE114F1046D
:1014900019F0F701C1927F0181E0A81AB108512C1F
:1014A000A114B10499F6E114F10409F482CFF70113
:1014B00010827FCFA6E0B0E0E0E6FAE00C94661080
:1014C000C82E392E8B014A010E9409118D839E83FB
:1014D0008D819E8199272D812B3269F08D9709F09E
:1014E000D2C090E8B92E0150104039F480E0269621
:1014F000E1E10C948210B12CF6CF8C2D932D0E943B
:1015000009118D839E838D819E8197FDEFCF8D8103
:101510009E810E94CA103C0199E66916710409F483
:10152000DCC0EEE66E16710409F4F2C0412C512CB9
:101530003201E12CF12C2D812053DB2C2A3008F0D4
:1015400007C16894D1F88B2D8870B2FEE8C0811174
:1015500003C0FFEFEF1AFF0A0150104051F08C2D2D
:10156000932D0E9409118D839E838D819E8197FF0B
:10157000D4C0D1FEBBCF8D818F7D853409F054C09E
:10158000580191E0A91AB10809F4B0CF8C2D932D20
:101590000E9409118D839E83ED81FE81F7FDA6CF08
:1015A000CF019927EB3221F08D9771F46894D4F82C
:1015B0005801F2E0AF1AB10809F498CF8C2D932DA1
:1015C0000E9409118D839E838D819E81C0970A9709
:1015D00008F08CCF00E010E0B801110F880B990BD8
:1015E0002D81205340E20E94D50869837A838B8342
:1015F0009C8309811A8121E0A21AB10859F08C2D2F
:10160000932D0E9409118D839E838D819E81C097A9
:101610000A9710F3D4FE05C009811A81119501952E
:101620001109E00EF11E8501012B41F08D819E8193
:1016300097FD04C06C2D732D0E946511C301B2018A
:101640000E94150D9B01AC01F7FE8AC0F194E19454
:10165000F108E9EBF7E2FA83E983A980BA8098E11F
:10166000A91AB10800E210E0E981FA81E016F1065A
:1016700008F07BC03497FA83E98316950795EA153D
:10168000FB0591F722C0B12C42CF8017910781F062
:101690008C2D932D0E9409117C0197FD09C00E9499
:1016A000CA10D81611F16C2D732DC7010E94651157
:1016B000E981FA81E05AF74209F018CF80E090E022
:1016C000A0E8BFE79C01AD01DB2CD7FC505881148A
:1016D000910409F055C081E00ACF8DE997E29A8321
:1016E000898389819A81080F191FE981FA813196CE
:1016F000FA83E9833197D49089819A81D110C5CF3B
:101700008D599742D9F680E090E0A0ECBFE7DACFA0
:10171000EAE9F7E2FA83E983E4CFBD2C0CCF811527
:1017200019F081E0E81AF10840E2C301B2010E9419
:10173000D5082B013C0198E9491699E95906690633
:1017400099E1790608F408CFEB2DE660DE2E04CF90
:101750002E3F09F00ECFB3FC0CCF6894D3F8FCCE2B
:1017600081ED97E29A83898378CF65917591859110
:1017700095910E94520D9B01AC01E01AF10A74CFC1
:10178000F4012083318342835383A5CFA8E0B0E0E6
:10179000ECECFBE00C9465106C016F8378874B8355
:1017A0005C83FC0117821682212CF6013380EF81C5
:1017B000F88533FCF59033FEF190F887EF83F11450
:1017C00019F18F2D90E00E94C110892B21F0C601E4
:1017D0000E94FF08EACFF5E2FF120BC0EF81F88507
:1017E00033FC559033FE5190F887EF8385E2581211
:1017F0000EC0C6010E9409114C0197FDB2C0F81637
:10180000A1F2B6010E946511822D90E0AEC09AE26D
:10181000412C59120AC0EF81F88533FC559033FEF4
:101820005190F887EF8344244394E12CF12C20ED70
:10183000250D2A3080F141FE43C0E114F10421F36B
:10184000E8E65E1609F440C0FCE65F1609F449C0FC
:101850005114D1F2652D70E088E690E00E94D2101C
:10186000892B91F200E010E040FC08C0AB80BC8006
:10187000F501019111915F01EB83BC82FEE65F12DD
:101880003BC0F6014681578160E070E0242DC8011D
:101890000E94BF088ACF689441F8B70180E090E0C9
:1018A00040E20E94D5086D837E83ED80FE80EF814B
:1018B000F88533FC559033FE5190F887EF83B7CF0E
:1018C000EE24EA94FE2CBCCFEF81F88533FC5590D2
:1018D00033FE5190F887EF8388E65812B9CF6894A9
:1018E00043F8689442F8EF81F88533FC559033FE55
:1018F0005190F887EF83ACCFF3E65F121CC041FC38
:1019000003C0EE24E394F12CC6010E9409118983DF
:101910009A8389819A8197FD24C00115110519F0D8
:10192000F80181938F0191E0E91AF10869F740FC11
:101930003CCF23943ACFEBE55E121BC02F81388554
:10194000A801B701C6010E94B3098F8398878F81D0
:101950009885892B61F7F60183818073811509F4DD
:1019600053CF8FEF9FEF21104FCF2896E2E10C94D9
:101970008110C6010E94FF0897FDF3CFFFE65F16B6
:1019800009F450C080E7581690F499E65916D1F042
:10199000EAE65E1630F4F8E55F1691F084E6581634
:1019A000F1F1A801B701C6010E945A0A11C093E7DC
:1019B000591601F1E4E75E1668F4F0E75F1689F75F
:1019C000689446F8242DA801B701C6010E941809A1
:1019D0008115C0CF85E7581611F198E75916EFCF5A
:1019E0000115110519F0F80161928F01E1E0EE1A7D
:1019F000F10871F0C6010E9409113C0197FD08C071
:101A00000E94C110892B61F3B601C3010E946511C8
:101A10000115110509F48BCFF801108288CF689465
:101A200045F8D0CF689444F8CDCFE89409C097FB2F
:101A30003EF490958095709561957F4F8F4F9F4FA5
:101A40009923A9F0F92F96E9BB279395F6958795E9
:101A500077956795B795F111F8CFFAF4BB0F11F4AC
:101A600060FF1BC06F5F7F4F8F4F9F4F16C0882353
:101A700011F096E911C0772321F09EE8872F762F89
:101A800005C0662371F096E8862F70E060E02AF0CA
:101A90009A95660F771F881FDAF7880F96958795B6
:101AA00097F908950E94650D0C94D60D0E94C80DFB
:101AB00038F00E94CF0D20F0952311F00C94BF0D4B
:101AC0000C94C50D11240C940A0E0E94E70D70F3BE
:101AD000959FC1F3950F50E0551F629FF001729FD3
:101AE000BB27F00DB11D639FAA27F00DB11DAA1FE2
:101AF000649F6627B00DA11D661F829F2227B00D2F
:101B0000A11D621F739FB00DA11D621F839FA00DB9
:101B1000611D221F749F3327A00D611D231F849F09
:101B2000600D211D822F762F6A2F11249F57504060
:101B30009AF0F1F088234AF0EE0FFF1FBB1F661FDB
:101B4000771F881F91505040A9F79E3F510580F0A4
:101B50000C94BF0D0C940A0E5F3FE4F3983ED4F34F
:101B6000869577956795B795F795E7959F5FC1F748
:101B7000FE2B880F911D9695879597F9089597F9F3
:101B80009F6780E870E060E008959FEF80EC089523
:101B900000240A941616170618060906089500244C
:101BA0000A9412161306140605060895092E0394C6
:101BB000000C11F4882352F0BB0F40F4BF2B11F43A
:101BC00060FF04C06F5F7F4F8F4F9F4F089557FD99
:101BD0009058440F551F59F05F3F71F04795880F9B
:101BE00097FB991F61F09F3F79F087950895121632
:101BF00013061406551FF2CF4695F1DF08C01616DE
:101C000017061806991FF1CF86957105610508948E
:101C10000895E894BB2766277727CB0197F90895A5
:101C2000CDB7DEB7C85AD1090FB6F894DEBF0FBEE4
:101C3000CDBF80917A008F7780937A0017B88FEFAD
:101C400088B984B98AB98BB90E94EE008FEF9FEFF3
:101C5000C256DF4F99838883CE59D040C456DF4F98
:101C600099838883CC59D040C656DF4F1982188299
:101C7000CA59D04080E45E0121E4A20EB11CF501F6
:101C8000282F11922A95E9F7FE0131961F01119232
:101C90008A95E9F7C12CD12CE12CF12C412C512C47
:101CA000612CC855DF4F1882C85AD040812C912C26
:101CB0002BC0892809F0F0C0FCE37F1609F4E2C0CC
:101CC0003FE5731609F403C1F501EE0DFF1D7082A7
:101CD0003FEFE31AF30A812C912C9101A601B50183
:101CE000C7010E94C1010F5F1F4FC656DF4F198306
:101CF0000883CA59D0408FEF90E7E2E081509040CE
:101D0000E040E1F700C00000AE0146565F4FBE0163
:101D100064567F4FCE0182569F4F0E94AC02C2563E
:101D2000DF4F28813981CE59D040C656DF4F088118
:101D30001981CA59D0402F3F320779F20115110598
:101D400061F6C456DF4F48815981CC59D04099E1A2
:101D5000E0E0F1E0DE01AF57BF4F01900D929A95A0
:101D6000E1F7FA01EE0FFF1FEE0FFF1FE40FF51F63
:101D7000CE018F579F4FE80FF91FE20FF31F7080BE
:101D80009DE3791296CF289885B1837C85B9299AED
:101D9000E5EDEA95F1F70000299880E10E94B60090
:101DA0002D988FED9EE20197F1F700C00000C0561C
:101DB000DF4F4882C05AD040CF55DF4F5882C15ABA
:101DC000D040CE55DF4F6882C25AD040C855DF4F51
:101DD0009881C85AD040CD55DF4F9883C35AD04020
:101DE000C056DF4F488159816A817B81C05AD040FB
:101DF000C5010E94BE032B01682EC855DF4F988392
:101E0000C85AD040810125E040E1CC55DF4F6883BE
:101E1000C45AD040CB55DF4F5882C55AD040CA551E
:101E2000DF4F8883C65AD040C955DF4F9883C75AC1
:101E3000D040CC55DF4F688179818A819B81C45A1B
:101E4000D0400E949C10E1E0C656DF4FE883CA599B
:101E5000D040C556DF4F1882CB59D040FFEF20E766
:101E600032E0F15020403040E1F700C0000080E156
:101E7000C82ED12C88248394912C46CFC12CD12CF0
:101E8000E12CF12C21E0E21AF108F501EE0DFF1D25
:101E90001082812C912C21CF1E141F0434F4A70131
:101EA00060E070E0C5010E94DD10CD2839F1F1013C
:101EB00020E111922A95E9F73CE37316F9F2EFE578
:101EC0007E16A9F0C12CD12CE12CF12CFDCE1E14D4
:101ED0001F0434F4A70160E070E0C5010E94DD102A
:101EE000CD2829F0F10120E111922A95E9F7C12CC2
:101EF000D12CE12CF12C812C912CEFCE8CE3781697
:101F000009F4BCCF9FE57912DDCFF1CF5058BB2744
:101F1000AA270E949E0F0C94D60D0E94C80D38F07F
:101F20000E94CF0D20F039F49F3F19F426F40C9451
:101F3000C50D0EF4E095E7FB0C94BF0DE92F0E9450
:101F4000E70D58F3BA17620773078407950720F067
:101F500079F4A6F50C94090E0EF4E0950B2EBA2F29
:101F6000A02D0B01B90190010C01CA01A00111249F
:101F7000FF27591B99F0593F50F4503E68F11A164B
:101F8000F040A22F232F342F4427585FF3CF4695DC
:101F900037952795A795F0405395C9F77EF41F16FE
:101FA000BA0B620B730B840BBAF09150A1F0FF0FC8
:101FB000BB1F661F771F881FC2F70EC0BA0F621FB4
:101FC000731F841F48F4879577956795B795F795A4
:101FD0009E3F08F0B0CF9395880F08F09927EE0F39
:101FE0009795879508950E9407100C94D60D0E942E
:101FF000CF0D58F00E94C80D40F029F45F3F29F042
:102000000C94BF0D51110C940A0E0C94C50D0E9436
:10201000E70D68F39923B1F3552391F3951B550B05
:10202000BB27AA2762177307840738F09F5F5F4FAB
:10203000220F331F441FAA1FA9F335D00E2E3AF0EA
:10204000E0E832D091505040E695001CCAF72BD002
:10205000FE2F29D0660F771F881FBB1F2617370753
:102060004807AB07B0E809F0BB0B802DBF01FF2785
:1020700093585F4F3AF09E3F510578F00C94BF0D96
:102080000C940A0E5F3FE4F3983ED4F3869577955F
:102090006795B795F7959F5FC9F7880F911D96953E
:1020A000879597F90895E1E0660F771F881FBB1F9A
:1020B000621773078407BA0720F0621B730B840B47
:1020C000BA0BEE1F88F7E09508952F923F924F923A
:1020D0005F926F927F928F929F92AF92BF92CF92B8
:1020E000DF92EF92FF920F931F93CF93DF93CDB7C1
:1020F000DEB7CA1BDB0B0FB6F894DEBF0FBECDBF39
:1021000009942A88398848885F846E847D848C8409
:102110009B84AA84B984C884DF80EE80FD800C8112
:102120001B81AA81B981CE0FD11D0FB6F894DEBFF5
:102130000FBECDBFED0108958F929F92AF92BF92D7
:10214000EF920F931F93CF93322FC02F54E147FF8D
:1021500054E0242F27FD2195E52E032F4C2F512FDE
:102160004B015C01C501B4010E947E118C2F912F9F
:10217000CF911F910F91EF90BF90AF909F908F9054
:10218000089591110C94B813803219F0895085503C
:10219000C8F708959111089581548A5108F4805E1A
:1021A000855A0895FC010590061621F00020D9F704
:1021B000C00108953197CF010895DC0101C06D93EE
:1021C00041505040E0F70895BB274A3031F499233D
:1021D00022F4BDE2909581959F4F0C94F010BB279F
:1021E000FB015527AA27880F991FAA1FA41710F0D3
:1021F000A41B83955051B9F7A05DAA3308F0A95DDF
:10220000A193009779F7B111B1931192CB010C947E
:10221000BB130F931F93CF93DF93EC018B8180FF50
:102220001DC086FF0EC08F7B8B838E819F810196A0
:102230009F838E838A8190E0DF91CF911F910F91D0
:10224000089582FF19C0E881F9819081092F092E34
:10225000000C110B911105C080628B838FEF9FEFF3
:10226000EBCF3196F983E8838E819F8101969F831E
:102270008E83C8019927E0CFEA85FB85CE010995B9
:102280008C0197FFF1CF8B810F3F1F4F19F490E125
:10229000892BE3CF90E2FCCFAEE0B0E0E2E5F1E1E4
:1022A0000C94751085E08C838B899C899A83898333
:1022B000AE01495E5F4F6D897E89CE0101960E9415
:1022C000C60B2E96E2E00C9491109C01FB018381D9
:1022D00080FF11C086FD0FC02F3F320751F02283CF
:1022E0008F7D80648383868197810197978386831E
:1022F0003327C90108952FEF3FEFFBCFA0E1B0E0F6
:10230000E4E8F1E10C9465106A01122FF02E202F01
:102310003CE3031708F02BE32F5F288B022F27E005
:10232000AE014F5F5F4F6C877D878E879F876C857F
:102330007D858E859F850E94E0125C019981892FA1
:102340008970813039F0E0FA882785F9E1FE03C011
:102350008BE201C08DE2292F2870BE2DB07193FF52
:1023600044C094E0811101C093E09117C8F4191B97
:10237000B11519F1811519F0F60181936F01C601AC
:10238000039631E62EE6E2FE02C031E42EE4F601C9
:10239000208331832283212F382F492F50E219C007
:1023A00010E0E6CFF90141932F0191509F01911167
:1023B000F9CFC10ED11C10E0DDCF912F960140E284
:1023C000F6CF632E742EF30151933F0121503E2F1F
:1023D000472D2111F6CF810F911DFC0110828EEF48
:1023E0009FEF6096E2E10C948110A92FA47092FFF8
:1023F0003EC094E0811101C093E0911710F4212FA9
:10240000291BB11529F1811519F0F60181936F018E
:10241000C601039659E64EE636E6E2FE03C059E4ED
:102420004EE436E4F601508341833283322FAC010F
:1024300060E218C0832E942EF40151934F01915005
:102440003E2F492D9111F6CFC20ED11C20E0DBCFDB
:10245000922F3C2D4D2D50E2F5CFFA0161931F01D3
:102460003150AF013111F9CF820F911DB6CF9501D7
:10247000B7FE02C020E030E061E070E0811102C0F0
:1024800060E070E0A9014F5F5F4F460F571F6F2D4F
:1024900070E0FB013196F11002C0E0E0F0E04E0F79
:1024A0005F1F4117510514F4A12FA41B4E2D487135
:1024B000411155C0F6014A2F50E241114DC0CA0EDC
:1024C000D11CA0E0811531F0F6018193A42F6F019A
:1024D000B11108C0F6018A2F40E3811145C0CA0E30
:1024E000D11CA0E088898A0D5A81B92FB07194FF60
:1024F00003C0513309F481501816CCF5893008F027
:1025000088E0FE013196EA0DFB1D4F01821A930A05
:102510007501E81AF1087195619571091EE2A2161C
:10252000B3063CF1E216F30624F5F4014181215093
:102530003109C6010196FFEF8F1A9F0A2617370748
:10254000D4F0F60140832F3F320721F4C6010296F2
:10255000F60111836C01E3CF51934150AECF811549
:1025600009F4B6CF4A2FB0CF41938150B6CF81E066
:10257000C8CF40E3DCCFA216B30631F4563398F44B
:10258000553311F4B11579F0F60140832A2F382F15
:10259000492F50E2211109C08A0F911DFC011082C0
:1025A00080E090E01ECF41E3EFCF3A874B87EA858A
:1025B000FB855193FB87EA8721503A854B85EACF0B
:1025C000283008F027E03327DA01990F311D87FD05
:1025D000916000966105710539F432602E5F3D937C
:1025E00030E32A95E1F708959F3F30F08038710578
:1025F000610509F03C5F3C5F3D93913008F08068D5
:10260000911DDF93CF931F930F93FF92EF92192F9A
:10261000987F9695E92F96959695E90FFF27E15DAE
:10262000F74D99273327EE24FF24A701E7010590F2
:102630000894079428F4360FE71EF81E491F511D11
:10264000660F771F881F991F0694A1F705900794BE
:1026500028F4E70EF81E491F561FC11D770F881F6B
:10266000991F661F0694A1F70590079428F4F80EA9
:10267000491F561FC71FD11D880F991F661F771F3F
:102680000694A1F70590079420F4490F561FC71F21
:10269000D81F990F661F771F881F0694A9F784918A
:1026A0001095177041F0D695C79557954795F794B3
:1026B000E7941A95C1F7E5EDF7E268941590159146
:1026C00035916591959105907FE27395E118F10A36
:1026D000430B560BC90BD009C0F7E10CF11E431F89
:1026E000561FC91FD01D7EF4703311F48A95E6CFB2
:1026F000E894015030F0080F0AF40027021708F49C
:10270000202F2395022F7A3328F079E37D932A95A1
:10271000E9F710C07D932A9589F6069497956795F9
:10272000379517951794E118F10A430B560BC90B0F
:10273000D00998F023957E9173957A3308F070E371
:102740007C932013B8F77E9170617D9330F0839570
:1027500071E37D9370E32A95E1F71124EF90FF90E8
:102760000F911F91CF91DF91992787FD9095089543
:10277000992788270895DC01FC01672F7191772341
:10278000E1F7329704C07C916D9370836291AE172C
:10279000BF07C8F30895F894FFCF616E006E6669B5
:1027A0006E69747900CDCCCC3D0AD7233C17B7D1E4
:1027B0003877CC2B329595E6241FB14F0A000020C4
:1027C000410000C84200401C4620BCBE4CCA1B0E43
:1027D0005AAEC59D7400407A10F35A00A0724E188C
:1027E000090010A5D4E80000E87648170000E40BC3
:1027F00054020000CA9A3B000000E1F50500008089
:10280000969800000040420F000000A086010000E2
:1028100000102700000000E8030000000064000032
:102820000000000A00000000000100000000002C71
:1028300076D888DC674F0823DFC1DFAE59E1B1B736
:1028400096E5E3E453C63AE651997696E8E6C28403
:1028500026EB898C9B62ED407C6FFCEFBC9C9F401B
:10286000F2BAA56FA5F490055A2AF75C936B6CF940
:10287000676DC11BFCE0E40D47FEF520E6B500D016
:10288000ED902E0300943577050080841E0800002B
:10289000204E0A000000C80C333333330F986E12F9
:1028A000831141EF8D2114893BE65516CFFEE6DBFF
:1028B00018D1844B381BF77C1D901DA4BBE4242049
:1028C0003284725E228100C9F124ECA1E53D27002B
:1028D0003031323334353637383928297300002BFC
:1028E0002D2A2F003D2E5F3C00256C6620256E00B2
:00000001FF
