:100000000C9434000C943E000C943E000C943E0082
:100010000C943E000C943E000C943E000C943E0068
:100020000C943E000C943E000C943E000C943E0058
:100030000C943E000C943E000C943E000C943E0048
:100040000C943E000C943E000C943E000C943E0038
:100050000C943E000C943E000C943E000C943E0028
:100060000C943E000C943E0011241FBECFEFD8E04C
:10007000DEBFCDBF0E94BE010C9409030C940000AA
:10008000299A85ED8A95F1F700002998089595B190
:10009000937C95B984FD2A9A85FD2B9A86FD2C9A2E
:1000A00087FD2D9A299A85ED8A95F1F70000299808
:1000B0000895CF93C82F0E9447008C2F8295807F90
:1000C0000E9447002D98CF910895CF93C82F28986C
:1000D0000E9447008C2F8295807F0E9447002D98B8
:1000E000CF910895CF93C82F289A0E9447008C2F54
:1000F0008295807F0E9447002D98CF91089528987F
:1001000085B1837C85B92A9A2B9A299A85ED8A959F
:10011000F1F70000299880E30E9447002D98289865
:1001200085B1837C85B92A9A2B9A299A95ED9A955F
:10013000F1F70000299880E20E9447002D98289846
:1001400085B1837C85B92B9A299A85ED8A95F1F73B
:100150000000299880E80E9447002D98289885B1D2
:10016000837C85B9299A95ED9A95F1F70000299835
:1001700080EE0E9447002D98289885B1837C85B930
:10018000299A85ED8A95F1F70000299880E60E946A
:1001900047002D98289885B1837C85B9299A95EDDB
:1001A0009A95F1F70000299880E10E9447002D9868
:1001B0008FED9EE20197F1F700C0000008952898A6
:1001C00085B1837C85B9299A85ED8A95F1F7000080
:1001D000299885B1837C85B92A9A299A95ED9A95B3
:1001E000F1F7000029982D988FED9EE20197F1F725
:1001F00000C0000008950F931F93CF93FC01C081AE
:10020000C11591F08C010F5F1F4F289A8C2F0E940F
:1002100047008C2F8295807F0E9447002D98F8011F
:10022000C1918F01C111F1CFCF911F910F9108950D
:10023000EF92FF921F93CF93DF93CDB7DEB728974E
:100240000FB6F894DEBF0FBECDBFBE016F5F7F4F0C
:1002500028E0FB0111922A95E9F74AE00E94D402B6
:100260001981111599F07E01F2E0EF0EF11C289A28
:10027000812F0E944700812F8295807F0E94470036
:100280002D98F70111917F011111F1CF28960FB62A
:10029000F894DEBF0FBECDBFDF91CF911F91FF90CD
:1002A000EF9008959C01DA01181619066CF4FB0111
:1002B00080E090E0A817B90711F011821082019632
:1002C000329628173907B1F708950F931F93CF93EC
:1002D000DF93DC01EA0118161906E4F48B01FB0137
:1002E00080E090E067E070E029B130E0AB01481BAE
:1002F000590B02C0359527954A95E2F720FD05C0B8
:10030000208131812115310561F001963296A817BF
:10031000B90751F78FEF9FEFDF91CF911F910F91A9
:10032000089541E050E0518340838217930719F00C
:10033000F801118210822F5F3F4F0E5F1F4FA217EF
:10034000B30799F719821882DF91CF911F910F910E
:1003500008959C01CB014230510554F0121613064A
:100360003CF4A901440F551F60E070E00C94CD02ED
:100370000895FC018081811110820895CDB7DEB708
:10038000C054D1090FB6F894DEBF0FBECDBF8FEFBA
:1003900084B91AB88BB90E947F00CE0101963C0146
:1003A00080E4F30111928A95E9F7C12CD12CA12C9C
:1003B000B12CE12CF12C812C912C41E3442E50E303
:1003C000552E289885B1837C85B9299AF5EDFA9543
:1003D000F1F70000299880E10E9447002D988FEDE9
:1003E0009EE20197F1F700C000004F991CC0AB28B6
:1003F00031F14E9B9EC0E114F10409F0CAC0F30133
:10040000E80DF91D80E380838FEF881A980A760142
:10041000AA24A394B12C91E0C916D104F1F4AA2422
:10042000A394B12C99C04E9B75C0AA94AB2819F324
:10043000E1E0CE16D10409F473C056010EC0F301F9
:10044000E80DF91D50829FEF891A990AC12CD12C11
:10045000E12CF12CAA24A394B12C289885B1837C9B
:1004600085B9299A25ED2A95F1F70000299880E1B0
:100470000E9447002D988FED9EE20197F1F700C092
:10048000000090E18916910454F539808E010E5FC9
:100490001F4F311479F0289A832D0E944700832D35
:1004A0008295807F0E9447002D98F80131908F013E
:1004B0003110F1CFE2E0EE16F10424F0C12CD12C82
:1004C000A12CB12CFFEFEF1AFF0A2FEF80E792E08B
:1004D000215080409040E1F700C0000072CF8401BD
:1004E0000F501109060D171DF8013080311411F35A
:1004F0000F5F1F4F289A832D0E944700832D8295FE
:10050000807F0E9447002D98F80131908F013110B3
:10051000F1CFD0CFCD28F1F0E1E0AE16B10449F132
:10052000E114F104B9F0CC24C394D12CA12CB12C4A
:1005300094CFC114D10471F0E114F10409F07DCF1E
:10054000F301E80DF91D80E38083EFEF8E1A9E0A18
:10055000560102C0A12CB12CF301E80DF91D408217
:10056000FFEF8F1A9F0ACC24C394D12CE12CF12CDD
:1005700074CFCC24C394D12CE114F10409F06DCFD5
:10058000F301E80DF91D80E38083FFEF8F1A9F0AC6
:10059000E3CFAA24A394B12C60CFDC0101C06D93FA
:1005A00041505040E0F70895BB274A3031F4992379
:1005B00022F4BDE2909581959F4F0C94E002BB27F9
:1005C000FB015527AA27880F991FAA1FA41710F00F
:1005D000A41B83955051B9F7A05DAA3308F0A95D1B
:1005E000A193009779F7B111B1931192CB010C94BB
:1005F000F902DC01FC01672F71917723E1F7329753
:1006000004C07C916D9370836291AE17BF07C8F3ED
:060610000895F894FFCFED
:00000001FF
