:100000000C943A000C9457000C9457000C94570031
:100010000C9457000C9457000C9457000C94570004
:100020000C9457000C9457000C9457000C945700F4
:100030000C9457000C9457000C9457000C945700E4
:100040000C9457000C9457000C9457000C945700D4
:100050000C9457000C9457000C9457000C945700C4
:100060000C9457000C9457006364696E6F7073753D
:1000700078585B0011241FBECFEFD8E0DEBFCDBFA4
:1000800011E0A0E0B1E0E8EDF2E202C005900D92CF
:10009000A231B107D9F721E0A2E1B1E001C01D9280
:1000A000AC31B207E1F70E94ED050C946A110C9493
:1000B0000000299A85ED8A95F1F7000029980895A6
:1000C00095B1937C95B984FD2A9A85FD2B9A86FD7E
:1000D0002C9A87FD2D9A299A85ED8A95F1F70000D3
:1000E00029980895CF93C82F0E9460008C2F829585
:1000F000807F0E9460002D98CF910895CF93C82FE4
:1001000028980E9460008C2F8295807F0E9460005A
:100110002D98CF910895CF93C82F289A0E94600000
:100120008C2F8295807F0E9460002D98CF9108953A
:10013000289885B1837C85B92A9A2B9A299A85EDCE
:100140008A95F1F70000299880E30E9460002D98BD
:10015000289885B1837C85B92A9A2B9A299A95ED9E
:100160009A95F1F70000299880E20E9460002D988E
:10017000289885B1837C85B92B9A299A85ED8A9533
:10018000F1F70000299880E80E9460002D982898D7
:1001900085B1837C85B9299A95ED9A95F1F7000090
:1001A000299880EE0E9460002D98289885B1837C64
:1001B00085B9299A85ED8A95F1F70000299880E69E
:1001C0000E9460002D98289885B1837C85B9299A72
:1001D00095ED9A95F1F70000299880E10E94600062
:1001E0002D988FED9EE20197F1F700C00000089571
:1001F000289885B1837C85B9299A85ED8A95F1F790
:100200000000299885B1837C85B92A9A299A95EDB1
:100210009A95F1F7000029982D988FED9EE20197AD
:10022000F1F700C0000008950F931F93CF93FC01D6
:10023000C081C11591F08C010F5F1F4F289A8C2F40
:100240000E9460008C2F8295807F0E9460002D9814
:10025000F801C1918F01C111F1CFCF911F910F9181
:1002600008950F931F93CF93DF939F938F937F9363
:100270006F9386E091E09F938F931F9287E08F9317
:10028000C0E0D0E0DF93CF930E941F0BC881EDB791
:10029000FEB73A960FB6F894FEBF0FBEEDBFC1157C
:1002A00089F001E010E0289A8C2F0E9460008C2FCA
:1002B0008295807F0E9460002D98F801C1918F0186
:1002C000C111F1CFDF91CF911F910F910895EF925E
:1002D000FF921F93CF93DF93CDB7DEB728970FB66A
:1002E000F894DEBF0FBECDBFBE016F5F7F4F28E029
:1002F000FB0111922A95E9F74AE00E94DD0A198173
:10030000111599F07E01F2E0EF0EF11C289A812F71
:100310000E946000812F8295807F0E9460002D984E
:10032000F70111917F011111F1CF28960FB6F894C2
:10033000DEBF0FBECDBFDF91CF911F91FF90EF9039
:1003400008959C01DA01181619066CF4FB0180E08F
:1003500090E0A817B90711F0118210820196329629
:1003600028173907B1F708950F931F93CF93DF93A1
:10037000DC01EA0118161906E4F48B01FB0180E0A8
:1003800090E067E070E029B130E0AB01481B590B09
:1003900002C0359527954A95E2F720FD05C02081DA
:1003A00031812115310561F001963296A817B90700
:1003B00051F78FEF9FEFDF91CF911F910F9108952C
:1003C00041E050E0518340838217930719F0F80110
:1003D000118210822F5F3F4F0E5F1F4FA217B3078E
:1003E00099F719821882DF91CF911F910F9108958B
:1003F0009C01CB014630510554F0121613063CF413
:10040000A901440F551F60E070E00C94D60A0895CE
:100410009C01029740F0225031092230310530F41E
:1004200082E090E0089581E090E008958FEF9FEFE3
:100430000895AF92BF92CF92DF92EF92FF920F9307
:100440001F93CF93DF9300D000D000D0CDB7DEB79D
:100450005C016B0109831A832B833C834D835E838C
:10046000FB01608171816115710589F586E090E07D
:100470000E94F0087C01F501F182E082F6018081A2
:1004800091819C01220F331F280F391F220F331F28
:10049000D701A20FB31F26E0FE01319601900D9205
:1004A0002A95E1F70196F601918380830F900F90D2
:1004B0000F900F900F900F90DF91CF911F910F91A0
:1004C000FF90EF90DF90CF90BF90AF9008956F5F57
:1004D0007F4FCB01880F991F680F791F660F771F19
:1004E000F501808191810E94170A7C01C4CFEF92AF
:1004F000FF920F931F93CF93DF93CDB7DEB72C9767
:100500000FB6F894DEBF0FBECDBF7C018B01FC019E
:1005100080819181FB0120813181B901660F771FB4
:10052000620F731F660F771F66507109FC01E60F9B
:10053000F71F26E0DE01179601900D922A95E1F74C
:100540000E94170AF70191838083F80180819181CD
:1005500001979183808386E0FE013796DE01119634
:1005600001900D928A95E1F729813A814B815C8156
:100570006D817E8180E090E02C960FB6F894DEBF0E
:100580000FBECDBFDF91CF911F910F91FF90EF90E4
:100590000895CF92DF92EF92FF920F931F93CF9324
:1005A000DF9300D000D000D0CDB7DEB71616170607
:1005B000D4F58C017B01EE0CFF1CE60EF71EEE0C51
:1005C000FF1CE00EF11E26E0C22E21E0D22E07C055
:1005D0000197C1F10A5F1F4F0E151F0521F186E03B
:1005E000F801DE01119601900D928A95E1F7F8016C
:1005F00080819181009761F78E818F938D818F9398
:100600008C818F938B818F93DF92CF920E94020B0C
:100610000F900F900F900F900F900F900A5F1F4F49
:100620000E151F05E1F60F900F900F900F900F9091
:100630000F90DF91CF911F910F91FF90EF90DF907E
:10064000CF9008958B819C81009771F08130910546
:1006500081F08230910591F0039709F0BBCF8FE2D2
:1006600090E00E94180BB6CF8BE290E00E94180B2E
:10067000B1CF8DE290E00E94180BACCF8AE290E0FF
:100680000E94180BA7CF2F923F924F925F926F92CA
:100690007F928F929F92AF92BF92CF92DF92EF9212
:1006A000FF920F931F93CF93DF93CDB7DEB7CB5459
:1006B000D1090FB6F894DEBF0FBECDBF89AB9AABA0
:1006C0004BAF5CAF6DAF7EAF00E010E0E12CF12CE2
:1006D000A12CB12C662463941EC086E090E00E9499
:1006E000F0086C01C80106965C0139827A82D60155
:1006F000A00FB11F86E0FE0131961F0101900D92FF
:100700008A95E1F7E40CF51C8501F0E4EF16F1049D
:100710000CF07CC05401E9A9FAA9EE0DFF1D8081FF
:10072000811509F403C21E861D86883209F440C073
:10073000893209F449C08B3209F452C08D3209F470
:100740005CC08A3209F45CC08F3209F45CC0CE010F
:100750000D969F938F9306979F938F938AE091E0D6
:100760009F938F93FF93EF930E94510B8F819885F6
:10077000A985BA858B839C83AD83BE834D845E84BB
:100780000FB6F894DEBF0FBECDBF312C712C4501E2
:100790003FEF831A930AAB2809F49FCF580196E0E4
:1007A000A90EB11CB501C6010E94170A6C019DCFAC
:1007B0008B818E7F8B836D861E8644244394512CBF
:1007C00072E0372E712CE3CF8B818E7F8B836D8609
:1007D0001E8644244394512C63E0362E712CD7CFCF
:1007E00080E090E09C838B836D861E864424439436
:1007F000512C33243394712CCACF81E090E0F2CF96
:1008000082E090E0EFCF83E090E0ECCF1EA61DA643
:100810001AA619A654012601C501880F991F8A0D31
:100820009B1D880F991F3601680E791EC12CD12C93
:100830009924939409C0019709F4B7C0F6E04F0ECC
:10084000511C4614570431F186E0F201D1010190A8
:100850000D928A95E1F7D2018D919C911197129694
:10086000ED90FC90009739F71A8219829701FC826B
:10087000EB8200E010E04D815E81BE01635D7F4F41
:10088000CE018F960E941902F6E04F0E511C4614BD
:100890005704D1F61C141D041CF59E01235D3F4F27
:1008A0004901CE018F965C01DE0199966D01FE0132
:1008B000BB967F01B601C7010E94770289019A01A8
:1008C000AB0109831A832B833C836D835E83B40160
:1008D000C5010E94190289A59AA51816190654F394
:1008E0000DA51EA58BA59CA50E9486091EA21DA272
:1008F00010161106D4F5EFA4F8A86801CC0CDD1C85
:10090000C00ED11ECC0CDD1CCE0CDF1C4E01F5E25E
:100910008F0E911C5E0127E2A20EB11C09C0019747
:1009200009F4A2C096E0E90EF11CCE14DF04E9F050
:1009300086E0F701DE015F9601900D928A95E1F75E
:10094000D7018D919C91009751F70F8D18A129A186
:100950003AA14BA15CA1B401C5010E94190296E025
:10096000E90EF11CCE14DF0419F7EFA1F8A562819E
:10097000738184819581C55BDF4F0FB6F894DEBF2C
:100980000FBECDBFDF91CF911F910F91FF90EF90E0
:10099000DF90CF90BF90AF909F908F907F906F909F
:1009A0005F904F903F902F9008951C141D040CF001
:1009B00044C0C601880F991F8C0D9D1D880F991F7B
:1009C000EBA5FCA5E80FF91F36978281938132E0F1
:1009D000E316F10408F4C4C0970122503109223013
:1009E000310518F40297029740F58E01035D1F4F01
:1009F000CE018F969AAB89ABDE0199965D01FE011F
:100A0000BB966F019FAE4801B501C6010E947702F7
:100A100089019A01AB010F83188729873A876B8771
:100A20005C87B40189A99AA90E94190289A59AA58F
:100A3000181619064CF39FAC07C0FE01B9965F016A
:100A40009E01255D3F4F6901092D99821A82970108
:100A5000FC82EB8210E04D815E81B501C6010E94EF
:100A60001902C9A4DAA4EACEF70102811381B40104
:100A7000C5010E947702298F3A8F4B8F5C8F6D8F53
:100A80007E8F4B8C5C8C6D8C7E8C8DA19EA1892B76
:100A900009F059C06BAD7CAD8DAD9EAD0115110552
:100AA00019F5A30192016FAB78AF89AF9AAF6FA927
:100AB00078AD89AD9AAD0E9454071E861D869B01B4
:100AC000AC016BAB7CAB8DAB9EAB8BA99CA9ADA9EC
:100AD000BEA98F87988BA98BBA8B00E010E0B40178
:100AE000C5010E9419021ECF0130110509F442C050
:100AF0000230110509F455C003301105F1F6A301C8
:100B0000920129966FAF29972A967FAF2A972B9645
:100B10008FAF2B972C969FAF2C972C966CAD7DADFD
:100B20008EAD9FAD2C970E94C007C7CF1EA61DA6F5
:100B30001AA619A6A114B10409F44AC09E012F5F98
:100B40003F4F190168CEB401C5010E947702CB0165
:100B50002B8B3C8B4D8B5E8B6F8B988FBA019ECF0E
:100B6000049708F442CFCE0189965C01DE019B9682
:100B70006D016ACFA301920121966FAF2197229652
:100B80007FAF229723968FAF239724969FAF24970A
:100B900024966CAD7DAD8EAD9FAD24970E9453071A
:100BA0008CCFA301920125966FAF259726967FAF34
:100BB000269727968FAF279728969FAF2897289636
:100BC0006CAD7DAD8EAD9FAD28970E94830875CF2B
:100BD0008BA59CA50E948609C8CECDB7DEB7C654AA
:100BE000D1090FB6F894DEBF0FBECDBF8FEF84B929
:100BF0001AB88BB90E9498005E0121E4A20EB11CC4
:100C000086E0F50111928A95E9F7CE0101963C0143
:100C100080E4F30111928A95E9F7812C912C412C03
:100C2000512C07E010E087E0382EF50120E030E09D
:100C300089B190E0A801421B530B02C0959587959E
:100C40004A95E2F780FD05C080819181892B09F4E6
:100C500059C02F5F3F4F32962330310549F7F501D8
:100C600084819581019709F0ADC0289885B1837C76
:100C700085B9299A85ED8A95F1F70000299880E1D8
:100C80000E9460002D98EFEDFEE23197F1F700C071
:100C90000000FFE3FF9321E82F9387E48F939EEA00
:100CA0009F93E6E0F1E0FF93EF931F923F92C12CF8
:100CB000D12CDF92CF920E941F0BF601D0800FB68D
:100CC000F894DEBF0FBECDBFEE24E394F12CD11417
:100CD00079F0289A8D2D0E9460008D2D8295807F5D
:100CE0000E9460002D98F701D1907F01D110F1CFC3
:100CF0009FEFE5EAFEE09150E040F040E1F700C0F0
:100D0000000093CF81E090E091838083F50121156D
:100D1000310509F4B4C0118210822130310509F483
:100D20009EC01382128284819581812C912C01971F
:100D300009F49BCF812C912C289885B1837C85B9AF
:100D4000299A95ED9A95F1F70000299880E10E9483
:100D500060002D98EFEDFEE23197F1F700C0000042
:100D6000F0E14F1651040CF043C02980CE010296E9
:100D70006C01211479F0289A822D0E946000822D46
:100D80008295807F0E9460002D98F60121906F016E
:100D90002110F1CF26E0821691043CF0F50111827A
:100DA00010821382128215821482FFEF8F1A9F0A1B
:100DB0002FEF80E792E0215080409040E1F700C0A3
:100DC000000033CF80819181019779F182819381F5
:100DD000019709F0B1CF8114910409F0ADCFF3016F
:100DE000E40DF51D21E320838FEF481A580AA2CFA6
:100DF0006201FFE0CF1AD108C60CD71CF601208093
:100E0000211441F2FFEFCF1ADF0A289A822D0E94A7
:100E10006000822D8295807F0E9460002D98F601EF
:100E200021906F012110F1CFB5CF8114910409F009
:100E300083CF82819381F301E40DF51D20E32083AC
:100E4000EFEF4E1A5E0A019709F076CFF301E40D39
:100E5000F51D21E320838FEF481A580A6BCF82815A
:100E6000938115821482019709F064CFF301E40D98
:100E7000F51D21E320838FEF481A580A5BCF1382B8
:100E800012828081918115821482019709F052CFDC
:100E9000F301E40DF51D20E320838FEF481A580A73
:100EA000812C912C49CF5058BB27AA270E946B0751
:100EB0000C9449080E943B0838F00E94420820F038
:100EC00039F49F3F19F426F40C9438080EF4E09599
:100ED000E7FB0C943208E92F0E945A0858F3BA171E
:100EE000620773078407950720F079F4A6F50C9440
:100EF0007C080EF4E0950B2EBA2FA02D0B01B90142
:100F000090010C01CA01A0011124FF27591B99F07F
:100F1000593F50F4503E68F11A16F040A22F232F8B
:100F2000342F4427585FF3CF469537952795A795DB
:100F3000F0405395C9F77EF41F16BA0B620B730B82
:100F4000840BBAF09150A1F0FF0FBB1F661F771FF3
:100F5000881FC2F70EC0BA0F621F731F841F48F4A8
:100F6000879577956795B795F7959E3F08F0B0CF31
:100F70009395880F08F09927EE0F97958795089518
:100F80000E94D4070C9449080E94420858F00E941D
:100F90003B0840F029F45F3F29F00C9432085111CE
:100FA0000C947D080C9438080E945A0868F3992321
:100FB000B1F3552391F3951B550BBB27AA27621755
:100FC0007307840738F09F5F5F4F220F331F441F62
:100FD000AA1FA9F335D00E2E3AF0E0E832D0915096
:100FE0005040E695001CCAF72BD0FE2F29D0660F83
:100FF000771F881FBB1F261737074807AB07B0E8C6
:1010000009F0BB0B802DBF01FF2793585F4F3AF0CB
:101010009E3F510578F00C9432080C947D085F3F98
:10102000E4F3983ED4F3869577956795B795F79551
:101030009F5FC9F7880F911D9695879597F9089539
:10104000E1E0660F771F881FBB1F621773078407D5
:10105000BA0720F0621B730B840BBA0BEE1F88F7E4
:10106000E095089597F99F6780E870E060E0089543
:101070009FEF80EC089500240A94161617061806B0
:101080000906089500240A9412161306140605068C
:101090000895092E0394000C11F4882352F0BB0F1D
:1010A00040F4BF2B11F460FF04C06F5F7F4F8F4F80
:1010B0009F4F089557FD9058440F551F59F05F3FBB
:1010C00071F04795880F97FB991F61F09F3F79F06A
:1010D00087950895121613061406551FF2CF4695EC
:1010E000F1DF08C0161617061806991FF1CF86956E
:1010F0007105610508940895E894BB276627772752
:10110000CB0197F908950E9496080C9449080E9413
:101110003B0838F00E94420820F0952311F00C940F
:1011200032080C94380811240C947D080E945A0847
:1011300070F3959FC1F3950F50E0551F629FF0012A
:10114000729FBB27F00DB11D639FAA27F00DB11D43
:10115000AA1F649F6627B00DA11D661F829F2227CC
:10116000B00DA11D621F739FB00DA11D621F839F53
:10117000A00D611D221F749F3327A00D611D231F29
:10118000849F600D211D822F762F6A2F11249F5777
:1011900050409AF0F1F088234AF0EE0FFF1FBB1F7A
:1011A000661F771F881F91505040A9F79E3F510539
:1011B00080F00C9432080C947D085F3FE4F3983E75
:1011C000D4F3869577956795B795F795E7959F5FE3
:1011D000C1F7FE2B880F911D9695879597F9089575
:1011E0000F931F93CF93DF939C01029710F422E09B
:1011F00030E0E0911201F091130180E090E0A0E076
:10120000B0E0309791F4009709F448C0821B930B2B
:1012100084309105D0F58A819B816115710581F13A
:10122000FB0193838283FE0111C0408151810281C1
:10123000138142175307D8F04217530799F41097B8
:1012400061F012960C93129713961C933296CF016D
:10125000DF91CF911F910F91089500931201109388
:101260001301F4CF009751F04817590738F0AC013B
:10127000DB01CA01BD01DF01F801C3CFEF01F9CFE6
:101280009093130180931201CECFFE01E80FF91F56
:1012900021933193029799838883D9CF4091140188
:1012A000509115014115510541F4409102015091B1
:1012B0000301509315014093140180910001909116
:1012C0000101009741F48DB79EB7609104017091C0
:1012D0000501861B970B4817590708F0B8CF841BE8
:1012E000950B8217930708F4B2CFB9016E5F7F4F59
:1012F0008617970708F4ABCF640F751F709315011D
:1013000060931401FA0121933193A1CFCF93DF931E
:101310009C010097E9F0FC01329713821282C09180
:101320001201D0911301DE0180E090E02097A1F43A
:1013300080819181280F391F8091140190911501AE
:101340008217930709F068C0F0931501E093140128
:10135000DF91CF910895DA01AE17BF0708F042C0C0
:1013600012964D915C911397CD014115510599F756
:10137000DC011396FC93EE9312974D915D919D01C4
:10138000240F351FE217F30781F4208131812E5F8E
:101390003F4F240F351FDC0111963C932E93228181
:1013A000338113963C932E931297E0E0F0E08A810C
:1013B0009B810097B1F5DE018D919D918A0F9B1F56
:1013C00020911401309115012817390709F630973B
:1013D00059F51092130110921201D0931501C09388
:1013E0001401B6CFB383A28340815181240F351FEE
:1013F000A217B30771F44E5F5F4F2D913C91119787
:10140000240F351F3183208312962D913C91338315
:101410002283009709F0ACCFF0931301E0931201FF
:1014200097CFFE01EC01C3CF13821282D6CFA0E08A
:10143000B0E0EDE1FAE00C9435117C019B010097DE
:1014400051F4CB010E94F008EC01CE01CDB7DEB71C
:10145000E0E10C945111FC01E60FF71FDC0112973B
:10146000C0E0D0E0EA17FB0780F30D911C911197C3
:1014700006171707A8F00530110580F0C80104977A
:101480008617970758F0061B170B02501109019396
:1014900011936D937C93CF010E948609E701D5CF0C
:1014A0004B01801A910A5C01A00EB11EC09112017D
:1014B000D0911301412C512C60E070E0209729F568
:1014C00080911401909115018A159B0509F056C071
:1014D0004216530608F052C080910001909101011C
:1014E000009741F48DB79EB74091040150910501DA
:1014F000841B950BE817F90708F0A7CFF0931501A7
:10150000E09314012D933C93C9CF888199816A801F
:101510007B80CA15DB0559F56C0142E0C40ED11C75
:10152000C814D90420F1A801421B530B480F591FBE
:10153000EA012296259778F0628273825183408374
:101540002D933C936115710569F0DB011396FC93B3
:10155000EE931297A3CF98012E5F3F4F280F391FAC
:10156000F301EECFF0931301E093120197CF4816E9
:10157000590608F42C01BE01E301A0CFC9010E9465
:10158000F008EC01009709F460CFA801B7010E94B0
:10159000CD0AC7010E94860958CFFB01DC0102C0B9
:1015A00001900D9241505040D8F70895DC0101C0E0
:1015B0006D9341505040E0F70895BB274A3031F415
:1015C000992322F4BDE2909581959F4F0C94E90AEE
:1015D000BB27FB015527AA27880F991FAA1FA4170D
:1015E00010F0A41B83955051B9F7A05DAA3308F001
:1015F000A95DA193009779F7B111B1931192CB0135
:101600000C943610A0E0B0E0E8E0FBE00C9443114D
:10161000AE014B5F5F4FFA0161917191AF01809113
:101620001801909119010E946A0BE2E00C945F117D
:1016300060911801709119010E9489100895AEE01F
:10164000B0E0E5E2FBE00C9441110D891E8986E0D3
:101650008C831A8309838F89988D813020E89207C3
:1016600010F080E090E801979E838D83AE01455E87
:101670005F4F698D7A8DCE0101960E946A0B4D8174
:101680005E8157FD0AC02F813885421753070CF43D
:101690009A01020F131FF80110822E96E4E00C94B9
:1016A0005D11AEE0B0E0E7E5FBE00C94431185E0AE
:1016B0008C838B899C899A838983AE01495E5F4FB5
:1016C0006D897E89CE0101960E94DD0E2E96E2E0A4
:1016D0000C945F11ABE0B0E0E0E7FBE00C94341158
:1016E0006C017B018A01FC0117821682838181FFD4
:1016F000DAC19AE0492EF6012381F70123FD859195
:1017000023FF81917F01811509F41FC1853239F4CE
:1017100023FD959123FF91917F01953229F4B60124
:1017200090E00E948910E7CF30E0612C512C712CA1
:10173000F0E27F1640F59B32D9F058F49032D1F0A8
:101740009332F1F09E3299F576FCFFC0689476F8FA
:1017500006C09D3291F09033C1F4689470F8F7019F
:1017600023FD959123FF91917F019111E1CF29C034
:10177000689471F8689472F8F2CF689473F8EFCFB8
:10178000689474F8ECCF77FC1CC080ED890F8A3028
:10179000C8F676FE05C0649C800D1124682EDFCF4C
:1017A000549C800D1124582E689475F8D8CF9C361F
:1017B00019F4689477F8D3CF9C3409F44BC0983669
:1017C00071F2892F8F7D8554833008F445C093369C
:1017D00009F466C0933709F469C0933509F475C0FC
:1017E000943619F0993609F09FC0F80177FE95C03C
:1017F00061917191819191918F01272D2F76722E98
:1018000097FF09C090958095709561957F4F8F4F98
:101810009F4F689477F82AE030E0AE014F5F5F4F4A
:101820005A010E94D2108A19A82E76FEC5C0872DB3
:101830008E7FA61408F0BFC074FE12C172FC06C1F0
:10184000F72DFE7E7F2EB62C872D8678811509F424
:10185000C0C001C131E083CF3115F9F0085F1F4FDF
:101860008FE3898388248394912CAE014F5F5F4F6F
:101870005A01E89477F873FC03C085149104B0F121
:1018800081149104D1F5511409F435CFB60180E2E9
:1018900090E00E9489105A94F6CF0C5F1F4FE0CF62
:1018A000F801808189830E5F1F4FDCCFF801A19082
:1018B000B1908F01662D70E076FC02C06FEF7FEF74
:1018C000C5010E942B104C01D4CFF801A190B1901A
:1018D0008F01662D70E076FC02C06FEF7FEFC501CF
:1018E0000E9420104C01689477F8C5CFB60180E2C1
:1018F00090E00E9489105A94C0CFF50177FC859141
:1019000077FE81915F01B60190E00E94891051102D
:101910005A94F1E08F1A9108B3CF61917191072E1B
:10192000000C880B990B68CF372CE89434F82AE028
:1019300030E0953739F1572D597F352E903799F092
:1019400058F49835A9F09F36D9F0F6018681978131
:101950002B96E1E10C9450119837B9F774FC05C04F
:1019600020E130E00FC0689434F8689432F8F8CF82
:1019700074FE03C0872D8660382E20E132E002C05D
:1019800028E030E0F80137FE11C06191719181913A
:1019900091918F01FE0131965F01AF010E94D2103B
:1019A0008A19A82E732CE89477F83FCF6191719132
:1019B00080E090E0EECF782EBA2C74FE45CFFE0189
:1019C000EA0DF11D8081803309F043C0272D297E67
:1019D000722E73FC0EC070FE4FC06A2CB51418F442
:1019E000650C6B18B52C852D8B195B1408F480E001
:1019F000B80EB51408F042C05B1874FE41C0B601C1
:101A000080E390E00E94891072FE09C088E590E0B2
:101A100071FC02C088E790E0B6010E948910A6140C
:101A2000D8F1AA94B12C4FEFA41AB40ACE010196B2
:101A30003C01A80EB91EF50182915F01B60190E04C
:101A40000E9489106A147B04B1F71DCFB62C782E42
:101A5000B6CF72FC02C0B394BCCFB394B394B9CFE9
:101A6000B62C782EF1CEB60180E290E00E9489106B
:101A700033943514C0F3B7CF3B2CFBCF512CBDCFE3
:101A8000872D8678811559F280E271FC8BE277FC14
:101A90008DE2B60190E0C1CFB60180E390E00E94F4
:101AA00089106A94BCCF8FEF9FEF52CFCF92DF9215
:101AB000EF92FF92FC016A017B0120FD08C023FD2B
:101AC00005C022FF02C0F382E282D182C082FF9071
:101AD000EF90DF90CF900895CF92DF92EF92FF9238
:101AE0006B017C0183E044FD10C084E046FD0DC025
:101AF000D601F701AA0FBB1FEE1FFF1F1094D1F7ED
:101B0000CA0EDB1EEE1EFF1E81E0CC0CDD1CEE1C9F
:101B1000FF1C8A95D1F7C701B601620F711D811DA7
:101B2000911DFF90EF90DF90CF9008950F931F933A
:101B3000CF93DF938C01C8010E944610EC0197FD02
:101B400008C00E940C10892BB1F7B801CE010E9489
:101B5000B910CE01DF91CF911F910F910895A0E0B0
:101B6000B0E0E5EBFDE00C9439115C01162F4A0161
:101B7000F22E0E944610EC019927CB3221F08D976E
:101B800081F46894F7F81A9531F480E0CDB7DEB7A8
:101B9000ECE00C945511C5010E944610EC0197FD34
:101BA000F4CF0F2D0D7F8F2D807381112FC0C03387
:101BB00069F5EE24EA94E10EE11431F0C5010E94CA
:101BC0004610EC0197FF15C0C12CD12C760107FF00
:101BD00008C0F094E094D094C094C11CD11CE11CC6
:101BE000F11C202FB701A601C4010E94560D81E00F
:101BF000CDCF8F7D0F2D883511F50264125021F362
:101C0000C5010E944610EC0197FDDECFC12CD12CFE
:101C100076012C2F20532830D0F004FD09C02A3043
:101C2000B0F006FF05C02F7D8FEE820F863070F07A
:101C3000B501CE010E94B91001FFA7CFC8CFF6FEB3
:101C400003C002601E2DE2CF0261FCCF2750402F5F
:101C5000C701B6010E946C0D6B017C0102601A95F0
:101C600009F4B5CFC5010E944610EC0197FFD1CF12
:101C7000AECFA0E2B0E0EFE3FEE00C9435114C01F2
:101C8000B62E7A01CE0101963C0180E2F301119259
:101C90008A95E9F7F401B381890180E090E0A0E042
:101CA00050E070E021E030E0F801B3FD4591B3FF72
:101CB0004191642F8F01411107C000E010E0C8017D
:101CC000A096E0E10C9451114E3511F4009741F1CA
:101CD00078171906FCF44D3551F14D32D9F45115F0
:101CE00011F1E62FE695E695E695E60DF72DF11D47
:101CF000462F4770290102C0440C551C4A95E2F753
:101D0000A2015081452B40836A1779F06A1730F49D
:101D10006F5FE7CF5111E5CFA42FE3CF6150E1CF43
:101D200071E00196C1CF51E0FCCF50E0FACF5115E0
:101D300019F08E8180628E83711561F0F3019E012E
:101D40002F5D3F4F8081DF01319680958C93E217A4
:101D5000F307C1F7AA24A394C4010E9446106C01A2
:101D600097FD17C0E82FE695E695E695E60DF72D69
:101D7000F11D808190E096012770332702C0959570
:101D800087952A95E2F780FD07C0B401C6010E943D
:101D9000B910A11459F091CFE114F10419F0F70131
:101DA000C1927F01BA94A12CB110D6CFE114F104F5
:101DB00009F485CFF701108282CFA5E0B0E0E3EE11
:101DC000FEE00C9433117C016C837D834B83252EC4
:101DD000FC0117821682312CF7014380EC81FD81D2
:101DE00043FC659043FE6190FD83EC83611419F11F
:101DF000862D90E00E940C10892B21F0C7010E94D3
:101E0000960DEACFF5E26F120BC0EC81FD8143FC29
:101E1000759043FE7190FD83EC8385E278120EC0CD
:101E2000C7010E9446104C0197FDAAC06816A1F296
:101E3000B7010E94B910832D90E0A6C09AE2612CF0
:101E400079120AC0EC81FD8143FC759043FE7190CC
:101E5000FD83EC8366246394512C20ED270D2A30FA
:101E600078F161FE40C0511431F3E8E67E1609F4C2
:101E70003DC0FCE67F1609F446C07114E1F2672DFF
:101E800070E088E690E00E941510892BA1F200E036
:101E900010E060FC08C0AB80B22CF50101911191FB
:101EA0005F01EB832B2CFEE67F1238C0F7014681E1
:101EB000578160E070E0262DC8010E94560D8CCF3E
:101EC000689461F8652D70E080E090E040E20E9447
:101ED0006C0D562EEC81FD8143FC759043FE719094
:101EE000FD83EC83BACF55245A94BFCFEC81FD819A
:101EF00043FC759043FE7190FD83EC8388E6781275
:101F0000BCCF689463F8689462F8EC81FD8143FC6F
:101F1000759043FE7190FD83EC83AFCFF3E67F12A3
:101F200019C061FC02C055245394C7010E94461099
:101F300089839A8389819A8197FD22C001151105B1
:101F400019F0F80181938F015A9479F760FC44CF1E
:101F5000339442CF9BE579121BC02C813D81A801AF
:101F6000652DC7010E94390E8C839D83EC81FD8114
:101F7000EF2B61F7F70183818073811509F45BCF43
:101F80008FEF9FEF311057CF2596E2E10C944F1160
:101F9000C7010E94960D97FDF3CFFFE67F16C9F1AA
:101FA00080E7781648F494E6791661F0E9E67E1643
:101FB00059F0689466F808C0F3E77F16A9F085E742
:101FC0007812F7CF689465F8262DA801652DC70112
:101FD0000E94AF0D8115CDCF0115110519F0F80143
:101FE000C1928F015A9471F0C7010E9446106C0192
:101FF00097FD08C00E940C10892B71F3B701C60130
:102000000E94B9100115110509F4A0CFF801108242
:102010009DCF689464F8D8CF91110C943011803220
:1020200019F089508550C8F70895FC0105900616EF
:1020300021F00020D9F7C00108953197CF0108950C
:10204000FC010590615070400110D8F78095909583
:102050008E0F9F1F0895FC01615070400190011088
:10206000D8F7809590958E0F9F1F0895DC01FC0195
:10207000672F71917723E1F7329704C07C916D93BC
:1020800070836291AE17BF07C8F308950F931F9333
:10209000CF93DF93EC018B8180FF1DC086FF0EC0C4
:1020A0008F7B8B838E819F8101969F838E838A8114
:1020B00090E0DF91CF911F910F91089582FF19C099
:1020C000E881F9819081092F092E000C110B9111E3
:1020D00005C080628B838FEF9FEFEBCF3196F98342
:1020E000E8838E819F8101969F838E83C801992703
:1020F000E0CFEA85FB85CE0109958C0197FFF1CFF2
:102100008B810F3F1F4F19F490E1892BE3CF90E2B1
:10211000FCCF0F931F93CF93DF93182F092FEB0161
:102120008B8181FD09C01FEF0FEF812F902FDF9171
:10213000CF911F910F91089582FF14C02E813F818E
:102140008C819D81281739073CF4E881F981CF0102
:1021500001969983888310838E819F8101969F8346
:102160008E83E3CFE885F985812F0995892BA1F32B
:10217000DACF9C01FB01838180FF11C086FD0FC077
:102180002F3F320751F022838F7D806483838681C5
:1021900097810197978386833327C90108952FEF8D
:1021A0003FEFFBCFFA01AA27283051F1203181F10E
:1021B000E8946F936E7F6E5F7F4F8F4F9F4FAF4F4F
:1021C000B1E03ED0B4E03CD0670F781F891F9A1F62
:1021D000A11D680F791F8A1F911DA11D6A0F711D16
:1021E000811D911DA11D20D009F468943F912AE022
:1021F000269F11243019305D3193DEF6CF0108950A
:10220000462F4770405D4193B3E00FD0C9F7F6CF3A
:10221000462F4F70405D4A3318F0495D31FD405202
:10222000419302D0A9F7EACFB4E0A6959795879598
:1022300077956795BA95C9F7009761057105089577
:102240009B01AC010A2E0694579547953795279523
:10225000BA95C9F7620F731F841F951FA01D0895BB
:102260009927882708952F923F924F925F926F92FD
:102270007F928F929F92AF92BF92CF92DF92EF9216
:10228000FF920F931F93CF93DF93CDB7DEB7CA1B97
:10229000DB0B0FB6F894DEBF0FBECDBF09942A88C2
:1022A000398848885F846E847D848C849B84AA846A
:1022B000B984C884DF80EE80FD800C811B81AA81F7
:1022C000B981CE0FD11D0FB6F894DEBF0FBECDBFC2
:0822D000ED010895F894FFCF21
:1022D80000001C012000256C6600256C6620256E18
:0222E8000000F4
:00000001FF
