:100000000C9441000C9456000C9456000C9456002D
:100010000C9456000C9456000C9456000C94560008
:100020000C9456000C9456000C9456000C945600F8
:100030000C9456000C9456000C9456000C945600E8
:100040000C9456000C9456000C9456000C945600D8
:100050000C9456000C9456000C9456000C945600C8
:100060000C9456000C9456006E616E00696E66002A
:100070006364696E6F70737578585B656667454633
:10008000470011241FBECFEFD8E0DEBFCDBF11E087
:10009000A0E0B1E0EAEFF3E702C005900D92A034D2
:1000A000B107D9F70E9474300C9405390C94000004
:1000B000DC018D919C911197181619065CF4FB01D7
:1000C00080E090E0119201962D913C91119782175A
:1000D0009307C4F31D921C9208950F931F93CF931F
:1000E000DF93DC018B01FA0111961C921E92208194
:1000F000211589F0319680E090E0800F911FEC018E
:1001000028838D919C911197019611969C938E93C3
:1001100021912111F2CFDF91CF911F910F9108957D
:100120009DE8980F923070F0833661F08C3651F074
:10013000803441F0835291E0823008F090E0892FC2
:1001400090E0089581E090E00895299A85ED8A95E0
:10015000F1F700002998089595B1937C95B984FD35
:100160002A9A85FD2B9A86FD2C9A87FD2D9A299A2D
:1001700085ED8A95F1F7000029980895CF93C82F4F
:100180000E94AC008C2F8295807F0E94AC002D983D
:10019000CF910895CF93C82F28980E94AC008C2F40
:1001A0008295807F0E94AC002D98CF910895CF93C7
:1001B000C82F289A0E94AC008C2F8295807F0E94C5
:1001C000AC002D98CF910895289885B1837C85B98E
:1001D0002A9A2B9A299A85ED8A95F1F70000299899
:1001E00080E30E94AC002D98289885B1837C85B966
:1001F0002A9A2B9A299A95ED9A95F1F70000299859
:1002000080E20E94AC002D98289885B1837C85B946
:100210002B9A299A85ED8A95F1F70000299880E8B4
:100220000E94AC002D98289885B1837C85B9299AC5
:1002300095ED9A95F1F70000299880EE0E94AC00A8
:100240002D98289885B1837C85B9299A85ED8A9562
:10025000F1F70000299880E60E94AC002D982898BC
:1002600085B1837C85B9299A95ED9A95F1F70000BF
:10027000299880E10E94AC002D988FED9EE20197B5
:10028000F1F700C000000895289885B1837C85B9F6
:10029000299A85ED8A95F1F70000299885B1837C2C
:1002A00085B92A9A299A95ED9A95F1F7000029982F
:1002B0002D988FED9EE20197F1F700C000000895A0
:1002C0000F931F93CF93FC01C081C11591F08C0156
:1002D0000F5F1F4F289A8C2F0E94AC008C2F8295A5
:1002E000807F0E94AC002D98F801C1918F01C1114F
:1002F000F1CFCF911F910F910895EF92FF921F932D
:10030000CF93DF93CDB7DEB728970FB6F894DEBF53
:100310000FBECDBFBE016F5F7F4F28E0FB01119282
:100320002A95E9F74AE00E9445361981111599F09E
:100330007E01F2E0EF0EF11C289A812F0E94AC00A2
:10034000812F8295807F0E94AC002D98F70111913A
:100350007F011111F1CF28960FB6F894DEBF0FBEC2
:10036000CDBFDF91CF911F91FF90EF9008954F92F5
:100370005F926F927F928F929F92AF92BF92CF9235
:10038000DF92EF92FF920F931F93CF93DF93CDB73E
:10039000DEB7C058D1090FB6F894DEBF0FBECDBF8F
:1003A0008C015B017A014901289885B1837C85B96C
:1003B000299A85ED8A95F1F70000299880E10E943D
:1003C000AC002D98AFEDBEE21197F1F700C0000030
:1003D000FE0131966F0180E8DF011D928A95E9F7F1
:1003E000F50180818A52863008F007C19BE201C086
:1003F00096958A95EAF790FF00C181E489838EE69D
:100400008A8383E78B8363E070E0101611060CF09B
:1004100050C0F50140E050E08EE6B82E99E6792E06
:1004200091E623E7A22E3FE6632EA3E65A2EB4E719
:100430004B2E25C0803409F4F8C00CF0E1C08332A3
:1004400009F40FC1843261F5D601A20FB31F9C934A
:10045000DE011296A20FB31F4C92DE011396A20F7B
:10046000B31F9C93DE0114962A0F3B1FD901BC9247
:100470006D5F7F4F4F5F5F4F04171507D1F081917C
:100480009B01240F351F8C3609F4DEC09CF28337A4
:1004900009F410C1843709F4FBC0803709F487EFF1
:1004A0002C0D3D1DD9018C934F5F5F4F041715072D
:1004B00031F75801A60EB71E289885B1837C85B9FF
:1004C0002D9A299AB5EDBA95F1F70000299880E0A8
:1004D0000E94AC002D98E1E1AE16B1040CF0F4C01E
:1004E00019816E01B2E0CB0ED11C111579F0289A5A
:1004F000812F0E94AC00812F8295807F0E94AC00EA
:100500002D98F60111916F011111F1CF289885B145
:10051000837C85B92C9A2D9A299AF5EDFA95F1F7F5
:100520000000299880E00E94AC002D9881E1E81637
:10053000F1040CF4E6C0FFE0EF1AF108E80CF91C36
:10054000D7011C91111591F0BFEFEB1AFB0A289A05
:10055000812F0E94AC00812F8295807F0E94AC0089
:100560002D98F70111917F011111F1CF289885B1D4
:10057000837C85B92D9A299AB5EDBA95F1F70000DB
:10058000299880E00E94AC002D98E1E1AE16B104FC
:100590000CF0B4C085011A141B04BCF4E12CF12C3E
:1005A000289885B1837C85B92A9A299AB5EDBA95A0
:1005B000F1F70000299880E40E94AC002D98EFEF3D
:1005C000EE1AFE0A0E151F0559F7C058DF4F0FB679
:1005D000F894DEBF0FBECDBFDF91CF911F910F9179
:1005E000FF90EF90DF90CF90BF90AF909F908F9053
:1005F0007F906F905F904F90089560E070E005CF1E
:10060000833609F04DCFD601A20FB31F8C93DE01C4
:100610001296A20FB31F6C92DE0113962A0F3B1F96
:10062000D901AC926E5F7F4F25CFD601A20FB31FC9
:100630009C93DE011296A20FB31FAC92DE011396BB
:10064000A20FB31F7C920ECFD601A20FB31F8C93C3
:10065000DE0112962A0F3B1FD901BC926F5F7F4FBC
:1006600009CFD601A20FB31F9C93DE011296A20FF1
:10067000B31F5C92DE011396A20FB31F6C92DE01D2
:1006800014962A0F3B1FD901AC926D5F7F4FF2CEBB
:10069000D601A20FB31F8C93DE011296A20FB31FD7
:1006A0009C93DE0113962A0F3B1FD901BC926E5F0B
:1006B0007F4FE0CED601A20FB31F8C93DE011296BE
:1006C000A20FB31F7C92EDCFF5013F97EC0DFD1DFE
:1006D0001081111509F41ACF31966F01289A812FD4
:1006E0000E94AC00812F8295807F0E94AC002D98E3
:1006F000D6011D916D011111F1CF08CF0FE010E06F
:100700004DCFD4011C91FFEF8F1A9F0A111509F4E8
:100710002DCF289A812F0E94AC00812F8295807F57
:100720000E94AC002D98D4011D914D011111F1CF03
:100730001DCF0F931F93CF93DF93DC01EB01FA01E1
:10074000808191810B973CF08FEF9FEF11969C93E6
:100750008E93998388838D919C911197019621F0B6
:10076000808191810A9764F160E070E001E010E01F
:100770009BB1AB014E5F5F4F980102C0220F331F48
:100780004A95E2F7A901822F809589238BB920E051
:1007900030E086B190E0022E02C0959587950A94CC
:1007A000E2F780FF12C02F5F3F4F2530310589F7F8
:1007B0008BB1842B8BB96F5F7F4F65307105C1F6AC
:1007C000DF91CF911F910F9108956D937C933983A1
:1007D0002883118210828BB1842B8BB9DF91CF914A
:1007E0001F910F9108950F931F93CF93DF93CDB770
:1007F000DEB7E2970FB6F894DEBF0FBECDBF8C0117
:1008000089E1E0E0F1E0DE015A9601900D928A95CF
:10081000E1F789E1E9E1F1E0DE01119601900D9245
:100820008A95E1F7452BC9F4CB01880F991F880FF2
:10083000991F860F971FFE013196E80FF91FE00FF1
:10084000F11F818DE2960FB6F894DEBF0FBECDBFCB
:10085000DF91CF911F910F910895FB01EE0FFF1FC4
:10086000EE0FFF1FE60FF71FCE010196E80FF91FED
:10087000E00FF11F8081E6CF2F923F924F925F925F
:100880006F927F928F929F92AF92BF92CF92DF92A0
:10089000EF92FF920F931F93CF93DF93CDB7DEB705
:1008A000CB5CD1090FB6F894DEBF0FBECDBF6B0194
:1008B0007C0120E030E0A901C701B6010E9460344C
:1008C00087FD93C52AE037ED43E25CE3C701B6013B
:1008D0000E9406332B013C01C301B2010E94783310
:1008E000C854DF4F6883C85BD040C754DF4F78835C
:1008F000C95BD04080E090E0A0E8BFE3C654DF4F82
:1009000088839983AA83BB83CA5BD040C854DF4FD6
:10091000A881B981C85BD0401A161B060CF007C528
:100920002AE037ED43E25CE3C654DF4F688179810A
:100930008A819B81CA5BD0400E946534C254DF4FDC
:100940006883CE5BD040C154DF4F7883CF5BD0400B
:10095000C054DF4F8883C05CD040CF53DF4F9883B3
:10096000C15CD04020E030E040E05FE34B015C013F
:10097000C501B4010E946534CE53DF4F6883C25C69
:10098000D040CD53DF4F7883C35CD040CC53DF4F92
:100990008883C45CD040CB53DF4F9883C55CD04084
:1009A00000E010E0C355DF4F1882CD5AD040CF543D
:1009B000DF4F1882C15BD040CE54DF4F1882C25B3C
:1009C000D040CD54DF4F1882C35BD040CB54DF4FB3
:1009D0001882C55BD040CC54DF4F1882C45BD04036
:1009E000212C312CB0E0C553DF4FB883CB5CD04015
:1009F00080E0C653DF4F8883CA5CD0403DC4D70136
:100A0000C601B595A795979587957FED872E79E5D2
:100A1000972E77E3A72E7FE5B72E881A990AAA0AA0
:100A2000BB0A20E030E040E05FE3C701B6010E946E
:100A30006534A5019401AA966FAFAA97AB967FAFD4
:100A4000AB97AC968FAFAC97AD969FAFAD97AD9689
:100A50006CAD7DAD8EAD9FADAD970E946534A501A7
:100A60009401AE966FAFAE97AF967FAFAF97E0961B
:100A70008FAFE097E1969FAFE197E1966CAD7DADCA
:100A80008EAD9FADE1970E946534E2966FAFE2971D
:100A9000E3967FAFE397E4968FAFE497E5969FAF39
:100AA000E597E5962CAD3DAD4EAD5FADE59760E0C9
:100AB00070E080EC9FE30E949432A5019401E696D9
:100AC0006FAFE697E7967FAFE797E8968FAFE89727
:100AD000E9969FAFE997E9966CAD7DAD8EAD9FAD80
:100AE000E9970E9465342AE037ED43E25CE3EA9639
:100AF0006FAFEA97EB967FAFEB97EC968FAFEC97E3
:100B0000ED969FAFED97ED966CAD7DAD8EAD9FAD43
:100B1000ED970E946534CC54DF4F6883C45BD040AE
:100B2000CB54DF4F7883C55BD040CA54DF4F8883F6
:100B3000C65BD040C954DF4F9883C75BD040CE53CB
:100B4000DF4FB881C25CD040B98BCD53DF4F888175
:100B5000C35CD0408A8BCC53DF4F9881C45CD040BB
:100B60009B8BCB53DF4FA881C55CD040AC8B2989D0
:100B70003A894B895C89C553DF4FB881CB5CD04043
:100B8000BD8BC653DF4F8881CA5CD0408E8B2F8AC5
:100B9000388E6D897E898F89988D0E949532698FF4
:100BA0007A8F8B8F9C8F298D3A8D4B8D5C8D6D8FBD
:100BB0007E8F8F8F98A36D8D7E8D8F8D98A10E94D3
:100BC000653469A37AA38BA39CA329A13AA14BA165
:100BD0005CA160E070E080E89FE30E9494326DA326
:100BE0007EA38FA398A7CDA0DEA0EFA0F8A420E05D
:100BF00030E0A901C701B6010E94013318160CF0BC
:100C000091C3D701C601B595A795979587955FEDD7
:100C1000852E59E5952E57E3A52E5FE5B52E881A4A
:100C2000990AAA0ABB0A20E030E040E05FE3C7016E
:100C3000B6010E946534A5019401EE966FAFEE9760
:100C4000EF967FAFEF97C158DF4F8883CF57D040E3
:100C5000C058DF4F9883C058D040C358DF4F6881D9
:100C600079818A819B81CD57D0400E946534A5014E
:100C70009401CF57DF4F6883C158D040CE57DF4F24
:100C80007883C258D040CD57DF4F8883C358D040B7
:100C9000CC57DF4F9883C458D040CF57DF4F68817F
:100CA00079818A819B81C158D0400E946534CB579D
:100CB000DF4F6883C558D040CA57DF4F7883C65886
:100CC000D040C957DF4F8883C758D040C857DF4F3F
:100CD0009883C858D040CB57DF4F288139814A814B
:100CE0005B81C558D04060E070E080EC9FE30E94DB
:100CF0009432A5019401C757DF4F6883C958D0408B
:100D0000C657DF4F7883CA58D040C557DF4F888316
:100D1000CB58D040C457DF4F9883CC58D040C757EA
:100D2000DF4F688179818A819B81C958D0400E94B8
:100D300065342AE037ED43E25CE3C357DF4F688355
:100D4000CD58D040C257DF4F7883CE58D040C157DE
:100D5000DF4F8883CF58D040C057DF4F9883C059AA
:100D6000D040C357DF4F688179818A819B81CD58FC
:100D7000D0400E946534CF56DF4F6883C159D040C0
:100D8000CE56DF4F7883C259D040CD56DF4F88838F
:100D9000C359D040CC56DF4F9883C459D040CF566A
:100DA000DF4F288139814A815B81C159D040CB56C0
:100DB000DF4F6883C559D040CA56DF4F7883C65984
:100DC000D040C956DF4F8883C759D040C856DF4F3F
:100DD0009883C859D040CB56DF4F688179818A818A
:100DE0009B81C559D0400E9495326B017C01C25451
:100DF000DF4F9881CE5BD04099A7C154DF4FA881C7
:100E0000CF5BD040AAA7C054DF4FB881C05CD040B0
:100E1000BBA7CF53DF4F8881C15CD0408CA729A5E9
:100E20003AA54BA55CA5C553DF4F9881CB5CD0405C
:100E30009DA7C653DF4FA881CA5CD040AEA72FA69E
:100E400038AA6DA57EA58FA598A90E949532C55395
:100E5000DF4F6883CB5CD040C653DF4F7883CA5CDA
:100E6000D0401C0169AB7AAB8BAB3CAA29A93AA94B
:100E70004BA95CA96DAB7EAB8FAB38AE6DA97EA9DB
:100E80008FA998AD0E94653469AF7AAF8BAF9CAFE4
:100E900029AD3AAD4BAD5CAD60E070E080E89FE31A
:100EA0000E9494326DAF7EAF8FAF21969FAF219796
:100EB00021968CAC9DACAEACBFAC219720E030E06D
:100EC000A901C501B4010E94013318160CF025C216
:100ED000D501C401B595A795979587953FED432E0C
:100EE00039E5532E37E3632E3FE5732E481A590A2E
:100EF0006A0A7B0A20E030E040E05FE3C501B4010C
:100F00000E946534A3019201C756DF4F6883C95917
:100F1000D040C656DF4F7883CA59D040C556DF4F00
:100F20008883CB59D040C456DF4F9883CC59D040EA
:100F3000C756DF4F688179818A819B81C959D0402A
:100F40000E946534A3019201C356DF4F6883CD59D7
:100F5000D040C256DF4F7883CE59D040C156DF4FC4
:100F60008883CF59D040C056DF4F9883C05AD040B5
:100F7000C356DF4F688179818A819B81CD59D040EA
:100F80000E946534CF55DF4F6883C15AD040CE559B
:100F9000DF4F7883C25AD040CD55DF4F8883C35A84
:100FA000D040CC55DF4F9883C45AD040CF55DF4F47
:100FB000288139814A815B81C15AD04060E070E06C
:100FC00080EC9FE30E949432A3019201CB55DF4F46
:100FD0006883C55AD040CA55DF4F7883C65AD0407F
:100FE000C955DF4F8883C75AD040C855DF4F988313
:100FF000C85AD040CB55DF4F688179818A819B8167
:10100000C55AD0400E9465342AE037ED43E25CE3E4
:10101000C755DF4F6883C95AD040C655DF4F788324
:10102000CA5AD040C555DF4F8883CB5AD040C455EB
:10103000DF4F9883CC5AD040C755DF4F6881798104
:101040008A819B81C95AD0400E9465344B015C0162
:101050002296CFAE22972396DFAE23972496EFAE4B
:1010600024972596FFAE259725962CAD3DAD4EAD28
:101070005FAD2597CC54DF4F9881C45BD040269656
:101080009FAF2697CB54DF4FA881C55BD0402796F2
:10109000AFAF2797CA54DF4FB881C65BD0402896C0
:1010A000BFAF2897C954DF4F8881C75BD0402996CE
:1010B0008FAF299729966CAD7DAD8EAD9FAD2997E9
:1010C0000E9495322A96CFAE2A972B96DFAE2B97A9
:1010D0002C96EFAE2C972D96FFAE2D972D962CAD1E
:1010E0003DAD4EAD5FAD2D972E966FAF2E972F96DF
:1010F0007FAF2F9760968FAF609761969FAF619794
:1011000061966CAD7DAD8EAD9FAD61970E949532BD
:1011100062968FAE629763969FAE63976496AFAE0A
:1011200064976596BFAE659765962CAD3DAD4EADA7
:101130005FAD659766966FAF669767967FAF679767
:1011400068968FAF689769969FAF699769966CADFF
:101150007DAD8EAD9FAD69970E949532C654DF4F2D
:10116000288139814A815B81CA5BD0406A966FAF22
:101170006A976B967FAF6B976C968FAF6C976D96F7
:101180009FAF6D976D966CAD7DAD8EAD9FAD6D973C
:101190000E94653420E030E040EC50E46E966FAF82
:1011A0006E976F967FAF6F97A0968FAFA097A1961F
:1011B0009FAFA197A1966CAD7DAD8EAD9FADA19770
:1011C0000E940633A2966FAFA297A3967FAFA39714
:1011D000A4968FAFA497A5969FAFA597A5962CAD83
:1011E0003DAD4EAD5FADA597C355DF4F9881CD5A4C
:1011F000D040A6969FAFA697CF54DF4FA881C15B82
:10120000D040A796AFAFA797CE54DF4FB881C25B4F
:10121000D040A896BFAFA897CD54DF4F8881C35B5D
:10122000D040A9968FAFA997A9966CAD7DAD8EAD34
:101230009FADA9970E949532C355DF4F6883CD5A61
:10124000D040CF54DF4F7883C15BD040CE54DF4FC6
:101250008883C25BD040CD54DF4F9883C35BD040BE
:101260000F5F1F4FC854DF4FA881B981C85BD040C2
:101270000A171B0709F46FC0C553DF4F9881CB5C79
:10128000D0409983C653DF4FA881CA5CD040AA835F
:101290002B823C8229813A814B815C819D83AE8384
:1012A0002F8238866D817E818F8198850E9465347A
:1012B00069877A878B879C8729853A854B855C85EA
:1012C00060E070E080E89FE30E9494326D877E8743
:1012D0008F87988BCD84DE84EF84F88820E030E01F
:1012E000A901C701B6010E94013318160CF487CB7F
:1012F000CC54DF4F1882C45BD040CB54DF4F1882F0
:10130000C55BD040CA54DF4F1882C65BD040C95479
:10131000DF4F1882C75BD04012CC812C912CA12CBE
:10132000B12C96CEC12CD12CE12CF12C60CDC35523
:10133000DF4F1882CD5AD040CF54DF4F1882C15BA7
:10134000D040CE54DF4F1882C25BD040CD54DF4F27
:101350001882C35BD040C355DF4FB881CD5AD0400F
:10136000CA53DF4FB883C65CD040CF54DF4F88816B
:10137000C15BD040C953DF4F8883C75CD040CE5497
:10138000DF4F9881C25BD040C853DF4F9883C85C61
:10139000D040CD54DF4FA881C35BD040C753DF4F4F
:1013A000A883C95CD040CA53DF4F688179818A81A4
:1013B0009B81C65CD040C553DF4F0FB6F894DEBFAB
:1013C0000FBECDBFDF91CF911F910F91FF90EF9096
:1013D000DF90CF90BF90AF909F908F907F906F9055
:1013E0005F904F903F902F900895C701B60190589D
:1013F0002AE037ED43E25CE30E940633C355DF4F3A
:101400006883CD5AD040C255DF4F7883CE5AD04042
:10141000C155DF4F8883CF5AD040C055DF4F9883E6
:10142000C05BD040C355DF4F688179818A819B8141
:10143000CD5AD0400E947833C854DF4F79836883F7
:10144000C85BD04080E090E0A0E8BFEBC654DF4F1F
:1014500088839983AA83BB83CA5BD04057CA4F92C3
:101460005F926F927F928F929F92AF92BF92CF9234
:10147000DF92EF92FF92CF93DF93CDB7DEB7609705
:101480000FB6F894DEBF0FBECDBF6B017C0120E02C
:1014900030E0A901C701B6010E94013318160CF013
:1014A00065C0D701C601B595A795979587953FED7E
:1014B000432E39E5532E37E3632E3FE5732E481A4A
:1014C000590A6A0A7B0A20E030E040E05FE3C70186
:1014D000B6010E946534A30192016D837E838F83E0
:1014E00098876D817E818F8198850E946534A301E4
:1014F000920169877A878B879C8769857A858B8536
:101500009C850E9465344B015C01A501940160E05B
:1015100070E080EC9FE30E949432A30192016D87FA
:101520007E878F87988B6D857E858F8598890E94B1
:10153000653469837A838B839C8369817A818B810B
:101540009C8160960FB6F894DEBF0FBECDBFDF91D1
:10155000CF91FF90EF90DF90CF90BF90AF909F9092
:101560008F907F906F905F904F90089560E070E053
:1015700080E090E0DECF4F925F926F927F928F92E9
:101580009F92AF92BF92CF92DF92EF92FF920F9312
:101590001F93CF93DF93CDB7DEB766970FB6F8945E
:1015A000DEBF0FBECDBF8B018E8B9D8B2BED3FE041
:1015B00049EC50E469831A838B839C8369817A8127
:1015C0008B819C810E9406332B013C01C301B20137
:1015D0000E947833072E000C880B990B0E94B033C1
:1015E0002BED3FE049EC50E44B015C01C501B40137
:1015F0000E9465346B017C01A70196010D831E8357
:101600008E898F838D8988876D817E818F81988572
:101610000E9494328B018D83998320E030E0A901F0
:1016200069871A878B879C8769857A858B859C85D6
:101630000E94013387FF13C02BED3FE049EC50E4DB
:10164000098B1A8B8D818B8B89818C8B69897A8927
:101650008B899C890E9495328B018D8399830D879C
:101660001E878D818F878981888B6D857E858F858B
:10167000988966960FB6F894DEBF0FBECDBFDF9196
:10168000CF911F910F91FF90EF90DF90CF90BF907F
:10169000AF909F908F907F906F905F904F90089544
:1016A0002F923F924F925F926F927F928F929F9272
:1016B000AF92BF92CF92DF92EF92FF920F931F9360
:1016C000CF93DF93CDB7DEB7CF51D1400FB6F894AB
:1016D000DEBF0FBECDBFCB50DF4F6883C55FD040AC
:1016E000CA50DF4F7883C65FD040182F092F2BEDEB
:1016F0003FE049EC50E469837A838B839C83698162
:101700007A818B819C810E9406332B013C01C301AD
:10171000B2010E947833072E000C880B990B0E94AF
:10172000B0332BED3FE049EC50E44B015C01C501C7
:10173000B4010E9465346B017C01A7019601CB5076
:10174000DF4F8881C55FD0408D83CA50DF4F8881CD
:10175000C65FD0408E831F8308876D817E818F8115
:1017600098850E949432CA5FDE4F6883C650D1408C
:10177000C95FDE4F7883C750D140C85FDE4F888392
:10178000C850D140C75FDE4F9883C950D14020E098
:1017900030E0A90169877A87C85FDE4F8881C85029
:1017A000D1408B879C8769857A858B859C850E9433
:1017B000013387FF4AC02BED3FE049EC50E4CA5F9C
:1017C000DE4F8881C650D140CF50DF4F8883C15F44
:1017D000D040C95FDE4F8881C750D140CE50DF4F27
:1017E0008883C25FD040C85FDE4F8881C850D14037
:1017F000CD50DF4F8883C35FD040C75FDE4F888105
:10180000C950D140CC50DF4F8883C45FD040CF5007
:10181000DF4F688179818A819B81C15FD0400E94BE
:101820009532CA5FDE4F6883C650D140C95FDE4F34
:101830007883C750D140C85FDE4F8883C850D140FD
:10184000C75FDE4F9883C950D14020E030E0A90146
:10185000CA5FDE4F8881C650D140C351DF4F8883B5
:10186000CD5ED040C95FDE4F8881C750D140C251A4
:10187000DF4F8883CE5ED040C85FDE4F8881C8507E
:10188000D140C151DF4F8883CF5ED040C75FDE4F6C
:101890008881C950D140C051DF4F8883C05FD0409C
:1018A000C351DF4F688179818A819B81CD5ED040B1
:1018B0000E94603418160CF0FAC7A12CB12C20E855
:1018C00029838FE38D8319861A861B861C86D12C6B
:1018D000C12CC450DF4FD882CC5FD040C350DF4F03
:1018E000C882CD5FD0407A2C6B2CC12CD12C7601D4
:1018F0004CC7C450DF4F9880CC5FD040C350DF4FFF
:101900008880CD5FD040C65FDE4FB882CA50D140DC
:10191000C55FDE4FA882CB50D140C45FDE4F9882B6
:10192000CC50D140C35FDE4F8882CD50D140C65FDE
:10193000DE4F288139814A815B81CA50D140CA5F1C
:10194000DE4F8881C650D140C25FDE4F8883CE50C3
:10195000D140C95FDE4F8881C750D140C15FDE4FA3
:101960008883CF50D140C85FDE4F8881C850D140B6
:10197000C05FDE4F8883C051D140C75FDE4F888192
:10198000C950D140CF5EDE4F8883C151D140C25F84
:10199000DE4F688179818A819B81CE50D1400E943F
:1019A00094328B01C15EDE4F8883CF51D140C25E3D
:1019B000DE4F9883CE51D140CE5EDE4F6883C25158
:1019C000D140CD5EDE4F1883C351D140CC5EDE4F97
:1019D0008883C451D140CB5EDE4F9883C551D1403E
:1019E000CE5EDE4F288139814A815B81C251D14070
:1019F000CA5EDE4FB882C651D140C95EDE4FA882B2
:101A0000C751D140C85EDE4F9882C851D140C75EF1
:101A1000DE4F8882C951D140CA5EDE4F688179812C
:101A20008A819B81C651D1400E949532B62EA72E45
:101A3000C450DF4F8883CC5FD040C350DF4F9883C2
:101A4000CD5FD040798E6A8E89818B8F2D812C8FCE
:101A5000298D3A8D4B8D5C8D0D8F1E8FC15EDE4FB3
:101A60008881CF51D1408F8FC25EDE4F8881CE51A9
:101A7000D14088A36D8D7E8D8F8D98A10E94653495
:101A8000C250DF4F6883CE5FD040C150DF4F7883B4
:101A9000CF5FD040C050DF4F8883C050D140CF5F70
:101AA000DE4F9883C150D140C701B601905809A3B9
:101AB0001AA3C15EDE4F2881CF51D1402BA3C25E55
:101AC000DE4F2881CE51D1402CA329A13AA14BA1B0
:101AD0005CA10E946534CE5FDE4F6883C250D14066
:101AE000CD5FDE4F7883C350D140CC5FDE4F88831B
:101AF000C450D140CB5FDE4F9883C550D14020E029
:101B000030E040E05FE36DA37EA3CC5FDE4F8881D1
:101B1000C450D1408FA398A76DA17EA18FA198A595
:101B20000E94653479A66AA629812BA72D812CA74E
:101B300029A53AA54BA55CA56DA77EA78FA798AB55
:101B40006DA57EA58FA598A90E94953209AB1AAB09
:101B5000C15EDE4F2881CF51D1402BABC25EDE4F3C
:101B60002881CE51D1402CAB29A93AA94BA95CA917
:101B70006DAB7EAB8FAB98AF6DA97EA98FA998ADE9
:101B80000E9465341B012C0120E030E040E05FE35F
:101B9000C250DF4F8881CE5FD04089AFC150DF4F48
:101BA0008881CF5FD0408AAFC050DF4F8881C0505E
:101BB000D1408BAFCF5FDE4F8881C150D1408CAF19
:101BC00069AD7AAD8BAD9CAD0E946534A7019601DD
:101BD0006DAF7EAF8FAF21969FAF219721966CADF1
:101BE0007DAD8EAD9FAD21970E9495329058229683
:101BF0000FAF229723961FAF2397C15EDE4F288138
:101C0000CF51D14024962FAF2497C25EDE4F28815A
:101C1000CE51D14025962FAF259725962CAD3DADC1
:101C20004EAD5FAD25970E9465346987C351DF4F84
:101C30007883CD5ED040CF50DF4F8883C15FD040E6
:101C4000CB50DF4F9883C55FD04020E030E040E0CC
:101C50005FE326966FAF269727967FAF2797CF50E3
:101C6000DF4F8881C15FD04028968FAF2897299693
:101C70009FAF299729966CAD7DAD8EAD9FAD29970D
:101C80000E9465342A967FAE2A972B966FAE2B97CB
:101C900029812C962FAF2C972D812D962FAF2D9724
:101CA0002D962CAD3DAD4EAD5FAD2D972E966FAF01
:101CB0002E972F967FAF2F9760968FAF6097619684
:101CC0009FAF619761966CAD7DAD8EAD9FAD619715
:101CD0000E94953262960FAF629763961FAF63972B
:101CE000C15EDE4F2881CF51D14064962FAF6497FB
:101CF000C25EDE4F2881CE51D14065962FAF6597E9
:101D000065962CAD3DAD4EAD5FAD659766966FAFF8
:101D1000669767967FAF679768968FAF6897699663
:101D20009FAF699769966CAD7DAD8EAD9FAD69979C
:101D30000E946534CA50DF4F6883C65FD040C950E7
:101D4000DF4F7883C75FD0404C0120E030E040E0B7
:101D50005FE36A962FAE6A976B963FAE6B976C9671
:101D60004FAE6C976D965FAE6D976D966CAD7DAD19
:101D70008EAD9FAD6D970E946534A70196016E965A
:101D80006FAF6E976F967FAF6F97A0968FAFA0974C
:101D9000A1969FAFA197A1966CAD7DAD8EAD9FAD85
:101DA000A1970E9495329058A2960FAFA297A39642
:101DB0001FAFA397C15EDE4F2881CF51D140A496BB
:101DC0002FAFA497C25EDE4F2881CE51D140A59699
:101DD0002FAFA597A5962CAD3DAD4EAD5FADA597A8
:101DE0000E946534C850DF4F6883C85FD040C75039
:101DF000DF4F7883C95FD040C650DF4F8883CA5F0A
:101E0000D040C550DF4F9883CB5FD040A7019601EB
:101E1000CA50DF4F8881C65FD040A6968FAFA69785
:101E2000C950DF4F8881C75FD040A7968FAFA79773
:101E3000A8968FAEA897A9969FAEA997A9966CADC4
:101E40007DAD8EAD9FADA9970E9495329058AA9610
:101E50000FAFAA97AB961FAFAB97C15EDE4F28813D
:101E6000CF51D140AC962FAFAC97C25EDE4F2881E8
:101E7000CE51D140AD962FAFAD97AD962CAD3DADC7
:101E80004EAD5FADAD970E946534C65EDE4F688390
:101E9000CA51D140C55EDE4F7883CB51D140C45E7C
:101EA000DE4F8883CC51D140C35EDE4F9883CD5145
:101EB000D140AE962FAEAE97AF963FAEAF97E096BD
:101EC0004FAEE097E1965FAEE197E1962CAD3DAD68
:101ED0004EAD5FADE197E2962FAEE297E3963FAE4F
:101EE000E397E4964FAEE497E5965FAEE597E59607
:101EF0006CAD7DAD8EAD9FADE5970E949532C25021
:101F0000DF4F2881CE5FD040E6962FAFE697C150D5
:101F1000DF4F2881CF5FD040E7962FAFE797C050C3
:101F2000DF4F2881C050D140E8962FAFE897CF5FB0
:101F3000DE4F2881C150D140E9962FAFE997E9964D
:101F40002CAD3DAD4EAD5FADE997EA966FAFEA9728
:101F5000EB967FAFEB97EC968FAFEC97ED969FAF3C
:101F6000ED97ED966CAD7DAD8EAD9FADED970E947A
:101F700095321B012C01CA50DF4F8881C65FD040CB
:101F8000EE968FAFEE97C950DF4F2881C75FD040E4
:101F9000EF962FAFEF97C158DF4F8882CF57D040D1
:101FA000C058DF4F9882C058D040C358DF4F2881B7
:101FB00039814A815B81CD57D040CF57DF4F88832D
:101FC000C158D040C950DF4F8881C75FD040CE573D
:101FD000DF4F8883C258D040CD57DF4F8882C35827
:101FE000D040CC57DF4F9882C458D040CF57DF4FF6
:101FF000688179818A819B81C158D0400E94953245
:10200000CB57DF4F6883C558D040CA57DF4F78831E
:10201000C658D040C957DF4F8883C758D040C857EB
:10202000DF4F9883C858D040CB57DF4F2881398184
:102030004A815B81C558D040C757DF4F2882C958B5
:10204000D040C657DF4F3882CA58D040C557DF4FFF
:102050004882CB58D040C457DF4F5882CC58D0402C
:10206000C757DF4F688179818A819B81C958D040E9
:102070000E9495322B014C01C357DF4F7882CD5817
:10208000D040C257DF4F6882CE58D0402981C15717
:10209000DF4F2883CF58D0408D81C057DF4F8883D2
:1020A000C059D040C357DF4F288139814A815B81B5
:1020B000CD58D040C850DF4F8881C85FD040CF5640
:1020C000DF4F8883C159D040C750DF4F8881C95F37
:1020D000D040CE56DF4F8883C259D040C650DF4F24
:1020E0008881CA5FD040CD56DF4F8883C359D04026
:1020F000C550DF4F8881CB5FD040CC56DF4F8883FF
:10210000C459D040CF56DF4F688179818A819B8145
:10211000C159D0400E949532CB56DF4F0883C55934
:10212000D040CA56DF4F1883C659D040C15EDE4F3B
:102130002881CF51D140C956DF4F2883C759D0409D
:10214000C25EDE4F2881CE51D140C856DF4F288372
:10215000C859D040CB56DF4F288139814A815B81F5
:10216000C559D040C756DF4F6883C959D040C656BD
:10217000DF4F7883CA59D040C556DF4F8883CB598B
:10218000D040C456DF4F9883CC59D040C756DF4F5C
:10219000688179818A819B81C959D0400E946534C8
:1021A000C356DF4F6883CD59D040C256DF4F788386
:1021B000CE59D040C156DF4F8883CF59D040C0564A
:1021C000DF4F9883C05AD040C356DF4F28813981F2
:1021D0004A815B81CD59D040CF55DF4F4882C15AEB
:1021E000D040CE55DF4F5882C25AD040CD55DF4F38
:1021F0008882C35AD040CC55DF4F9882C45AD04011
:10220000CF55DF4F688179818A819B81C15AD04047
:102210000E94953220E030E040EC50E4CB55DF4F97
:102220006883C55AD040CA55DF4F7883C65AD0401C
:10223000C955DF4F8883C75AD040C855DF4F9883B0
:10224000C85AD040CB55DF4F688179818A819B8104
:10225000C55AD0400E940633C755DF4F6883C95A1C
:10226000D040C655DF4F7883CA5AD040C555DF4F9E
:102270008883CB5AD040C455DF4F9883CC5AD04086
:10228000C755DF4F288139814A815B81C95AD040C7
:10229000C701B6010E949532C355DF4F6883CD5AFE
:1022A000D040C255DF4F7883CE5AD040C155DF4F62
:1022B0008883CF5AD040C055DF4F9883C05BD04051
:1022C000C355DF4FC880D980EA80FB80CD5AD0400B
:1022D0008985CF54DF4F8883C15BD040C351DF4F26
:1022E0002881CD5ED040CE54DF4F2883C25BD040E2
:1022F000CF50DF4F8881C15FD040CD54DF4F8883FE
:10230000C35BD040CB50DF4F2881C55FD040CC5459
:10231000DF4F2883C45BD040CF54DF4F2881398101
:102320004A815B81C15BD0408985CB54DF4F888374
:10233000C55BD040C351DF4F8881CD5ED040CA54C9
:10234000DF4F8883C65BD040CF50DF4F8881C15FAD
:10235000D040C954DF4F8883C75BD040CB50DF4F9C
:102360008881C55FD040C854DF4F8883C85BD040A8
:10237000CB54DF4F688179818A819B81C55BD040D6
:102380000E949532CE5FDE4F2881C250D140C754A3
:10239000DF4F2883C95BD040CD5FDE4F2881C3501B
:1023A000D140C654DF4F2883CA5BD040CC5FDE4F9C
:1023B0002881C450D140C554DF4F2883CB5BD04027
:1023C000CB5FDE4F2881C550D140C454DF4F2883F6
:1023D000CC5BD040C754DF4F288139814A815B8173
:1023E000C95BD040C354DF4F6883CD5BD040C2543B
:1023F000DF4F7883CE5BD040C154DF4F8883CF5B03
:10240000D040C054DF4F9883C05CD040C354DF4FEE
:10241000688179818A819B81CD5BD0400E94953211
:102420008B01C351DF4F8883CD5ED0409987C85060
:10243000DF4F8881C85FD040CF53DF4F8883C15CB6
:10244000D040C750DF4F2881C95FD040CE53DF4F07
:102450002883C25CD040C650DF4F8881CA5FD0401D
:10246000CD53DF4F8883C35CD040C550DF4F2881F8
:10247000CB5FD040CC53DF4F2883C45CD040CF53D8
:10248000DF4F288139814A815B81C15CD040C850CF
:10249000DF4F8881C85FD040CB53DF4F8883C55C56
:1024A000D040C750DF4F8881C95FD040CA53DF4F4B
:1024B0008883C65CD040C650DF4F8881CA5FD04059
:1024C000C953DF4F8883C75CD040C550DF4F888138
:1024D000CB5FD040C853DF4F8883C85CD040CB531C
:1024E000DF4F688179818A819B81C55CD0400E94E1
:1024F0009532C753DF4F6883C95CD040C653DF4F66
:102500007883CA5CD040C553DF4F8883CB5CD04012
:10251000C453DF4F9883CC5CD040C753DF4F288132
:1025200039814A815B81C95CD040C353DF4F088346
:10253000CD5CD040C253DF4F1883CE5CD040C35136
:10254000DF4F8881CD5ED040C153DF4F8883CF5CA1
:10255000D0408985C053DF4F8883C05DD040C353CE
:10256000DF4F688179818A819B81CD5CD0400E9458
:102570009532C65EDE4F2881CA51D140CF52DF4F1F
:102580002883C15DD040C55EDE4F2881CB51D1404C
:10259000CE52DF4F2883C25DD040C45EDE4F28811B
:1025A000CC51D140CD52DF4F2883C35DD040C35EB4
:1025B000DE4F2881CD51D140CC52DF4F2883C45DFE
:1025C000D040CF52DF4F288139814A815B81C15D84
:1025D000D040CB52DF4F6883C55DD040CA52DF4F39
:1025E0007883C65DD040C952DF4F8883C75DD04035
:1025F000C852DF4F9883C85DD040CB52DF4F68810F
:1026000079818A819B81C55DD0400E94953220E00E
:1026100030E040EC50E4C752DF4F6883C95DD040E2
:10262000C652DF4F7883CA5DD040C552DF4F8883E2
:10263000CB5DD040C452DF4F9883CC5DD040C752B1
:10264000DF4F688179818A819B81C95DD0400E947A
:102650000633C352DF4F6883CD5DD040C252DF4F97
:102660007883CE5DD040C152DF4F8883CF5DD040AC
:10267000C052DF4F9883C05ED040C352DF4F2881E5
:1026800039814A815B81CD5DD040CF51DF4F788267
:10269000C15ED040CE51DF4F6882C25ED04089819A
:1026A000CD51DF4F8883C35ED0408D81CC51DF4F49
:1026B0008883C45ED040CF51DF4F688179818A81A1
:1026C0009B81C15ED0400E949532762E672E898311
:1026D0009D839501C450DF4F9881CC5FD040C3509B
:1026E000DF4F8881CD5FD040CB51DF4F3883C55E4F
:1026F000D040CA51DF4FA882C65ED040C951DF4FDB
:102700009883C75ED040C851DF4F8883C85ED040F1
:10271000CB51DF4F288139814A815B81C55ED04032
:10272000CA5FDE4F8881C650D140C751DF4F8883D2
:10273000C95ED040C95FDE4F8881C750D140C651C5
:10274000DF4F8883CA5ED040C85FDE4F8881C850A3
:10275000D140C551DF4F8883CB5ED040C75FDE4F8D
:102760008881C950D140C451DF4F8883CC5ED040AE
:10277000C751DF4F688179818A819B81C95ED040D2
:102780000E94603418160CF070C02AE037ED43E266
:102790005CE3B501C450DF4F9881CC5FD040C3509B
:1027A000DF4F8881CD5FD0407D87AE869F87888B45
:1027B0006D857E858F8598890E9495328B01C351E6
:1027C000DF4F8883CD5ED0409987CA5FDE4F288176
:1027D000C650D140298BC95FDE4F8881C750D14098
:1027E0008A8BC85FDE4F2881C850D1402B8BC75FD2
:1027F000DE4F8881C950D1408C8B29893A894B8919
:102800005C89C351DF4F9881CD5ED04089850D8BA7
:102810001E8B9F8B888F6D897E898F89988D0E94F2
:10282000603418160CF465C8B02EA12EC351DF4FCA
:102830008881CD5ED040C450DF4F8883CC5FD040CC
:102840002985C350DF4F2883CD5FD0400AE017EDC4
:1028500083E2C15EDE4F8883CF51D1402CE3C25E5C
:10286000DE4F2883CE51D140EDC8C986DA86EB868B
:10287000FC8669857A858B859C85C15EDE4F0FB6A7
:10288000F894DEBF0FBECDBFDF91CF911F910F91A6
:10289000FF90EF90DF90CF90BF90AF909F908F9080
:1028A0007F906F905F904F903F902F900895198682
:1028B0001A861B861C86DDCFCF92DF92EF92FF92A5
:1028C0009B01AC016BED7FE089EC9FE30E949432A9
:1028D0006B017C01C701B601FF90EF90DF90CF90B4
:1028E0000C94500B2F923F924F925F926F927F9277
:1028F0008F929F92AF92BF92CF92DF92EF92FF9210
:102900000F931F93CF93DF93CDB7DEB72C970FB6FE
:10291000F894DEBF0FBECDBF6C877B87182F092FC1
:102920009B01482F592FCA01B9010E94500B362E26
:10293000272E89879A87CC84DB84E12EF02EA7018D
:1029400096016BED7FE089EC9FE30E9494326983EE
:102950007A838B839C8369817A818B819C810E949D
:10296000500B2B013C01A3019201832C922CA984D2
:10297000BA84C501B4010E9406336D837E838F83C0
:1029800098876D817E818F8198852C960FB6F894FB
:10299000DEBF0FBECDBFDF91CF911F910F91FF9092
:1029A000EF90DF90CF90BF90AF909F908F907F90EF
:1029B0006F905F904F903F902F9008952F923F928D
:1029C0004F925F926F927F928F929F92AF92BF923F
:1029D000CF92DF92EF92FF920F931F93CF93DF93EB
:1029E000CDB7DEB7C65CD1090FB6F894DEBF0FBE17
:1029F000CDBF6B017C01CA53DF4F2883C65CD0403A
:102A0000CB53DF4F3883C55CD040142F052F20E017
:102A100030E0A901C701B6010E94013387FDB5C4AA
:102A200020E030E0A901C701B6010E940133811501
:102A300009F45FC420E030E0A901CA53DF4F888168
:102A4000C65CD040CB55DF4F8883C55AD040CB53AE
:102A5000DF4F9881C55CD040CA55DF4F9883C65A76
:102A6000D040C955DF4F1883C75AD040C855DF4FF3
:102A70000883C85AD040CB55DF4F688179818A815D
:102A80009B81C55AD0400E940133811509F448C585
:102A900020E030E040E85FE3C701B6010E949432D5
:102AA0002AE037ED43E25CE3C755DF4F6883C95A3C
:102AB000D040C655DF4F7883CA5AD040C555DF4F46
:102AC0008883CB5AD040C455DF4F9883CC5AD0402E
:102AD000C755DF4F688179818A819B81C95AD0406F
:102AE0000E940633C355DF4F6883CD5AD040C2558C
:102AF000DF4F7883CE5AD040C155DF4F8883CF5AFD
:102B0000D040C055DF4F9883C05BD040C355DF4FE6
:102B1000688179818A819B81CD5AD0400E94783327
:102B2000C354DF4F79836883CD5BD04016161706F8
:102B30000CF0F6C42AE037ED43E25CE3CA53DF4F02
:102B40008881C65CD040CB54DF4F8883C55BD040C2
:102B5000CB53DF4F9881C55CD040CA54DF4F988378
:102B6000C65BD040C954DF4F1883C75BD040C85400
:102B7000DF4F0883C85BD040CB54DF4F6881798139
:102B80008A819B81C55BD0400E94653469837D83C7
:102B90002C01CB55DF4F19821882C55AD040E12C49
:102BA000F12C20E83FE3C12CD12C80E8282E9FE3B4
:102BB000392E852D542C7C2C6D2CCB53DF4F288344
:102BC000C55CD040CF53DF4F3883C15CD040482E26
:102BD000E986FA86CB53DF4F8881C55CD0408B876E
:102BE000CF53DF4F9881C15CD0409C8729853A85BF
:102BF0004B855C8589818D879D819E875F86488A0C
:102C00006D857E858F8598890E946534798A6A8A68
:102C10002B8A3C8A29893A894B895C896D8B7E8B0A
:102C20008F8B988F6D897E898F89988D0E9406334E
:102C3000C755DF4F6883C95AD040C355DF4F7883EB
:102C4000CD5AD040CF54DF4F8883C15BD040CB54A6
:102C5000DF4F9883C55BD0402AE037ED43EA5BE362
:102C6000798E6A8E2B8E3C8E698D7A8D8B8D9C8DA4
:102C70000E9495326B018C0120E030E040E05FE380
:102C8000C755DF4F8881C95AD0408D8FC355DF4F5C
:102C90009881CD5AD0409E8FCF54DF4F8881C15B41
:102CA000D0408F8FCB54DF4F9881C55BD04098A325
:102CB0006D8D7E8D8F8D98A10E946534E9A2FAA258
:102CC000CB53DF4F2881C55CD0402BA3CF53DF4FC0
:102CD0003881C15CD0403CA329A13AA14BA15CA1A1
:102CE0006DA37EA38FA398A76DA17EA18FA198A5A8
:102CF0000E949532298129A73D813AA75BA64CA65F
:102D000029A53AA54BA55CA56DA77EA78FA798AB73
:102D10006DA57EA58FA598A90E946534C9AADAAAD7
:102D20000BAB1CAB29A93AA94BA95CA96DAB7EAB37
:102D30008FAB98AF6DA97EA98FA998AD0E9406337D
:102D40004B015C0120E030E040E05FE369AF9AAE08
:102D50008BAFBCAE69AD7AAD8BAD9CAD0E946534D6
:102D6000EDAEFEAECB53DF4F2881C55CD0402FAF18
:102D7000CF53DF4F3881C15CD04021963FAF2197C0
:102D800021962CAD3DAD4EAD5FAD219722966FAF34
:102D9000229723967FAF239724968FAF249725966B
:102DA0009FAF259725966CAD7DAD8EAD9FAD2597D8
:102DB0000E949532298126962FAF26973D8127962E
:102DC0003FAF279728965FAE289729964FAE299751
:102DD00029962CAD3DAD4EAD5FAD29972A966FAFCC
:102DE0002A972B967FAF2B972C968FAF2C972D96EB
:102DF0009FAF2D972D966CAD7DAD8EAD9FAD2D9770
:102E00000E9465342E96CFAE2E972F96DFAE2F9769
:102E100060960FAF609761961FAF619761962CAD7A
:102E20003DAD4EAD5FAD619762966FAF62976396B1
:102E30007FAF639764968FAF649765969FAF6597F2
:102E400065966CAD7DAD8EAD9FAD65970E940633E6
:102E50006B018C012AE037ED43E25CE366967FAEBE
:102E6000669767966FAE679768962FAE6897699674
:102E70003FAE699769966CAD7DAD8EAD9FAD69979C
:102E80000E949532762E672E1C016A968FAE6A9745
:102E90006B969FAE6B976C96AFAE6C976D96BFAE10
:102EA0006D976D962CAD3DAD4EAD5FAD6D976E9649
:102EB0008FAE6E976F969FAE6F97A096AFAEA097AE
:102EC000A196BFAEA197A1966CAD7DAD8EAD9FAD25
:102ED000A1970E949532C755DF4F2881C95AD0402B
:102EE000A2962FAFA297C355DF4F3881CD5AD0405D
:102EF000A3963FAFA397CF54DF4F2881C15BD0404B
:102F0000A4962FAFA497CB54DF4F3881C55BD04038
:102F1000A5963FAFA597A5962CAD3DAD4EAD5FAD47
:102F2000A597A6966FAFA697A7967FAFA797A896E7
:102F30008FAFA897A9969FAFA997A9966CAD7DADC5
:102F40008EAD9FADA9970E9495324B015C01AA9668
:102F5000CFAEAA97AB96DFAEAB97AC960FAFAC9760
:102F6000AD961FAFAD97AD962CAD3DAD4EAD5FADFF
:102F7000AD97AE96CFAEAE97AF96DFAEAF97E09679
:102F80000FAFE097E1961FAFE197E1966CAD7DAD95
:102F90008EAD9FADE1970E949532E2966FAFE297BA
:102FA000E3967FAFE397E4968FAFE497E5969FAF04
:102FB000E597E5962CAD3DAD4EAD5FADE597E69658
:102FC0008FAEE697E7969FAEE797E896AFAEE897A5
:102FD000E996BFAEE997E9966CAD7DAD8EAD9FAD3C
:102FE000E9970E9495324B015C01EA96EFAEEA97B1
:102FF000EB96FFAEEB97CB53DF4F8881C55CD0409B
:10300000EC968FAFEC97CF53DF4F9881C15CD040E7
:10301000ED969FAFED97ED962CAD3DAD4EAD5FAD0E
:10302000ED97EE96CFAEEE97EF96DFAEEF97C158E5
:10303000DF4F0883CF57D040C058DF4F1883C058A8
:10304000D040C358DF4F688179818A819B81CD57F9
:10305000D0400E9495322981CF57DF4F2883C15835
:10306000D0403D81CE57DF4F3883C258D040CD5736
:10307000DF4F5882C358D040CC57DF4F4882C458E6
:10308000D040CF57DF4F288139814A815B81C158B9
:10309000D040CB57DF4F6883C558D040CA57DF4F69
:1030A0007883C658D040C957DF4F8883C758D0406F
:1030B000C857DF4F9883C858D040CB57DF4F68813F
:1030C00079818A819B81C558D0400E946534C75759
:1030D000DF4F7882C958D040C657DF4F6882CA5840
:1030E000D040C557DF4F2882CB58D040C457DF4F60
:1030F0003882CC58D040C757DF4F288139814A8168
:103100005B81C958D040C357DF4F6883CD58D0404A
:10311000C257DF4F7883CE58D040C157DF4F8883E6
:10312000CF58D040C057DF4F9883C059D040C357C5
:10313000DF4F688179818A819B81CD58D0400E9480
:103140000633CF56DF4F6883C159D040CE56DF4F8C
:103150007883C259D040CD56DF4F8883C359D040C1
:10316000CC56DF4F9883C459D040CF56DF4F2881CB
:1031700039814A815B81C159D040CB56DF4F88826B
:10318000C559D040CA56DF4F9882C659D040C9565B
:10319000DF4FA882C759D040C856DF4FB882C85900
:1031A000D040CB56DF4F688179818A819B81C55998
:1031B000D0400E94953220E030E040EC50E4C75609
:1031C000DF4F6883C959D040C656DF4F7883CA594C
:1031D000D040C556DF4F8883CB59D040C456DF4F0F
:1031E0009883CC59D040C756DF4F688179818A8156
:1031F0009B81C959D0400E940633C356DF4F688374
:10320000CD59D040C256DF4F7883CE59D040C156F9
:10321000DF4F8883CF59D040C056DF4F9883C05AC4
:10322000D040C356DF4F288139814A815B81CD5917
:10323000D040CF55DF4FE882C15AD040CE55DF4F46
:10324000F882C25AD040CB53DF4F8881C55CD04052
:10325000CD55DF4F8883C35AD040CF53DF4F98817D
:10326000C15CD040CC55DF4F9883C45AD040CF5575
:10327000DF4F688179818A819B81C15AD0400E9449
:1032800095327B01CB53DF4F8883C55CD040CF5351
:10329000DF4F9883C15CD040CB55DF4F2881398107
:1032A000C55AD0402F5F3F4FCB55DF4F398328831E
:1032B000C55AD040C354DF4F88819981CD5BD0403F
:1032C0008217930709F084CCCB53DF4F9881C55CFC
:1032D000D040C355DF4F9883CD5AD040CF53DF4FF6
:1032E0002881C15CD040C755DF4F2883C95AD040E0
:1032F0000CC0E12CF12CC355DF4F1882CD5AD040C1
:10330000C755DF4F1882C95AD040C754DF4FE882F3
:10331000C95BD040C654DF4FF882CA5BD040C3556A
:10332000DF4F9881CD5AD040C554DF4F9883CB5B97
:10333000D040C755DF4F2881C95AD040C454DF4F11
:103340002883CC5BD040C754DF4F688179818A8164
:103350009B81C95BD040CA53DF4F0FB6F894DEBFE4
:103360000FBECDBFDF91CF911F910F91FF90EF90D6
:10337000DF90CF90BF90AF909F908F907F906F9095
:103380005F904F903F902F900895CA53DF4F288150
:10339000C65CD0402983CB53DF4F3881C55CD04019
:1033A0003A831B830C8369817A818B819C810E9483
:1033B00078332B01072E000C880B990B0E94B03339
:1033C000CA53DF4F8880C65CD040CB53DF4F988014
:1033D000C55CD040A12EB02EA50194016D837E83E3
:1033E0008F8398876D817E818F8198850E940133BC
:1033F00081117FCF20E030E0A901CA53DF4F8881DF
:10340000C65CD040CF54DF4F8883C15BD040CB53E4
:10341000DF4F9881C55CD040CE54DF4F9883C25BAC
:10342000D040CD54DF4F1883C35BD040CC54DF4F26
:103430000883C45BD040CF54DF4F688179818A8193
:103440009B81C15BD0400E940133811509F477C094
:10345000842D81709927812C912C30E8A32E3FE395
:10346000B32E892B31F0812C912C20E8A22E2FEB4A
:10347000B22EC701B6019058CA53DF4F2881C65CEF
:10348000D040C354DF4F2883CD5BD040CB53DF4FB8
:103490003881C55CD040C254DF4F3883CE5BD0400A
:1034A000C154DF4F1883CF5BD040C054DF4F088337
:1034B000C05CD040C354DF4F288139814A815B8191
:1034C000CD5BD0400E94DE14A5019401CF53DF4FA5
:1034D0006883C15CD040CE53DF4F7883C25CD0405C
:1034E000CD53DF4F8883C35CD040CC53DF4F9883EC
:1034F000C45CD040CF53DF4F688179818A819B8142
:10350000C15CD0400E9465347B01C355DF4F888386
:10351000CD5AD040C755DF4F9883C95AD040F5CE19
:10352000E12CF12C30E8C355DF4F3883CD5AD04021
:103530008FE3C755DF4F8883C95AD040E6CEE12CD0
:10354000F12C90E8C355DF4F9883CD5AD0402FE33C
:10355000C755DF4F2883C95AD040D7CE2F923F920C
:103560004F925F926F927F928F929F92AF92BF9293
:10357000CF92DF92EF92FF920F931F93CF93DF933F
:10358000CDB7DEB7C255D1090FB6F894DEBF0FBE76
:10359000CDBF8B0163968FAF639762969FAF6297A3
:1035A00020E030E0A9016B017C01C701B6010E9457
:1035B000013318160CF072C120E030E040E85FE300
:1035C00048015701C501B4010E94013387FD6DC157
:1035D00020E030E040E85FE30DAF1EAF63968FADB3
:1035E00063978FAF62969FAD629721969FAF2197A9
:1035F00021966CAD7DAD8EAD9FAD21970E9494322A
:103600002AE037ED43E25CE322966FAF22972396E0
:103610007FAF239724968FAF249725969FAF25974A
:1036200025966CAD7DAD8EAD9FAD25970E9406337E
:1036300026966FAF269727967FAF279728968FAF4E
:10364000289729969FAF299729966CAD7DAD8EADB1
:103650009FAD29970E94783323967FAF6EAF239753
:10366000161617060CF01AC1A12CB12C21961CAE0F
:103670001DAE1EAE1FAE219700E010E020E82A9696
:103680002FAF2A973FE326963FAF269709831A83E9
:103690002A964FAD2A974B8326965FAD26975C837B
:1036A00029813A814B815C816AE077ED83E29CE37A
:1036B0000E940633962E872E382E292E2AE037EDCB
:1036C00043EA5BE30D831E832A968FAD2A978F838F
:1036D00026969FAD269798876D817E818F819885EC
:1036E0000E94953269877A878B879C8729853A85DE
:1036F0004B855C856AE077ED83E29CE30E940633AC
:103700006B017C012AE037ED43E25CE30D871E8705
:103710002A968FAD2A978F8726969FAD2697988BEE
:103720006D857E858F8598890E9495328B012A96BA
:103730008FAF2A9726969FAF2697C98ADA8AEB8A97
:10374000FC8A29893A894B895C89CD8ADE8AEF8A8D
:10375000F88E6D897E898F89988D0E9495326B01D4
:103760007C01998E8A8E3B8E2C8E298D3A8D4B8DC5
:103770005C8D6D8FDE8E8F8FF8A26D8D7E8D8F8D1F
:1037800098A10E949532C9A2DAA2EBA2FCA229A1BB
:103790003AA14BA15CA16DA37EA38FA398A76DA1B5
:1037A0007EA18FA198A50E9495326B017C0109A78B
:1037B0001AA72A962FAD2A972BA726963FAD2697B4
:1037C0003CA729A53AA54BA55CA56AE077ED83E265
:1037D0009CE30E9406336DA77EA78FA798AB2DA50B
:1037E0003EA54FA558A9C9AADAAAEBAAFCAA69A9BD
:1037F0007AA98BA99CA90E94953220E030E040EC88
:1038000050E46DAB7EAB8FAB98AF6DA97EA98FA94D
:1038100098AD0E94063369AF7AAF8BAF9CAF29ADEC
:103820003AAD4BAD5CAD21966CAD7DAD8EAD9FAD2F
:1038300021970E9495322B013C0121964CAE5DAE42
:103840006EAE7FAE21974FEFA41AB40A23968EADC9
:103850009FAD23978A159B0509F018CF21966CAD73
:103860007DAD8EAD9FAD2197CE5ADF4F0FB6F89448
:10387000DEBF0FBECDBFDF91CF911F910F91FF90A3
:10388000EF90DF90CF90BF90AF909F908F907F9000
:103890006F905F904F903F902F90089521961CAEAF
:1038A0001DAE1EAE1FAE2197D9CF2A960FAF2A9715
:1038B0002B961FAF2B972C96EFAE2C972D96BFAE65
:1038C0002D972D962CAD3DAD4EAD5FAD2D9760E0A3
:1038D00070E080E89FE30E9406332E966FAF2E972C
:1038E0002F967FAF2F9760968FAF609761969FAFAF
:1038F000619761966CAD7DAD8EAD9FAD61970E9475
:10390000AE1A9B01AC01505821962CAF3DAF4EAF83
:103910005FAF2197A3CF2F923F924F925F926F920A
:103920007F928F929F92AF92BF92CF92DF92EF924F
:10393000FF920F931F93CF93DF93CDB7DEB7C0589D
:10394000D1090FB6F894DEBF0FBECDBF6B017C016D
:1039500020E030E0A901C701B6010E94603487FD74
:103960007CC22AE037ED43E25CE3C701B6010E9466
:1039700006334B015C01C501B4010E947833E29625
:103980006FAFE297E3967FAFE39780E090E0A0E827
:10399000BFE3E7968CAF9DAFAEAFBFAFE797E396BF
:1039A000AEADBFADE3971A161B060CF07BC22AE042
:1039B00037ED43E25CE3E7966CAD7DAD8EAD9FAD38
:1039C000E7970E946534E8966FAFE897E9967FAF76
:1039D000E997EA968FAFEA97EB969FAFEB97A12C0A
:1039E000B12C212C312C412C512C00E010E0C0587E
:1039F000DF4F1882C058D040C158DF4F1882CF57D0
:103A0000D0402AE037ED43EA5BE309831A83C058CC
:103A1000DF4FB881C058D040BB83C158DF4F888189
:103A2000CF57D0408C8369817A818B819C810E94A1
:103A300095323B014C012AE037ED43E25CE30D8314
:103A40001E83C058DF4F9881C058D0409F83C15813
:103A5000DF4FA881CF57D040A8876D817E818F81AD
:103A600098850E9495326B017C0169867A868B86E7
:103A70009C8629853A854B855C856D867E868F86FA
:103A8000988A6D857E858F8598890E94653420E0AF
:103A900030E040E85FE3698B7A8B8B8B9C8B698984
:103AA0007A898B899C890E9495326D8B7E8B8F8B56
:103AB000988F2D893E894F89588D6AE077ED83E292
:103AC0009CE30E940633698F7A8F8B8F9C8F298DA0
:103AD0003A8D4B8D5C8D6D8F7E8F8F8F98A36D8D02
:103AE0007E8D8F8D98A10E9495323B014C0109A3D8
:103AF0001AA3C058DF4FB881C058D040BBA3C158EB
:103B0000DF4F8881CF57D0408CA329A13AA14BA188
:103B10005CA10DA31EA3BFA388A76DA17EA18FA149
:103B200098A50E94653420E030E040E85FE369A793
:103B30007AA78BA79CA769A57AA58BA59CA50E94AF
:103B400095326DA77EA78FA798AB2DA53EA54FA553
:103B500058A96AE077ED83E29CE30E94063369AAE4
:103B60007AAA8BAA9CAA29A93AA94BA95CA96DABF0
:103B70007EAB8FAB98AF6DA97EA98FA998AD0E943F
:103B8000953269AE7AAE8BAE9CAE29AD3AAD4BADF7
:103B90005CAD6DAF7EAF8FAF21969FAF2197219621
:103BA0006CAD7DAD8EAD9FAD21970E9495323B01EE
:103BB0004C012296CFAE22972396DFAE2397249610
:103BC000EFAE24972596FFAE259725962CAD3DADFB
:103BD0004EAD5FAD25972696CFAE26972796DFAEE2
:103BE00027972896EFAE28972996FFAE2997299612
:103BF0006CAD7DAD8EAD9FAD29970E94653420E000
:103C000030E040E85FE32A966FAF2A972B967FAFAC
:103C10002B972C968FAF2C972D969FAF2D972D9687
:103C20006CAD7DAD8EAD9FAD2D970E9495322E96D9
:103C30006FAF2E972F967FAF2F9760968FAF6097BD
:103C400061969FAF619761962CAD3DAD4EAD5FAD76
:103C500061976AE077ED83E29CE30E940633629607
:103C60006FAF629763967FAF639764968FAF6497E9
:103C700065969FAF659765962CAD3DAD4EAD5FAD3A
:103C8000659766966FAE669767967FAE67976896FC
:103C90008FAE689769969FAE699769966CAD7DAD5A
:103CA0008EAD9FAD69970E949532E7962CAD3DADE4
:103CB0004EAD5FADE7976A966FAF6A976B967FAF31
:103CC0006B976C968FAF6C976D969FAF6D976D9657
:103CD0006CAD7DAD8EAD9FAD6D970E94653420E0DB
:103CE00030E040EC50E46E966FAF6E976F967FAF0A
:103CF0006F97A0968FAFA097A1969FAFA197A1961F
:103D00006CAD7DAD8EAD9FADA1970E940633A2969E
:103D10006FAFA297A3967FAFA397A4968FAFA497F8
:103D2000A5969FAFA597A5962CAD3DAD4EAD5FADC9
:103D3000A597A6962FAEA697A7963FAEA797A8964B
:103D40004FAEA897A9965FAEA997A9966CAD7DAD29
:103D50008EAD9FADA9970E9495321B012C01E8966C
:103D60009FADE897AA969FAFAA97E996AFADE9975E
:103D7000AB96AFAFAB97EA96BFADEA97AC96BFAF45
:103D8000AC97EB968FADEB97AD968FAFAD97AD96A9
:103D90002CAD3DAD4EAD5FADAD97AE960FAFAE97CE
:103DA000AF961FAFAF97C058DF4F9881C058D04033
:103DB000E0969FAFE097C158DF4FA881CF57D04022
:103DC000E196AFAFE197E1966CAD7DAD8EAD9FAD65
:103DD000E1970E9495328B01C058DF4F8883C0580D
:103DE000D040C158DF4F9883CF57D040BFEFAB1AB8
:103DF000BB0AE3968EAD9FADE397A816B90609F00E
:103E000000CEEC962FAEEC97ED963FAEED97EE968A
:103E10004FAEEE97EF965FAEEF97EF966CAD7DAD40
:103E20008EAD9FADEF97C058DF4F0FB6F894DEBF51
:103E30000FBECDBFDF91CF911F910F91FF90EF90FB
:103E4000DF90CF90BF90AF909F908F907F906F90BA
:103E50005F904F903F902F900895C701B601905802
:103E60002AE037ED43E25CE30E9406332B013C017C
:103E7000C301B2010E947833E3967FAF6EAFE39740
:103E800080E090E0A0E8BFEBE7968CAF9DAFAEAFCF
:103E9000BFAFE797E396AEADBFADE3971A161B062B
:103EA0000CF485CD212C312C412C512CAACF4F92D2
:103EB0005F926F927F928F929F92AF92BF92CF92BA
:103EC000DF92EF92FF920F931F93CF93DF938B01BB
:103ED000D82FC92F20E030E040E85FEB2B01682E9F
:103EE000792EC301B2010E94013387FD24C020E076
:103EF00030E040E85FE36801ED2EFC2EC701B6011B
:103F00000E9460341816BCF04801AD2EBC2EC501CD
:103F1000B401DF91CF911F910F91FF90EF90DF904F
:103F2000CF90BF90AF909F908F907F906F905F9059
:103F30004F900C943C0460E070E0CB01DF91CF9196
:103F40001F910F91FF90EF90DF90CF90BF90AF90B7
:103F50009F908F907F906F905F904F9008954F92B9
:103F60005F926F927F928F929F92AF92BF92CF9209
:103F7000DF92EF92FF920F931F93CF93DF93CDB712
:103F8000DEB72A970FB6F894DEBF0FBECDBF6A87A3
:103F90007987182F092F20E030E040E85FEB4B01D4
:103FA000A82EB92EC501B4010E94013387FD25C09A
:103FB00020E030E040E85FE389829A821B830C8333
:103FC00069817A818B819C810E9460341816ACF0E3
:103FD0008D829E821F8308876D817E818F81988567
:103FE0000E943C042B013C01A30192016BED7FE098
:103FF00089EC9FE30E94943204C06BED7FE089EC72
:104000009FE36B017C01C701B6012A960FB6F894B5
:10401000DEBF0FBECDBFDF91CF911F910F91FF90FB
:10402000EF90DF90CF90BF90AF909F908F907F9058
:104030006F905F904F9008952F923F924F925F92B2
:104040006F927F928F929F92AF92BF92CF92DF92A8
:10405000EF92FF920F931F93CF93DF93CDB7DEB70D
:10406000A2970FB6F894DEBF0FBECDBF8B018AA317
:1040700099A320E030E0A9019AA189A1C62ED12EF2
:10408000E92EF82EC701B6010E94013387FDACC0AE
:1040900020E030E0A9010D871E87EF86F88A6D8544
:1040A0007E858F8598890E940133811509F495C01A
:1040B00020E030E040E85FE3098B1A8BEB8AFC8A52
:1040C00069897A898B899C890E940133811509F459
:1040D00090C00D8F1E8FEF8EF8A26D8D7E8D8F8D0F
:1040E00098A10E947833698F7A8F8B8F9C8F298D4E
:1040F0003A8D3E8F2D8FB901330F880B990B0E949B
:10410000B033362E272E8D87998B8D8D9E8D0297FD
:104110000CF463C0C12CD12CE12C80E4F82E00E01B
:1041200010E090E89D8F2FE3298F26013701A3012E
:10413000920109831A838D8D8B83998D9C8369816C
:104140007A818B819C810E9465348B018D8F998F40
:1041500020E030E040E85FE3CD82DE82EF82F88647
:104160006D817E818F8198850E9495326B017C01E3
:10417000832C922CAD84B988A50194016987DA86D5
:104180008B87FC8669857A858B859C850E940133A7
:1041900018165CF69D8D898D0D8B1E8B9F8B888FDD
:1041A0006D897E898F89988DA2960FB6F894DEBFAF
:1041B0000FBECDBFDF91CF911F910F91FF90EF9078
:1041C000DF90CF90BF90AF909F908F907F906F9037
:1041D0005F904F903F902F90089500E010E020E80E
:1041E0002D8F3FE3398FD6CF00E010E01D8E198E62
:1041F000D1CF8AA18D8F99A1998FCCCF9C0182308C
:10420000910548F00297029748F02430310549F4AF
:1042100083E090E0089581E090E0089582E090E0EE
:1042200008958FEF9FEF0895EF92FF920F931F93E2
:10423000CF93DF9300D000D000D0CDB7DEB77B01A5
:1042400009831A832B833C834D835E83FB0120818A
:104250003181A901440F551F420F531F440F551FB1
:10426000DC01A40FB51F86E0FE01319601900D928E
:104270008A95E1F72F5F3F4FF701318320830F903D
:104280000F900F900F900F900F90DF91CF911F9193
:104290000F91FF90EF9008950F931F93CF93DF93AB
:1042A000CDB7DEB72C970FB6F894DEBF0FBECDBFEB
:1042B0008B01FB0120813181A901440F551F420F61
:1042C000531F440F551F840F951FFC01369786E03E
:1042D000DE01179601900D928A95E1F72150310980
:1042E000F8013183208386E0FE013796DE011196C6
:1042F00001900D928A95E1F729813A814B815C8189
:104300006D817E8180E090E02C960FB6F894DEBF40
:104310000FBECDBFDF91CF911F910F9108952F92C6
:104320003F924F925F926F927F928F929F92AF9245
:10433000BF92CF92DF92EF92FF920F931F93CF9392
:10434000DF93CDB7DEB7C458DC400FB6F894DEBFBC
:104350000FBECDBF4C01CB5AD34F4883C555DC406F
:10436000CA5AD34F5883C655DC40C95AD34F6883C5
:10437000C755DC40C85AD34F7883C855DC408E01FE
:104380000F5F164F6801A12CB12CE12CF12C3E01DE
:104390002FEF621A2CEF720AD401AE0DBF1D8C9163
:1043A000811509F4C8C4F30111821082EFEDE80F02
:1043B000E43508F41DC27F926F92CE0101969F935F
:1043C0008F9389E391E09F938F93BF93AF930E9464
:1043D000003749815A816B817C81D3018D919C91F9
:1043E0000FB6F894DEBF0FBECDBF20E030E0D6019F
:1043F0002D933C93F6014283538364837583FFEFCF
:10440000AF1ABF0AE80EF91E26E0C20ED11C30E436
:10441000E316F1040CF2C501880F991F8A0D9B1D4C
:10442000880F991F4C01800E911E20E030E080E043
:1044300090E0412C512C772473942EC0CF5FD34F42
:1044400019821882C150DC40CD5FD34F79836883D5
:10445000C350DC4046E0FE01EF5FF34FDE011196F2
:1044600001900D924A95E1F7DC01AA0FBB1FA80F3E
:10447000B91FAA0FBB1FFE013196AE0FBF1FBA5F57
:1044800046E001900D924A95E1F701960A5F1F4FB1
:104490008016910609F453C046E0F801DE01AF5FD3
:1044A000B34F01900D924A95E1F7D8014D915C917F
:1044B000119712966D917C914115510509F4BECF6B
:1044C0004130510509F49BC14230510509F446C2FF
:1044D0004330510509F434C444305105B9F6CF5F77
:1044E000D34F59834883C150DC40CD5FD34F79838C
:1044F0006883C350DC4066E0FE01EF5FF34FAE011E
:104500004F5F5F4FDA0101900D926A95E1F7D90193
:10451000AA0FBB1FA20FB31FAA0FBB1FA40FB51F6B
:10452000BD5F66E0FA0101900D926A95E1F72F5F99
:104530003F4F0A5F1F4F8016910609F0ADCF12164C
:1045400013060CF056C07E01AFEFEA1AACEFFA0A80
:10455000A901440F551F420F531F440F551F4650CA
:1045600051094E0D5F1DBC01660F771F680F791F43
:10457000660F771F8E010F5F194F060F171FBE01C1
:104580006F5F7F4F6C0196E0FA01DB0101900D92A5
:104590009A95E1F796E0FB01DE01A75EB34F01902B
:1045A0000D929A95E1F796E0FE01E75EF34FDE018A
:1045B000A55DB34F01900D929A95E1F796E0FE014B
:1045C000E55DF34FDB0101900D929A95E1F796E0DE
:1045D000FB01D80101900D929A95E1F7FA0146503E
:1045E00051090A5F1F4FEE16FF0669F6C601820FDA
:1045F000931F181619060CF0DDC08E010F5F194FBE
:104600006C01CC0CDD1CC80ED91ECC0CDD1CC00E00
:10461000D11EE12CF12C22242394312C34C0CD5B0B
:10462000D34F19821882C354DC40CB5BD34F5983DC
:104630004883C554DC4086E0FE01ED5BF34FDE01AC
:10464000A95FB34F01900D928A95E1F7D701AA0FA8
:10465000BB1FAE0DBF1DAA0FBB1F9E012F5F3F4F9B
:10466000A20FB31F86E0FE01E95FF34F01900D92A8
:104670008A95E1F73FEFE31AF30A0A5F1F4F0C1523
:104680001D0509F497C086E0F801DE01AD5BB34F6C
:1046900001900D928A95E1F7F80180819181428124
:1046A0005381009709F4BBCF8130910509F483C190
:1046B000049719F75701AA0CBB1CAE0CBF1CAA0C1F
:1046C000BB1CAC0EBD1EF50135975F0186E0DE0117
:1046D000A95FB34F01900D928A95E1F786E0FE0144
:1046E000E95FF34FDE01AF5FB34F01900D928A9502
:1046F000E1F786E0FE01EF5FF34FDE01A35CB34F0D
:1047000001900D928A95E1F7CD5FD34F6881C35038
:10471000DC40CC5FD34F7881C450DC40CB5FD34FBB
:104720008881C550DC40CA5FD34F9881C650DC40B9
:104730004730510508F441C2C35BD34F6883CD5461
:10474000DC40C25BD34F7883CE54DC40C15BD34F97
:104750008883CF54DC40C05BD34F9883C055DC4086
:10476000C35BD34F288139814A815B81CD54DC40C2
:10477000C15CD34F288339834A835B83CF53DC40AA
:1047800086E0FE01E35CF34FDE01A95FB34F0190C9
:104790000D928A95E1F786E0FE01E95FF34FD501BE
:1047A00001900D928A95E1F70A5F1F4F0C151D05C8
:1047B00009F069CF6B817C818D819E81CC57D34F6D
:1047C0000FB6F894DEBF0FBECDBFDF91CF911F9122
:1047D0000F91FF90EF90DF90CF90BF90AF909F90A0
:1047E0008F907F906F905F904F903F902F900895A3
:1047F0000E2E000CFF0BEE55F64C0C94D234A90192
:10480000440F551F420F531F440F551F1216130616
:104810000CF076C04114510409F072C0FE01E5505D
:10482000FD4FE40FF51F0280F381E02D623071052A
:1048300008F463C0DB011297129708F457C4643080
:10484000710519F4349709F05BC05E01FFEFAF1AF0
:10485000FCEFBF0A465051097501E40EF51EAC018C
:10486000440F551F480F591F440F551FCC24C394A4
:10487000E6E0DE2ECC0EDD1EC40ED51EAE014F5F6F
:104880005F4F1C0196E0F701DA0101900D929A95B5
:10489000E1F796E0FA01DE01AB5DB34F01900D92B6
:1048A0009A95E1F796E0FE01EB5DF34FDE01A95C1E
:1048B000B34F01900D929A95E1F796E0FE01E95C05
:1048C000F34FDA0101900D929A95E1F796E0FA0123
:1048D000D60101900D929A95E1F7F70186E0E81A6A
:1048E000F10896E0C90ED11CAE16BF0659F6C101FB
:1048F000820F931F21E030E010C0359708F4A5CF58
:10490000AA24A394F3E0BF2EAC0EBD1EA40EB51EC8
:104910002F5F3F4FAE014F5F5F4FCF5FD34F788226
:10492000C150DC40CE5FD34F1882C250DC40CD5F17
:10493000D34F79836883C350DC4066E0FE01EF5FAC
:10494000F34FDA0101900D926A95E1F766E0FA0102
:10495000D50101900D926A95E1F798CDCF5FD34FC5
:1049600059834883C150DC40CD5FD34F798368833E
:10497000C350DC4046E0FE01EF5FF34FDE011196CD
:1049800001900D924A95E1F7D901AA0FBB1FA20F22
:10499000B31FAA0FBB1FFE013196AE0FBF1FBD5F35
:1049A00046E001900D924A95E1F72F5F3F4F442476
:1049B0004394512C6BCDC701880F991F8E0D9F1DFD
:1049C000880F991F5C01A6E0AA1AB108FE01319672
:1049D000AE0EBF1E26E0F501DE01A95FB34F0190C8
:1049E0000D922A95E1F74701F1E08F1A910826E030
:1049F000FE01E95FF34FDE01AD5EB34F01900D9212
:104A00002A95E1F7CB5ED34F488059806A807B803E
:104A1000C551DC404530510509F417C38114910498
:104A200009F479C00C975C01CE010196A80EB91E5D
:104A300086E0F501DE01A95FB34F01900D928A95E2
:104A4000E1F786E0FE01E95FF34FDE01A35FB34FBC
:104A500001900D928A95E1F7C15FD34F6881CF50E5
:104A6000DC40C05FD34F7881C051DC40CF5ED34F74
:104A70008881C151DC40CE5ED34F9881C251DC4069
:104A800074014115510509F067C0A3019201CF5A85
:104A9000D34F6883C155DC40CE5AD34F7883C2557B
:104AA000DC40CD5AD34F8883C355DC40CC5AD34F1A
:104AB0009883C455DC40CF5AD34F688179818A816D
:104AC0009B81C155DC400E949532F5011182108214
:104AD000C75BD34F6883C954DC40C65BD34F788330
:104AE000CA54DC40C55BD34F8883CB54DC40C45BE5
:104AF000D34F9883CC54DC40C75BD34F2881398196
:104B00004A815B81C954DC402283338344835583CB
:104B1000212C312CB2CD2114310409F47FC1710153
:104B2000CB5AD34F6881C555DC40CA5AD34F7881E0
:104B3000C655DC40C95AD34F8881C755DC40C85A96
:104B4000D34F9881C855DC409E012F5F3F4F5901DC
:104B50004115510509F499CF4130510509F454C26A
:104B60004230510509F480C24330510509F49DC219
:104B70004430510509F0A9CFA3019201CF57D34F7B
:104B80006883C158DC40CE57D34F7883C258DC408D
:104B9000CD57D34F8883C358DC40CC57D34F98832D
:104BA000C458DC40CF57D34F688179818A819B817B
:104BB000C158DC400E94DE1488CF4A50564CFA019E
:104BC0000C94D23483E090E09C838B834B815C8196
:104BD0006D817E8181E090E024E030E008CC81E0CE
:104BE00090E09C838B834B815C816D817E8124E08E
:104BF00030E0FDCB84E090E09C838B834B815C8133
:104C00006D817E8181E090E021E030E0F0CB82E0B8
:104C100090E09C838B834B815C816D817E8181E000
:104C200090E024E030E0E3CB1C821B824B815C816E
:104C30006D817E8181E090E024E030E0D8CB85E09A
:104C400090E09C838B834B815C816D817E8181E0D0
:104C500090E024E030E0CBCB85E090E09C838B8338
:104C60004B815C816D817E8181E090E021E030E0CC
:104C7000BECB84E090E09C838B834B815C816D8113
:104C80007E8181E090E024E030E0B1CB83E090E0F1
:104C90009C838B834B815C816D817E8181E090E080
:104CA00021E030E0A4CB81E090E09C838B834B81BA
:104CB0005C816D817E8121E030E099CB1C821B827A
:104CC0004B815C816D817E8181E090E021E030E06C
:104CD0008ECB82E090E09C838B834B815C816D81E5
:104CE0007E8181E090E021E030E081CB8B818E7F7E
:104CF0008B834B815C816D817E8181E090E023E03C
:104D000030E075CB8B818E7F8B834B815C816D8195
:104D10007E8181E090E022E030E069CB86E090E0A7
:104D20009C838B834B815C816D817E8181E090E0EF
:104D300024E030E05CCBA114B10409F06CCB3ACD97
:104D4000A901440F551F420F531F440F551FFE0169
:104D5000EF5FFC4FE40FF51F6081718162307105D8
:104D600009F4CDC15901BA0166507109AE014F5F16
:104D70005C4F640F751FAC01440F551F480F591F3E
:104D8000440F551FCC24C394A6E0DA2ECC0EDD1EB2
:104D9000C40ED51EAE014F5F5F4F2C0196E0FB01A4
:104DA000DA0101900D929A95E1F72150310996E0D0
:104DB000FA01DE01A15EB34F01900D929A95E1F7E1
:104DC00096E0FE01E15EF34FDE01AF5CB34F019070
:104DD0000D929A95E1F796E0FE01EF5CF34FDA0150
:104DE00001900D929A95E1F796E0FA01D6010190B3
:104DF0000D929A95E1F786E0C80ED11CFB01019057
:104E0000F081E02D66507109329741F6C2018A0D9A
:104E10009B1D821B930B412C512C38CBEE24E39429
:104E2000F12CDE0111965D0160E070E080E090E021
:104E300028CE4BED5FE069E470E481E090E020E093
:104E400030E0D5CA44E558EF6DE270E481E090E0CF
:104E500020E030E0CCCACB58D34F6883C557DC4044
:104E6000CA58D34F7883C657DC40C958D34F88837C
:104E7000C757DC40C858D34F9883C857DC40CB583D
:104E8000D34F688179818A819B81C557DC400E941C
:104E9000AF1F52CCCF58D34F6883C157DC40CE5898
:104EA000D34F7883C257DC40CD58D34F8883C35744
:104EB000DC40CC58D34F9883C457DC40CF58D34FF5
:104EC000688179818A819B81C157DC400E94571F8C
:104ED00033CCC359D34F6883CD56DC40C259D34F2E
:104EE0007883CE56DC40C159D34F8883CF56DC40FF
:104EF000C059D34F9883C057DC40C359D34F688102
:104F000079818A819B81CD56DC400E94AE1A14CCF7
:104F1000C759D34F6883C956DC40C659D34F7883ED
:104F2000CA56DC40C559D34F8883CB56DC40C459A0
:104F3000D34F9883CC56DC40C759D34F68817981D1
:104F40008A819B81C956DC400E947214F5CBCB59F3
:104F5000D34F6883C556DC40CA59D34F7883C656B1
:104F6000DC40C959D34F8883C756DC40C859D34F5A
:104F70009883C856DC40CB59D34F688179818A81A8
:104F80009B81C556DC400E945C14D6CBCF59D34FD1
:104F90006883C156DC40CE59D34F7883C256DC407B
:104FA000CD59D34F8883C356DC40CC59D34F988317
:104FB000C456DC40CF59D34F688179818A819B8167
:104FC000C156DC400E94500BB7CBC758D34F688303
:104FD000C957DC40C658D34F7883CA57DC40C55800
:104FE000D34F8883CB57DC40C458D34F9883CC57DA
:104FF000DC40C758D34F688179818A819B81C9572A
:10500000DC400E948B1C98CBA3019201C75AD34F5E
:105010006883C955DC40C65AD34F7883CA55DC40F3
:10502000C55AD34F8883CB55DC40C45AD34F98839D
:10503000CC55DC40C75AD34F688179818A819B81E6
:10504000C955DC400E94943240CDC301B2010E9498
:105050001C20D5011D921C92F50162837383848309
:105060009583212C312C09CBA3019201C35AD34F34
:105070006883CD55DC40C25AD34F7883CE55DC408F
:10508000C15AD34F8883CF55DC40C05AD34F988341
:10509000C056DC40C35AD34F688179818A819B8195
:1050A000CD55DC400E94653410CDA3019201C35858
:1050B000D34F6883CD57DC40C258D34F7883CE5747
:1050C000DC40C158D34F8883CF57DC40C058D34F02
:1050D0009883C058DC40C358D34F688179818A8156
:1050E0009B81CD57DC400E940633EFCCE230F105C6
:1050F00008F406CC3297339708F002CCA6CB412CAB
:10510000512CC4C9CF92DF92EF92FF92FC016A0149
:105110007B0120FD08C023FD05C022FF02C0F382F1
:10512000E282D182C082FF90EF90DF90CF9008950D
:10513000CF92DF92EF92FF926B017C0183E044FDFE
:1051400010C084E046FD0DC0D601F701AA0FBB1FB9
:10515000EE1FFF1F1094D1F7CA0EDB1EEE1EFF1EBE
:1051600081E0CC0CDD1CEE1CFF1C8A95D1F7C70139
:10517000B601620F711D811D911DFF90EF90DF90B0
:10518000CF9008950F931F93CF93DF938C01C801A5
:105190000E946A36EC0197FD08C00E940C36892BEC
:1051A000B1F7B801CE010E941937CE01DF91CF913E
:1051B0001F910F910895A0E0B0E0E1EEF8E20C94A9
:1051C000DD34D82EE92E8B01742EC52EB22E0E940E
:1051D0006A36EC019927CB3221F08D9791F46894CF
:1051E000B7F80150104031F480E0CDB7DEB7EDE004
:1051F0000C94F9348D2D9E2D0E946A36EC0197FD9A
:10520000F3CFFB2CE894F1F88B2D8073811134C01F
:10521000C03391F5480121E0821A910839F08D2DB3
:105220009E2D0E946A36EC0197FF16C0812C912CAE
:105230005401F7FE08C0B094A09490948094811C0F
:10524000911CA11CB11C2F2DB501A401872D9C2DF3
:105250000E94822881E0C9CF8F7D883539F58B2D5A
:105260008264F82E0250104009F38D2D9E2D0E946D
:105270006A36EC0197FDDACF812C912C54012C2F4A
:1052800020532830F0F0F4FC09C02A30D0F0F6FEAC
:1052900005C02F7D8FEE820F863090F06D2D7E2D14
:1052A000CE010E941937F1FE9FCFC3CFFB2C68942B
:1052B000F1F8B6FC03C02B2D2261F22E8401DCCF65
:1052C00027504F2DC501B4010E9498284B015C0165
:1052D0006894F1F80150104009F4ABCF8D2D9E2D4C
:1052E0000E946A36EC0197FFCACFA3CFA0E2B0E0DC
:1052F000ECE7F9E20C94DA343C015B017A01CE016F
:1053000001964C0180E2F40111928A95E9F7F301CC
:10531000B381890180E090E0A0E050E070E021E0FE
:1053200030E0F801B3FD4591B3FF4191642F8F0147
:10533000411107C000E010E0C801A096E0E10C9424
:10534000F6344E3511F4009741F178171906FCF444
:105350004D3551F14D32D9F4511511F1E62FE69545
:10536000E695E695E80DF92DF11D462F47702901C8
:1053700002C0440C551C4A95E2F7A2015081452B0E
:1053800040836A1779F06A1730F46F5FE7CF5111E5
:10539000E5CFA42FE3CF6150E1CF71E00196C1CFFB
:1053A00051E0FCCF50E0FACF511519F08E818062A8
:1053B0008E83711561F0F4019E012F5D3F4F808156
:1053C000DF01319680958C93E217F307C1F75524DE
:1053D0005394C3010E946A366C0197FD17C0E82FF1
:1053E000E695E695E695E80DF92DF11D808190E0B2
:1053F00096012770332702C0959587952A95E2F785
:1054000080FD07C0B301C6010E941937511471F025
:1054100091CFE114F10419F0F701C1927F0181E00D
:10542000A81AB108512CA114B10499F6E114F104A1
:1054300009F482CFF70110827FCFA6E0B0E0E3E26B
:10544000FAE20C94D934C82E392E8B014A010E94FD
:105450006A368D839E838D819E8199272D812B3283
:1054600069F08D9709F0D2C090E8B92E0150104034
:1054700039F480E02696E1E10C94F534B12CF6CFB6
:105480008C2D932D0E946A368D839E838D819E8103
:1054900097FDEFCF8D819E810E9415363C0199E6E4
:1054A0006916710409F4DCC0EEE66E16710409F4A5
:1054B000F2C0412C512C3201E12CF12C2D812053D2
:1054C000DB2C2A3008F007C16894D1F88B2D887046
:1054D000B2FEE8C0811103C0FFEFEF1AFF0A0150CE
:1054E000104051F08C2D932D0E946A368D839E833F
:1054F0008D819E8197FFD4C0D1FEBBCF8D818F7DE2
:10550000853409F054C0580191E0A91AB10809F492
:10551000B0CF8C2D932D0E946A368D839E83ED81B2
:10552000FE81F7FDA6CFCF019927EB3221F08D97B1
:1055300071F46894D4F85801F2E0AF1AB10809F494
:1055400098CF8C2D932D0E946A368D839E838D81FA
:105550009E81C0970A9708F08CCF00E010E0B80158
:10556000110F880B990B2D81205340E20E9498283F
:1055700069837A838B839C8309811A8121E0A21A33
:10558000B10859F08C2D932D0E946A368D839E832D
:105590008D819E81C0970A9710F3D4FE05C00981C2
:1055A0001A81119501951109E00EF11E8501012B5B
:1055B00041F08D819E8197FD04C06C2D732D0E945A
:1055C0001937C301B2010E94AE339B01AC01F7FE53
:1055D0008AC0F194E194F108E7E2F3E7FA83E98302
:1055E000A980BA8098E1A91AB10800E210E0E98127
:1055F000FA81E016F10608F07BC03497FA83E9835C
:1056000016950795EA15FB0591F722C0B12C42CFFC
:105610008017910781F08C2D932D0E946A367C01B2
:1056200097FD09C00E941536D81611F16C2D732D07
:10563000C7010E941937E981FA81E451F24709F064
:1056400018CF80E090E0A0E8BFE79C01AD01DB2C23
:10565000D7FC50588114910409F055C081E00ACF5D
:1056600081E192E79A83898389819A81080F191FC2
:10567000E981FA813196FA83E9833197D49089815F
:105680009A81D110C5CF81519247D9F680E090E040
:10569000A0ECBFE7DACFEEE0F2E7FA83E983E4CFEC
:1056A000BD2C0CCF811519F081E0E81AF10840E219
:1056B000C301B2010E9498282B013C0198E94916C8
:1056C00099E95906690699E1790608F408CFEB2DA6
:1056D000E660DE2E04CF2E3F09F00ECFB3FC0CCFD8
:1056E0006894D3F8FCCE8FE393E79A83898378CFCD
:1056F00065917591859195910E9465349B01AC01EE
:10570000E01AF10A74CFF40120833183428353837A
:10571000A5CFA8E0B0E0EFE8FBE20C94D8346C0130
:105720006F8378874B835C83FC0117821682212C60
:10573000F6013380EF81F88533FCF59033FEF1906C
:10574000F887EF83F11419F18F2D90E00E940C3649
:10575000892B21F0C6010E94C228EACFF5E2FF1290
:105760000BC0EF81F88533FC559033FE5190F887DC
:10577000EF8385E258120EC0C6010E946A364C01C2
:1057800097FDB2C0F816A1F2B6010E941937822D1A
:1057900090E0AEC09AE2412C59120AC0EF81F88520
:1057A00033FC559033FE5190F887EF8344244394A3
:1057B000E12CF12C20ED250D2A3080F141FE43C073
:1057C000E114F10421F3E8E65E1609F440C0FCE6BA
:1057D0005F1609F449C05114D1F2652D70E080E7DD
:1057E00090E00E941D36892B91F200E010E040FC11
:1057F00008C0AB80BC80F501019111915F01EB8382
:10580000BC82FEE65F123BC0F6014681578160E034
:1058100070E0242DC8010E9482288ACF689441F844
:10582000B70180E090E040E20E9498286D837E837B
:10583000ED80FE80EF81F88533FC559033FE51906A
:10584000F887EF83B7CFEE24EA94FE2CBCCFEF812C
:10585000F88533FC559033FE5190F887EF8388E646
:105860005812B9CF689443F8689442F8EF81F885EC
:1058700033FC559033FE5190F887EF83ACCFF3E6BD
:105880005F121CC041FC03C0EE24E394F12CC6015E
:105890000E946A3689839A8389819A8197FD24C000
:1058A0000115110519F0F80181938F0191E0E91AB2
:1058B000F10869F740FC3CCF23943ACFEBE55E1248
:1058C0001BC02F813885A801B701C6010E94762927
:1058D0008F8398878F819885892B61F7F601838163
:1058E0008073811509F453CF8FEF9FEF21104FCFB5
:1058F0002896E2E10C94F434C6010E94C22897FD78
:10590000F3CFFFE65F1609F450C080E7581690F415
:1059100099E65916D1F0EAE65E1630F4F8E55F161E
:1059200091F084E65816F1F1A801B701C6010E9472
:105930001D2A11C093E7591601F1E4E75E1668F4D9
:10594000F0E75F1689F7689446F8242DA801B7019F
:10595000C6010E94DB288115C0CF85E7581611F1DA
:1059600098E75916EFCF0115110519F0F80161926A
:105970008F01E1E0EE1AF10871F0C6010E946A366B
:105980003C0197FD08C00E940C36892B61F3B601DB
:10599000C3010E9419370115110509F48BCFF801D5
:1059A000108288CF689445F8D0CF689444F8CDCF62
:1059B000A2E1B0E0EEEDFCE20C94D8347C013B01B6
:1059C0008A01FC0117821682838181FF68C3F70177
:1059D0002381F30123FD859123FF81913F018115EF
:1059E00009F443C0853239F423FD959123FF919149
:1059F0003F01953239F4B70190E00E94AD3668015D
:105A00008601E5CF30E0512C912C812CF0E28F16ED
:105A100008F03DC09B3281F160F4903279F193320D
:105A200099F19E3209F04AC086FC1FC0689486F83E
:105A300006C09D3231F1903361F5689480F8F3012E
:105A400023FD959123FF91913F019111DFCF882D87
:105A5000897F482E903709F494C208F08AC298359D
:105A600009F494C29F3609F499C2F701868197819F
:105A70006296E2E10C94F434689481F8689482F8B8
:105A8000DECF689483F8DBCF689484F8D8CF87FCA6
:105A90001FC080ED890F8A3008F0C3CF86FE06C094
:105AA0004AE0549E800D1124582EC9CF5AE0959E8D
:105AB000800D1124982E689485F8C1CF9C3619F476
:105AC000689487F8BCCF9C3401F1983609F4B7CFBD
:105AD0003115E9F0892F8F7D8554833008F0A5C1F9
