:100000000C943D000C9452000C9452000C9452003D
:100010000C9452000C9452000C9452000C94520018
:100020000C9452000C9452000C9452000C94520008
:100030000C9452000C9452000C9452000C945200F8
:100040000C9452000C9452000C9452000C945200E8
:100050000C9452000C9452000C9452000C945200D8
:100060000C9452000C9452006364696E6F70737547
:1000700078585B6566674546470011241FBECFEF81
:10008000D8E0DEBFCDBF11E0A0E0B1E0EEECFFE2D2
:1000900002C005900D92AA33B107D9F70E94420F12
:1000A0000C94B0160C940000DC018D919C9111977A
:1000B000181619065CF4FB0180E090E0119201969D
:1000C0002D913C91119782179307C4F31D921C92B6
:1000D00008950F931F93CF93DF93DC018B01FA01F7
:1000E00011961C921E922081211589F0319680E094
:1000F00090E0800F911FEC0128838D919C911197C6
:10010000019611969C938E9321912111F2CFDF914C
:10011000CF911F910F910895CF92DF92EF92FF92AE
:100120000F931F93CF93DF93EC018B01922F842FBA
:1001300025E040E1C92ED32EE82EF52EC701B601E9
:100140000E947A1380E190E099838883DF91CF91B8
:100150001F910F91FF90EF90DF90CF900895299A13
:1001600085ED8A95F1F700002998089595B1937C63
:1001700095B984FD2A9A85FD2B9A86FD2C9A87FDD8
:100180002D9A299A85ED8A95F1F70000299808950E
:10019000CF93C82F0E94B6008C2F8295807F0E943B
:1001A000B6002D98CF910895CF93C82F28980E941C
:1001B000B6008C2F8295807F0E94B6002D98CF913B
:1001C0000895CF93C82F289A0E94B6008C2F82954D
:1001D000807F0E94B6002D98CF910895289885B110
:1001E000837C85B92A9A2B9A299A85ED8A95F1F70D
:1001F0000000299880E30E94B6002D98289885B1C8
:10020000837C85B92A9A2B9A299A95ED9A95F1F7CC
:100210000000299880E20E94B6002D98289885B1A8
:10022000837C85B92B9A299A85ED8A95F1F7000090
:10023000299880E80E94B6002D98289885B1837C83
:1002400085B9299A95ED9A95F1F70000299880EEE5
:100250000E94B6002D98289885B1837C85B9299A8B
:1002600085ED8A95F1F70000299880E60E94B60096
:100270002D98289885B1837C85B9299A95ED9A9512
:10028000F1F70000299880E10E94B6002D988FEDCB
:100290009EE20197F1F700C000000895289885B10B
:1002A000837C85B9299A85ED8A95F1F70000299814
:1002B00085B1837C85B92A9A299A95ED9A95F1F7AB
:1002C000000029982D988FED9EE20197F1F700C06C
:1002D000000008950F931F93CF93FC01C081C115B7
:1002E00091F08C010F5F1F4F289A8C2F0E94B6004F
:1002F0008C2F8295807F0E94B6002D98F801C191C5
:100300008F01C111F1CFCF911F910F910895EF92FD
:10031000FF921F93CF93DF93CDB7DEB728970FB629
:10032000F894DEBF0FBECDBFBE016F5F7F4F28E0E8
:10033000FB0111922A95E9F74AE00E94C91319813D
:10034000111599F07E01F2E0EF0EF11C289A812F31
:100350000E94B600812F8295807F0E94B6002D9862
:10036000F70111917F011111F1CF28960FB6F89482
:10037000DEBF0FBECDBFDF91CF911F91FF90EF90F9
:1003800008958F929F92AF92BF92CF92DF92EF9299
:10039000FF920F931F93CF93DF93CDB7DEB7C05477
:1003A000D1090FB6F894DEBF0FBECDBF7C018B0123
:1003B0005A016901289885B1837C85B9299A85ED10
:1003C0008A95F1F70000299880E10E94B6002D98E7
:1003D000EFEDFEE23197F1F700C00000F8018081F7
:1003E0008A52B801863008F0BBC09BE201C09695E6
:1003F0008A95EAF790FFB4C0CE0104960E94C2131A
:1004000081E489838EE68A8383E78B83F3E0EF0EB2
:10041000F11C1E141F0474F4FE01319697012E0F77
:100420003F1F97EF8191803711F4DF019E93E21710
:10043000F307C1F7289885B1837C85B92D9A299A4D
:1004400085ED8A95F1F70000299880E00E94B600BA
:100450002D9891E1E916F1040CF087C019814E0145
:10046000F2E08F0E911C111579F0289A812F0E94CD
:10047000B600812F8295807F0E94B6002D98F401EE
:1004800011914F011111F1CF289885B1837C85B965
:100490002C9A2D9A299AF5EDFA95F1F700002998F2
:1004A00080E00E94B6002D9881E1A816B1040CF0FE
:1004B0007AC0F6011081FFEFCF1ADF0A111579F02B
:1004C000289A812F0E94B600812F8295807F0E94FA
:1004D000B6002D98F60111916F011111F1CF2898F6
:1004E00085B1837C85B92D9A299AF5EDFA95F1F7B6
:1004F0000000299880E00E94B6002D9881E1E8165E
:10050000F1040CF04CC01E141F04B4F400E010E021
:10051000289885B1837C85B92A9A299A95ED9A9570
:10052000F1F70000299880E40E94B6002D980F5F33
:100530001F4FE016F10661F7C05CDF4F0FB6F8946D
:10054000DEBF0FBECDBFDF91CF911F910F91FF9006
:10055000EF90DF90CF90BF90AF909F908F900895D5
:10056000CE0101960E94C21354CFFE01EE0DFF1D75
:100570003E971081111509F487CF31964F01289AC3
:10058000812F0E94B600812F8295807F0E94B60045
:100590002D98F40111914F011111F1CF75CF8FE01A
:1005A000E82EF12CB3CFF5013F97EC0DFD1D108126
:1005B000111509F494CF31966F01289A812F0E946A
:1005C000B600812F8295807F0E94B6002D98F6019B
:1005D00011916F011111F1CF82CF0F931F93CF9320
:1005E000DF93DC01EB01FA01808191810B973CF0F4
:1005F0008FEF9FEF11969C938E93998388838D91B3
:100600009C911197019621F0808191810A9764F164
:1006100060E070E001E010E09BB1AB014E5F5F4F26
:10062000980102C0220F331F4A95E2F7A901822FD9
:10063000809589238BB920E030E086B190E0022ECE
:1006400002C0959587950A94E2F780FF12C02F5F4C
:100650003F4F2530310589F78BB1842B8BB96F5F04
:100660007F4F65307105C1F6DF91CF911F910F91DA
:1006700008956D937C9339832883118210828BB106
:10068000842B8BB9DF91CF911F910F9108950F9318
:100690001F93CF93DF93CDB7DEB7E2970FB6F894F1
:1006A000DEBF0FBECDBF8C0189E1E0E0F1E0DE01ED
:1006B0005A9601900D928A95E1F789E1E9E1F1E01E
:1006C000DE01119601900D928A95E1F7452BC9F450
:1006D000CB01880F991F880F991F860F971FFE0166
:1006E0003196E80FF91FE00FF11F818DE2960FB6EA
:1006F000F894DEBF0FBECDBFDF91CF911F910F9158
:100700000895FB01EE0FFF1FEE0FFF1FE60FF71F0F
:10071000CE010196E80FF91FE00FF11F8081E6CFAF
:100720009C01029740F0225031092230310530F40B
:1007300082E090E0089581E090E008958FEF9FEFD0
:100740000895EF92FF920F931F93CF93DF9300D002
:1007500000D000D0CDB7DEB77B0109831A832B838D
:100760003C834D835E83FB0120813181A901440FCD
:10077000551F420F531F440F551FDC01A40FB51F17
:1007800086E0FE01319601900D928A95E1F72F5F88
:100790003F4FF701318320830F900F900F900F9000
:1007A0000F900F90DF91CF911F910F91FF90EF90DD
:1007B00008950F931F93CF93DF93CDB7DEB72C9798
:1007C0000FB6F894DEBF0FBECDBF8B01FB012081B9
:1007D0003181A901440F551F420F531F440F551F6C
:1007E000840F951FFC01369786E0DE011796019075
:1007F0000D928A95E1F721503109F8013183208368
:1008000086E0FE013796DE01119601900D928A95E1
:10081000E1F729813A814B815C816D817E8180E0A5
:1008200090E02C960FB6F894DEBF0FBECDBFDF91DF
:10083000CF911F910F9108952F923F924F925F9207
:100840006F927F928F929F92AF92BF92CF92DF92E0
:10085000EF92FF920F931F93CF93DF93CDB7DEB745
:10086000C257D6400FB6F894DEBF0FBECDBF4C01C5
:10087000C15AD94F4883CF55D640C05AD94F588313
:10088000C056D640CF59D94F6883C156D640CE59AD
:10089000D94F7883C256D6408E010F571B4F68013F
:1008A000A12CB12CE12CF12C3E012FE7621A2EEF86
:1008B000720A30C07F926F92CE0101969F938F9300
:1008C00082E391E09F938F93BF93AF930E94311483
:1008D00049815A816B817C81F301808191810FB6BE
:1008E000F894DEBF0FBECDBF20E030E0F6013183CB
:1008F00020834283538364837583FFEFAF1ABF0A5B
:10090000E80EF91E26E0C20ED11C30E4E316F10415
:100910000CF093C0D401AE0DBF1D8C91811509F46C
:1009200088C0F30111821082E8EDE80FED3410F673
:100930000E2E000CFF0BE656F84E0C943D1382E091
:1009400090E09C838B834B815C816D817E8183E011
:1009500090E024E030E0CACF1C821B824B815C8196
:100960006D817E8183E090E024E030E0BFCF83E0C2
:1009700090E09C838B834B815C816D817E8182E0E2
:1009800090E024E030E0B2CF81E090E09C838B8364
:100990004B815C816D817E8183E090E024E030E0DA
:1009A000A5CF83E090E09C838B834B815C816D813C
:1009B0007E8181E090E021E030E098CF81E090E01E
:1009C0009C838B834B815C816D817E8121E030E053
:1009D0008DCF1C821B824B815C816D817E8181E089
:1009E00090E021E030E082CF82E090E09C838B8336
:1009F0004B815C816D817E8181E090E021E030E07F
:100A000075CF8B818E7F8B834B815C816D817E81E5
:100A100081E090E023E030E069CF8B818E7F8B8393
:100A20004B815C816D817E8181E090E022E030E04D
:100A30005DCFA114B10409F46CC2C501880F991FE0
:100A40008A0D9B1D880F991F4C01800E911E20E07E
:100A500030E080E090E0412C512C7724739431C039
:100A6000CF5FD94F19821882C150D640CD5FD94F80
:100A700079836883C350D64046E0FE01EF5FF94FAB
:100A8000DE01119601900D924A95E1F7DC01AA0F63
:100A9000BB1FA80FB91FAA0FBB1FAE014F5F5F4F4F
:100AA000A40FB51FBD5F46E0FE01319601900D9287
:100AB0004A95E1F701960A5F1F4F0815190509F4D9
:100AC00052C046E0F801DE01AF5FB94F01900D92D0
:100AD0004A95E1F7F80140815181628173814115A6
:100AE000510509F4BDCF4130510509F438C14230F8
:100AF000510509F4E0C14330510509F41CC34430E9
:100B00005105C9F6CF5FD94F59834883C150D640AC
:100B1000CD5FD94F79836883C350D64066E0FE012C
:100B2000EF5FF94FAE014F5F5F4FDA0101900D9219
:100B30006A95E1F7D901AA0FBB1FA20FB31FAA0F35
:100B4000BB1FA40FB51FA058BE4F66E0FA0101906D
:100B50000D926A95E1F72F5F3F4F0A5F1F4F08150F
:100B6000190509F0AECF121613060CF056C07E011F
:100B7000EFE7EE1AEEEFFE0AA901440F551F420FF0
:100B8000531F440F551F465051094E0D5F1DBC01A8
:100B9000660F771F680F791F660F771F8E010F5F33
:100BA0001C4F060F171FBE016F5F7F4F6C0196E051
:100BB000FA01DB0101900D929A95E1F796E0FB01B5
:100BC000DE01A55DB94F01900D929A95E1F796E08F
:100BD000FE01E55DF94FDE01A35CB94F01900D9276
:100BE0009A95E1F796E0FE01E35CF94FDB01019095
:100BF0000D929A95E1F796E0FB01D80101900D92D4
:100C00009A95E1F7FA01465051090A5F1F4FEE1617
:100C1000FF0669F6C601820F931F181619060CF01D
:100C200078C18E010F5F1C4F6C01CC0CDD1CC80E0F
:100C3000D91ECC0CDD1CC00ED11EE12CF12C34C011
:100C4000CB5AD94F19821882C555D640C95AD94FA7
:100C500059834883C755D64086E0FE01EB5AF94FC9
:100C6000DE01A95FB94F01900D928A95E1F7D70196
:100C7000AA0FBB1FAE0DBF1DAA0FBB1F9E012F5F8A
:100C80003F4FA20FB31F86E0FE01E95FF94F0190CD
:100C90000D928A95E1F73FEFE31AF30A0A5F1F4FBF
:100CA0000C151D0509F435C186E0F801DE01AB5ACB
:100CB000B94F01900D928A95E1F7F80180819181F9
:100CC00042815381009709F4BBCF8130910509F42B
:100CD0003EC1049719F74115510509F4D9C14130B6
:100CE000510509F423C34230510509F4BFC2433012
:100CF0005105A1F63701660C771C6E0C7F1C660C43
:100D0000771C6C0E7D1EF30135973F0186E0DE01F6
:100D1000A95FB94F01900D928A95E1F786E0FE0137
:100D2000E95FF94FDE01AF5FB94F01900D928A95EF
:100D3000E1F786E0FE01EF5FF94FDE01A15BB94FFD
:100D400001900D928A95E1F7CD5FD94F6881798145
:100D50008A819B81C350D6400E947712CFC1A901DE
:100D6000440F551F420F531F440F551F12161306F1
:100D70000CF073C04114510409F06FC0FE01E55836
:100D8000FE4FE40FF51F0280F381E02D6230710504
:100D900008F460C0DB011297129720F43297329763
:100DA00008F05BC05E01EFE7AE1AEEEFBE0A4650F8
:100DB00051097501E40EF51EAC01440F551F480F93
:100DC000591F440F551FCC24C394E3E0DE2ECC0EF4
:100DD000DD1EC40ED51EAE014F5F5F4F1C0196E0B5
:100DE000F701DA0101900D929A95E1F796E0FA0188
:100DF000DE01A95CB94F01900D929A95E1F796E05A
:100E0000FE01E95CF94FDE01A75BB94F01900D923D
:100E10009A95E1F796E0FE01E75BF94FDA01019060
:100E20000D929A95E1F796E0FA01D60101900D92A4
:100E30009A95E1F7F70186E0E81AF10896E0C90E05
:100E4000D11CAE16BF0659F6C101820F931F21E0D7
:100E500030E010C0349708F4A5CFF1E8AF2EBB24E2
:100E6000B394AC0EBD1EA40EB51E2F5F3F4FAE0156
:100E70004F5F5F4FCF5FD94F7882C150D640CE5F72
:100E8000D94F1882C250D640CD5FD94F798368833D
:100E9000C350D64066E0FE01EF5FF94FDA010190E2
:100EA0000D926A95E1F766E0FA01D50101900D9285
:100EB0006A95E1F700CECF5FD94F59834883C1507F
:100EC000D640CD5FD94F79836883C350D64046E082
:100ED000FE01EF5FF94FDE01119601900D924A95E8
:100EE000E1F7D901AA0FBB1FA20FB31FAA0FBB1FA7
:100EF000FE013196AE0FBF1FA058BE4F46E00190D5
:100F00000D924A95E1F72F5F3F4F44244394512CB3
:100F1000D2CD6B817C818D819E81CE58D94F0FB609
:100F2000F894DEBF0FBECDBFDF91CF911F910F911F
:100F3000FF90EF90DF90CF90BF90AF909F908F90F9
:100F40007F906F905F904F903F902F900895370162
:100F5000660C771C6E0C7F1C660C771CFE013597A7
:100F6000E60DF71D86E0DE01A95FB94F01900D92F5
:100F70008A95E1F781E0E81AF10886E0FE01E95F71
:100F8000F94FDE01AB5DB94F01900D928A95E1F703
:100F9000C95DD94F288039804A805B80C752D640CE
:100FA000E114F10409F035C1C15AD94F6881CF5518
:100FB000D640C05AD94F7881C056D640CF59D94F64
:100FC0008881C156D640CE59D94F9881C256D64055
:100FD000EE24E394F12C9E012F5F3F4F3901411520
:100FE000510551F5A2019101C55AD94F6883CB55DE
:100FF000D640C45AD94F7883CC55D640C35AD94F1E
:101000008883CD55D640C25AD94F9883CE55D64005
:10101000C55AD94F688179818A819B81CB55D64049
:101020000E944D11F301118210824B015C018282FA
:101030009382A482B58232CE4130510509F4ADC10C
:101040004230510509F451C14330510559F7A2010D
:101050009101C159D94F6883CF56D640C059D94F55
:101060007883C057D640CF58D94F8883C157D640D0
:10107000CE58D94F9883C257D640C159D94F6881AD
:1010800079818A819B81CF56D6400E94BE11CACFFA
:101090003701660C771C6E0C7F1C660C771C6C0E7F
:1010A0007D1E930125503109390186E0F901DE01E9
:1010B000A95FB94F01900D928A95E1F786E0FE0194
:1010C000E95FF94FDE01A75EB94F01900D928A9555
:1010D000E1F786E0FE01E75EF94FDE01A15BB94F63
:1010E00001900D928A95E1F7C55ED94F68817981AB
:1010F0008A819B81CB51D6400E94BF12CF5AD94FD3
:10110000688379838A839B83C155D64086E0FE013C
:10111000E15BF94FDE01A95FB94F01900D928A950D
:10112000E1F786E0FE01E95FF94FD30101900D92EE
:101130008A95E1F7B3CDA901440F551F420F531F04
:10114000440F551FFE01EF57FE4FE40FF51F60815E
:1011500071816230710509F441C15901BA016650CB
:101160007109AE014F575E4F640F751FAC01440FFC
:10117000551F480F591F440F551FCC24C394A3E09B
:10118000DA2ECC0EDD1EC40ED51EAE014F5F5F4FB2
:101190002C0196E0FB01DA0101900D929A95E1F79E
:1011A0002150310996E0FA01DE01AF5CB94F0190A0
:1011B0000D929A95E1F796E0FE01EF5CF94FDE01A2
:1011C000AD5BB94F01900D929A95E1F796E0FE0163
:1011D000ED5BF94FDA0101900D929A95E1F796E0F7
:1011E000FA01D60101900D929A95E1F786E0C80EBA
:1011F000D11CFB010190F081E02D665071093297FE
:1012000041F6C2018A0D9B1D821B930B412C512C70
:1012100052CC6C0E7D1EF3013B973F0186E0DE0150
:10122000A95FB94F01900D928A95E1F786E0FE0122
:10123000E95FF94FDE01A15EB94F01900D928A95E9
:10124000E1F7CF5DD94F6881C152D640CE5DD94F0D
:101250007881C252D640CD5DD94F8881C352D640E5
:10126000CC5DD94F9881C452D640B9CE3701660CB7
:10127000771C6E0C7F1C660C771C6C0E7D1EC301E8
:1012800005973C0186E0F301DE01A95FB94F0190AB
:101290000D928A95E1F786E0FE01E95FF94FDE01E4
:1012A000A35FB94F01900D928A95E1F786E0FE01A8
:1012B000E35FF94FDE01A15BB94F01900D928A9572
:1012C000E1F7C15FD94F688179818A819B81CF50D5
:1012D000D6400E94C71212CF4BED5FE069E470E484
:1012E00081E090E020E030E001CBA2019101C559FE
:1012F000D94F6883CB56D640C459D94F7883CC5642
:10130000D640C359D94F8883CD56D640C259D94FFC
:101310009883CE56D640C559D94F688179818A8144
:101320009B81CB56D6400E94840E7CCE3701660C42
:10133000771C6E0C7F1C660C771C6C0E7D1EA30147
:10134000455051093A0186E0FA01DE01A95FB94F23
:1013500001900D928A95E1F786E0FE01E95FF94F71
:10136000DE01AD5EB94F01900D928A95E1F786E0FE
:10137000FE01ED5EF94FDE01A15BB94F01900D92C8
:101380008A95E1F7CB5ED94F688179818A819B810B
:10139000C551D6400E94B911B1CEA2019101C959DF
:1013A000D94F6883C756D640C859D94F7883C85695
:1013B000D640C759D94F8883C956D640C659D94F48
:1013C0009883CA56D640C959D94F688179818A8194
:1013D0009B81C756D6400E944C1124CE412C512CE3
:1013E0006ACBCF92DF92EF92FF92FC016A017B0100
:1013F00020FD08C023FD05C022FF02C0F382E28267
:10140000D182C082FF90EF90DF90CF900895CF926D
:10141000DF92EF92FF926B017C0183E044FD10C0EC
:1014200084E046FD0DC0D601F701AA0FBB1FEE1FD9
:10143000FF1F1094D1F7CA0EDB1EEE1EFF1E81E0C7
:10144000CC0CDD1CEE1CFF1C8A95D1F7C701B60140
:10145000620F711D811D911DFF90EF90DF90CF9065
:1014600008950F931F93CF93DF938C01C8010E94BF
:10147000EE13EC0197FD08C00E949F13892BB1F772
:10148000B801CE010E944A14CE01DF91CF911F9185
:101490000F910895A0E0B0E0E0E5FAE00C94481365
:1014A000D82EE92E8B01742EC52EB22E0E94EE137B
:1014B000EC019927CB3221F08D9791F46894B7F81D
:1014C0000150104031F480E0CDB7DEB7EDE00C9470
:1014D00064138D2D9E2D0E94EE13EC0197FDF3CF2A
:1014E000FB2CE894F1F88B2D8073811134C0C0334C
:1014F00091F5480121E0821A910839F08D2D9E2D39
:101500000E94EE13EC0197FF16C0812C912C540120
:10151000F7FE08C0B094A09490948094811C911C14
:10152000A11CB11C2F2DB501A401872D9C2D0E945B
:10153000F10981E0C9CF8F7D883539F58B2D826423
:10154000F82E0250104009F38D2D9E2D0E94EE13AF
:10155000EC0197FDDACF812C912C54012C2F2053D4
:101560002830F0F0F4FC09C02A30D0F0F6FE05C0B7
:101570002F7D8FEE820F863090F06D2D7E2DCE0167
:101580000E944A14F1FE9FCFC3CFFB2C6894F1F860
:10159000B6FC03C02B2D2261F22E8401DCCF275034
:1015A0004F2DC501B4010E94070A4B015C016894EC
:1015B000F1F80150104009F4ABCF8D2D9E2D0E9403
:1015C000EE13EC0197FFCACFA3CFA0E2B0E0EBEEA1
:1015D000FAE00C9445133C015B017A01CE010196BF
:1015E0004C0180E2F40111928A95E9F7F301B3818D
:1015F000890180E090E0A0E050E070E021E030E080
:10160000F801B3FD4591B3FF4191642F8F01411162
:1016100007C000E010E0C801A096E0E10C9461135F
:101620004E3511F4009741F178171906FCF44D3549
:1016300051F14D32D9F4511511F1E62FE695E695A9
:10164000E695E80DF92DF11D462F4770290102C0DE
:10165000440C551C4A95E2F7A2015081452B40836A
:101660006A1779F06A1730F46F5FE7CF5111E5CF51
:10167000A42FE3CF6150E1CF71E00196C1CF51E0DB
:10168000FCCF50E0FACF511519F08E8180628E8325
:10169000711561F0F4019E012F5D3F4F8081DF01E4
:1016A000319680958C93E217F307C1F75524539434
:1016B000C3010E94EE136C0197FD17C0E82FE69559
:1016C000E695E695E80DF92DF11D808190E09601F3
:1016D0002770332702C0959587952A95E2F780FDFC
:1016E00007C0B301C6010E944A14511471F091CF92
:1016F000E114F10419F0F701C1927F0181E0A81A09
:10170000B108512CA114B10499F6E114F10409F4C3
:1017100082CFF70110827FCFA6E0B0E0E2E9FBE0E4
:101720000C944413C82E392E8B014A010E94EE13EB
:101730008D839E838D819E8199272D812B3269F027
:101740008D9709F0D2C090E8B92E0150104039F4BD
:1017500080E02696E1E10C946013B12CF6CF8C2D3D
:10176000932D0E94EE138D839E838D819E8197FD24
:10177000EFCF8D819E810E94A8133C0199E66916E6
:10178000710409F4DCC0EEE66E16710409F4F2C0CF
:10179000412C512C3201E12CF12C2D812053DB2CDA
:1017A0002A3008F007C16894D1F88B2D8870B2FEFA
:1017B000E8C0811103C0FFEFEF1AFF0A015010408B
:1017C00051F08C2D932D0E94EE138D839E838D817D
:1017D0009E8197FFD4C0D1FEBBCF8D818F7D853494
:1017E00009F054C0580191E0A91AB10809F4B0CF2A
:1017F0008C2D932D0E94EE138D839E83ED81FE81AF
:10180000F7FDA6CFCF019927EB3221F08D9771F428
:101810006894D4F85801F2E0AF1AB10809F498CFEF
:101820008C2D932D0E94EE138D839E838D819E813E
:10183000C0970A9708F08CCF00E010E0B801110FB4
:10184000880B990B2D81205340E20E94070A69837F
:101850007A838B839C8309811A8121E0A21AB108C3
:1018600059F08C2D932D0E94EE138D839E838D81D4
:101870009E81C0970A9710F3D4FE05C009811A8192
:10188000119501951109E00EF11E8501012B41F022
:101890008D819E8197FD04C06C2D732D0E944A148A
:1018A000C301B2010E94470E9B01AC01F7FE8AC042
:1018B000F194E194F108EEE1FEE2FA83E983A98074
:1018C000BA8098E1A91AB10800E210E0E981FA8132
:1018D000E016F10608F07BC03497FA83E983169589
:1018E0000795EA15FB0591F722C0B12C42CF80176E
:1018F000910781F08C2D932D0E94EE137C0197FDB2
:1019000009C00E94A813D81611F16C2D732DC701C0
:101910000E944A14E981FA81EA56FD4209F018CF83
:1019200080E090E0A0E8BFE79C01AD01DB2CD7FC94
:1019300050588114910409F055C081E00ACF87E620
:101940009DE29A83898389819A81080F191FE98111
:10195000FA813196FA83E9833197D49089819A810B
:10196000D110C5CF87569D42D9F680E090E0A0EC1B
:10197000BFE7DACFE4E6FDE2FA83E983E4CFBD2CEA
:101980000CCF811519F081E0E81AF10840E2C3019B
:10199000B2010E94070A2B013C0198E9491699E916
:1019A0005906690699E1790608F408CFEB2DE6603F
:1019B000DE2E04CF2E3F09F00ECFB3FC0CCF68947F
:1019C000D3F8FCCE86E39EE29A83898378CF659133
:1019D0007591859195910E94840E9B01AC01E01A4E
:1019E000F10A74CFF4012083318342835383A5CF5E
:1019F000A8E0B0E0EEEFFCE00C9443136C016F83C1
:101A000078874B835C83FC0117821682212CF601B8
:101A10003380EF81F88533FCF59033FEF190F88741
:101A2000EF83F11419F18F2D90E00E949F13892B01
:101A300021F0C6010E94310AEACFF5E2FF120BC085
:101A4000EF81F88533FC559033FE5190F887EF8392
:101A500085E258120EC0C6010E94EE134C0197FD9C
:101A6000B2C0F816A1F2B6010E944A14822D90E08D
:101A7000AEC09AE2412C59120AC0EF81F88533FCBE
:101A8000559033FE5190F887EF8344244394E12C22
:101A9000F12C20ED250D2A3080F141FE43C0E114E8
:101AA000F10421F3E8E65E1609F440C0FCE65F1697
:101AB00009F449C05114D1F2652D70E088E690E038
:101AC0000E94B013892B91F200E010E040FC08C0A6
:101AD000AB80BC80F501019111915F01EB83BC8269
:101AE000FEE65F123BC0F6014681578160E070E080
:101AF000242DC8010E94F1098ACF689441F8B701EA
:101B000080E090E040E20E94070A6D837E83ED80D2
:101B1000FE80EF81F88533FC559033FE5190F887B5
:101B2000EF83B7CFEE24EA94FE2CBCCFEF81F8858B
:101B300033FC559033FE5190F887EF8388E65812B6
:101B4000B9CF689443F8689442F8EF81F88533FC84
:101B5000559033FE5190F887EF83ACCFF3E65F12D8
:101B60001CC041FC03C0EE24E394F12CC6010E948A
:101B7000EE1389839A8389819A8197FD24C0011588
:101B8000110519F0F80181938F0191E0E91AF1082C
:101B900069F740FC3CCF23943ACFEBE55E121BC0C3
:101BA0002F813885A801B701C6010E94E50A8F83FD
:101BB00098878F819885892B61F7F60183818073DF
:101BC000811509F453CF8FEF9FEF21104FCF289647
:101BD000E2E10C945F13C6010E94310A97FDF3CF36
:101BE000FFE65F1609F450C080E7581690F499E6B6
:101BF0005916D1F0EAE65E1630F4F8E55F1691F07A
:101C000084E65816F1F1A801B701C6010E948C0BB9
:101C100011C093E7591601F1E4E75E1668F4F0E7A6
:101C20005F1689F7689446F8242DA801B701C6010C
:101C30000E944A0A8115C0CF85E7581611F198E72E
:101C40005916EFCF0115110519F0F80161928F01B6
:101C5000E1E0EE1AF10871F0C6010E94EE133C01BA
:101C600097FD08C00E949F13892B61F3B601C30141
:101C70000E944A140115110509F48BCFF801108256
:101C800088CF689445F8D0CF689444F8CDCFE894D5
:101C900009C097FB3EF490958095709561957F4FB4
:101CA0008F4F9F4F9923A9F0F92F96E9BB27939562
:101CB000F695879577956795B795F111F8CFFAF472
:101CC000BB0F11F460FF1BC06F5F7F4F8F4F9F4FA3
:101CD00016C0882311F096E911C0772321F09EE801
:101CE000872F762F05C0662371F096E8862F70E067
:101CF00060E02AF09A95660F771F881FDAF7880F41
:101D00009695879597F908950E94970E0C94080F61
:101D10000E94FA0E38F00E94010F20F0952311F076
:101D20000C94F10E0C94F70E11240C943C0F0E94AD
:101D3000190F70F3959FC1F3950F50E0551F629FE7
:101D4000F001729FBB27F00DB11D639FAA27F00D14
:101D5000B11DAA1F649F6627B00DA11D661F829F3B
:101D60002227B00DA11D621F739FB00DA11D621F20
:101D7000839FA00D611D221F749F3327A00D611D3D
:101D8000231F849F600D211D822F762F6A2F11241F
:101D90009F5750409AF0F1F088234AF0EE0FFF1F52
:101DA000BB1F661F771F881F91505040A9F79E3FA9
:101DB000510580F00C94F10E0C943C0F5F3FE4F35E
:101DC000983ED4F3869577956795B795F795E795FF
:101DD0009F5FC1F7FE2B880F911D9695879597F908
:101DE000089597F99F6780E870E060E008959FEF9D
:101DF00080EC089500240A941616170618060906A2
:101E0000089500240A941216130614060506089570
:101E1000092E0394000C11F4882352F0BB0F40F4F8
:101E2000BF2B11F460FF04C06F5F7F4F8F4F9F4F38
:101E3000089557FD9058440F551F59F05F3F71F0BA
:101E40004795880F97FB991F61F09F3F79F0879521
:101E50000895121613061406551FF2CF4695F1DFAA
:101E600008C0161617061806991FF1CF869571053A
:101E7000610508940895E894BB2766277727CB016E
:101E800097F90895CDB7DEB7C159D1090FB6F894C7
:101E9000DEBF0FBECDBF80917A008F7780937A002E
:101EA00017B88FEF88B984B98AB98BB90E94EE0050
:101EB0008FEF9FEFCB57DF4F99838883C558D04072
:101EC000CD57DF4F99838883C358D040CF57DF4F1A
:101ED00019821882C158D04080E45E0121E4A20E2C
:101EE000B11CF501282F11922A95E9F7FE013196D0
:101EF0004F0111928A95E9F7C12CD12CE12CF12CDC
:101F0000C157DF4F19821882CF58D040412C312C55
:101F1000212CCF56DF4F1882C159D040612C712C33
:101F20003BC0672809F0FEC093E6891709F43AC15F
:101F3000E4E68E170CF4DBC083E7581609F41DC1E4
:101F400094E7591609F406C1ECE65E1252C1F50198
:101F5000EE0DFF1D2CE620833EE6318388E282836E
:101F600093E0E90EF11C612C712C9401A601B501DE
:101F7000C7010E94C1010F5F1F4FCF57DF4F198369
:101F80000883C158D0408FEF99EFE0E08150904036
:101F9000E040E1F700C00000AE014F575F4FBE01C7
:101FA0006D577F4FCE018B579F4F0E94ED02CB574D
:101FB000DF4F88819981C558D040CF57DF4F0881C6
:101FC0001981C158D0408F3F980779F2011511054A
:101FD00061F6CD57DF4F68817981C358D040C15732
:101FE000DF4F48815981CF58D0400E944703582E77
:101FF0002DE3821396CF289885B1837C85B9299AE1
:1020000035ED3A95F1F70000299880E10E94B6007D
:102010002D988FED9EE20197F1F700C00000C9579F
:10202000DF4F4882C758D040C857DF4F3882C85862
:10203000D040C757DF4F2882C958D040CF56DF4F16
:102040009881C159D040C657DF4F9883CA58D040B5
:10205000C957DF4F488159816A817B81C758D04079
:10206000C5010E941C04462E372E282ECF56DF4F66
:102070009883C159D040840125E040E1C557DF4F26
:102080006883CB58D040C457DF4F7883CC58D040BA
:10209000C357DF4F8883CD58D040C257DF4F988356
:1020A000CE58D040C557DF4F688179818A819B81A6
:1020B000CB58D0400E947A13E1E0CF57DF4FE8833E
:1020C000C158D040CE57DF4F1882C258D040FFEFE2
:1020D00020E732E0F15020403040E1F700C000003E
:1020E00080E1C82ED12C66246394712C55CFFCE37B
:1020F0008F1721F12FE5521609F485C036E25312ED
:1021000078C0C157DF4FE881F981CF58D04021E036
:10211000E227C157DF4FF983E883CF58D040612CC5
:10212000712C23CF8CE3581285C0CD2829F0F401FF
:1021300020E111922A95E9F7C12CD12CF1E0EF1A98
:10214000F108F501EE0DFF1D1082612C712C0DCFF1
:10215000E12CF12CF501EE0DFF1D94E7908321E6B3
:1021600021833EE6328388E2838394E0E90EF11C0A
:10217000612C712CFACEE12CF12CF501EE0DFF1D36
:1021800033E7308389E681839EE6928328E22383C6
:1021900034E0E30EF11C612C712CE7CEC12CD12C64
:1021A000E12CF12CF501EE0DFF1D83E680839FE607
:1021B000918323E7228338E2338384E0E80EF11C25
:1021C000612C712CD2CEF3E65F1641F324E6521651
:1021D0000CF451C093E7591671F2E4E75E1609F466
:1021E000B7CFFCE6E12CF12C5F1609F4B0CEE12C60
:1021F000F12CF501EE0DFF1D50823FEFE31AF30ABB
:10220000612C712CB2CE1E141F0434F4A70160E0BF
:1022100070E0C5010E94BB13CD28B9F1F40120E1A3
:1022200011922A95E9F7C12CD12CE12CF12C612CCB
:10223000712C9BCE1E141F0434F4A70160E070E0E3
:10224000C5010E94BB13C114D10409F4BCCFF40131
:1022500020E111922A95E9F733E6531609F49ECF4F
:1022600084E6E12CF12CC12CD12C58160CF442CF71
:10227000C12CD12C61CE3FE5531639F086E2E12C1A
:10228000F12C581609F43DCFB2CFC12CD12CE12C42
:10229000F12C612C712C69CE5058BB27AA270E94C3
:1022A00064110C94080F0E94FA0E38F00E94010F7E
:1022B00020F039F49F3F19F426F40C94F70E0EF435
:1022C000E095E7FB0C94F10EE92F0E94190F58F3EB
:1022D000BA17620773078407950720F079F4A6F50B
:1022E0000C943B0F0EF4E0950B2EBA2FA02D0B0192
:1022F000B90190010C01CA01A0011124FF27591B4B
:1023000099F0593F50F4503E68F11A16F040A22F50
:10231000232F342F4427585FF3CF469537952795C1
:10232000A795F0405395C9F77EF41F16BA0B620BC0
:10233000730B840BBAF09150A1F0FF0FBB1F661F07
:10234000771F881FC2F70EC0BA0F621F731F841F4A
:1023500048F4879577956795B795F7959E3F08F070
:10236000B0CF9395880F08F09927EE0F9795879532
:1023700008950E943212E3950C945B120E94D211D0
:102380000C94080F0E94010F58F00E94FA0E40F0C2
:1023900029F45F3F29F00C94F10E51110C943C0F7D
:1023A0000C94F70E0E94190F68F39923B1F355238B
:1023B00091F3951B550BBB27AA2762177307840758
:1023C00038F09F5F5F4F220F331F441FAA1FA9F3EE
:1023D00035D00E2E3AF0E0E832D091505040E695DC
:1023E000001CCAF72BD0FE2F29D0660F771F881F3D
:1023F000BB1F261737074807AB07B0E809F0BB0B30
:10240000802DBF01FF2793585F4F3AF09E3F510543
:1024100078F00C94F10E0C943C0F5F3FE4F3983E7F
:10242000D4F3869577956795B795F7959F5FC9F72C
:10243000880F911D9695879597F90895E1E0660FAD
:10244000771F881FBB1F621773078407BA0720F026
:10245000621B730B840BBA0BEE1F88F7E09508958F
:102460000C94F70E0E94210FD8F3E894E0E0BB270C
:102470009F57F0F02AED3FE049EC06C0EE0FBB0F8E
:10248000661F771F881F28F0B23A62077307840718
:1024900028F0B25A620B730B840BE3959A9572F78E
:1024A000803830F49A95BB0F661F771F881FD2F7CC
:1024B00090480C94EE12EF93E0FF07C0A2EA2AEDD9
:1024C0003FE049EC5FEB0E9464110E94080F0F90FF
:1024D000039401FC9058EFE6FDE20C94211316F0F2
:1024E0000C94EC120C94F70E68940C94F10E0E946C
:1024F000210FA8F39923C1F3AEF3DF93CF931F937A
:102500000F93FF92C92FDD2788232AF02197660FAA
:10251000771F881FDAF720E030E040E85FEB9FE3A9
:10252000883920F0803E38F021968F770E944D1137
:10253000EDE8FDE204C00E944D11EAEBFDE20E94CD
:10254000FA128B01BE01EC01FB2E6F5771097595D4
:10255000771F880B990B0E94490E28E132E741E36F
:102560005FE30E94970EAF2D9801AE01FF900F918F
:102570001F91CF91DF910E9464110C94080F9F93DB
:102580000E9432120F9007FCEE5F0C945B12DF93F7
:10259000D92F0E943212E695D7952AED3FE049E403
:1025A0005FE3B33A6207730784079507D7953AF05C
:1025B000A2EA49EC90680E9464110E94080FE7EEBD
:1025C000FDE20E942113DD0F13F00E943513DD0F91
:1025D0000BF49058DF9108959F3F31F0915020F413
:1025E000879577956795B795880F911D96958795EF
:1025F00097F90895DF93CF931F930F93FF92EF9274
:10260000DF927B018C01689406C0DA2EEF010E94F4
:10261000970EFE01E894A59125913591459155912C
:10262000A6F3EF010E946411FE019701A801DA945C
:1026300069F7DF90EF90FF900F911F91CF91DF919D
:1026400008959F938F937F936F93FF93EF939B01D5
:10265000AC010E94840EEF91FF910E94FA122F911B
:102660003F914F915F910C94840E9B01AC0160E00F
:1026700070E080E89FE30C94BE11EE0FFF1F059001
:10268000F491E02D09942F923F924F925F926F92B6
:102690007F928F929F92AF92BF92CF92DF92EF92F2
:1026A000FF920F931F93CF93DF93CDB7DEB7CA1B73
:1026B000DB0B0FB6F894DEBF0FBECDBF09942A889E
:1026C000398848885F846E847D848C849B84AA8446
:1026D000B984C884DF80EE80FD800C811B81AA81D3
:1026E000B981CE0FD11D0FB6F894DEBF0FBECDBF9E
:1026F000ED0108958F929F92AF92BF92EF920F9348
:102700001F93CF93322FC02F54E147FF54E0242F63
:1027100027FD2195E52E032F4C2F512F4B015C01F6
:10272000C501B4010E9463148C2F912FCF911F918A
:102730000F91EF90BF90AF909F908F90089591115F
:102740000C949D16803219F089508550C8F7089571
:102750009111089581548A5108F4805E855A089534
:10276000FC010590061621F00020D9F7C00108955C
:102770003197CF010895DC0101C06D934150504065
:10278000E0F70895FB01DC0101900D920020E1F7D4
:102790000895BB274A3031F4992322F4BDE2909585
:1027A00081959F4F0C94D513BB27FB015527AA2772
:1027B000880F991FAA1FA41710F0A41B83955051CE
:1027C000B9F7A05DAA3308F0A95DA193009779F746
:1027D000B111B1931192CB010C94A0160F931F93DA
:1027E000CF93DF93EC018B8180FF1DC086FF0EC06D
:1027F0008F7B8B838E819F8101969F838E838A81BD
:1028000090E0DF91CF911F910F91089582FF19C041
:10281000E881F9819081092F092E000C110B91118B
:1028200005C080628B838FEF9FEFEBCF3196F983EA
:10283000E8838E819F8101969F838E83C8019927AB
:10284000E0CFEA85FB85CE0109958C0197FFF1CF9A
:102850008B810F3F1F4F19F490E1892BE3CF90E25A
:10286000FCCFAEE0B0E0E7E3F4E10C94531385E075
:102870008C838B899C899A838983AE01495E5F4FE3
:102880006D897E89CE0101960E94F80C2E96E2E0B9
:102890000C946F139C01FB01838180FF11C086FDA6
:1028A0000FC02F3F320751F022838F7D80648383D6
:1028B000868197810197978386833327C90108957D
:1028C0002FEF3FEFFBCFA0E1B0E0E9E6F4E10C949D
:1028D00043136A01122FF02E202F3CE3031708F058
:1028E0002BE32F5F288B022F27E0AE014F5F5F4F56
:1028F0006C877D878E879F876C857D858E859F857C
:102900000E94C5155C019981892F8970813039F049
:10291000E0FA882785F9E1FE03C08BE201C08DE271
:10292000292F2870BE2DB07193FF44C094E081110F
:1029300001C093E09117C8F4191BB11519F1811565
:1029400019F0F60181936F01C601039631E62EE678
:10295000E2FE02C031E42EE4F601208331832283BB
:10296000212F382F492F50E219C010E0E6CFF9018E
:1029700041932F0191509F019111F9CFC10ED11CAC
:1029800010E0DDCF912F960140E2F6CF632E742E3A
:10299000F30151933F0121503E2F472D2111F6CFD6
:1029A000810F911DFC0110828EEF9FEF6096E2E196
:1029B0000C945F13A92FA47092FF3EC094E0811184
:1029C00001C093E0911710F4212F291BB11529F1B3
:1029D000811519F0F60181936F01C601039659E63E
:1029E0004EE636E6E2FE03C059E44EE436E4F60174
:1029F000508341833283322FAC0160E218C0832EB2
:102A0000942EF40151934F0191503E2F492D911175
:102A1000F6CFC20ED11C20E0DBCF922F3C2D4D2DE6
:102A200050E2F5CFFA0161931F013150AF0131112E
:102A3000F9CF820F911DB6CF9501B7FE02C020E0FD
:102A400030E061E070E0811102C060E070E0A90157
:102A50004F5F5F4F460F571F6F2D70E0FB013196A0
:102A6000F11002C0E0E0F0E04E0F5F1F411751058A
:102A700014F4A12FA41B4E2D4871411155C0F6012D
:102A80004A2F50E241114DC0CA0ED11CA0E0811561
:102A900031F0F6018193A42F6F01B11108C0F60146
:102AA0008A2F40E3811145C0CA0ED11CA0E088895D
:102AB0008A0D5A81B92FB07194FF03C0513309F4C4
:102AC00081501816CCF5893008F088E0FE01319667
:102AD000EA0DFB1D4F01821A930A7501E81AF108ED
:102AE0007195619571091EE2A216B3063CF1E216DA
:102AF000F30624F5F401418121503109C601019604
:102B0000FFEF8F1A9F0A26173707D4F0F60140838C
:102B10002F3F320721F4C6010296F60111836C01A2
:102B2000E3CF51934150AECF811509F4B6CF4A2F70
:102B3000B0CF41938150B6CF81E0C8CF40E3DCCF26
:102B4000A216B30631F4563398F4553311F4B11587
:102B500079F0F60140832A2F382F492F50E22111B6
:102B600009C08A0F911DFC01108280E090E01ECF09
:102B700041E3EFCF3A874B87EA85FB855193FB878B
:102B8000EA8721503A854B85EACF283008F027E0C4
:102B90003327DA01990F311D87FD91600096610599
:102BA000710539F432602E5F3D9330E32A95E1F7E9
:102BB00008959F3F30F080387105610509F03C5F52
:102BC0003C5F3D93913008F08068911DDF93CF9377
:102BD0001F930F93FF92EF92192F987F9695E92FED
:102BE00096959695E90FFF27EC56F14D99273327D7
:102BF000EE24FF24A701E70105900894079428F428
:102C0000360FE71EF81E491F511D660F771F881FDC
:102C1000991F0694A1F70590079428F4E70EF81E73
:102C2000491F561FC11D770F881F991F661F0694E5
:102C3000A1F70590079428F4F80E491F561FC71FE7
:102C4000D11D880F991F661F771F0694A1F7059065
:102C5000079420F4490F561FC71FD81F990F661FEE
:102C6000771F881F0694A9F784911095177041F07B
:102C7000D695C79557954795F794E7941A95C1F758
:102C8000EAE3FEE26894159015913591659195916E
:102C900005907FE27395E118F10A430B560BC90BBF
:102CA000D009C0F7E10CF11E431F561FC91FD01DEC
:102CB0007EF4703311F48A95E6CFE894015030F039
:102CC000080F0AF40027021708F4202F2395022F7B
:102CD0007A3328F079E37D932A95E9F710C07D9344
:102CE0002A9589F6069497956795379517951794C1
:102CF000E118F10A430B560BC90BD00998F0239544
:102D00007E9173957A3308F070E37C932013B8F7C3
:102D10007E9170617D9330F0839571E37D9370E3D4
:102D20002A95E1F71124EF90FF900F911F91CF9119
:102D3000DF91992787FD9095089599278827089511
:102D4000DC01FC01672F71917723E1F7329704C012
:102D50007C916D9370836291AE17BF07C8F308959D
:102D6000F894FFCF616E006E66696E697479000534
:102D7000A84CCDB2D44EB93836A9020C50B99186C0
:102D800088083CA6AAAA2ABE000000803F080000CE
:102D900000BE922449123EABAAAA2ABECDCCCC4C8E
:102DA0003E00000080BEABAAAAAA3E00000000BF01
:102DB000000000803F0000000000084178D3BB43C2
:102DC00087D1133D190E3CC3BD4282AD2B3E68EC4A
:102DD0008276BED98FE1A93E4C80EFFFBE01C4FFD1
:102DE0007F3F00000000000664EC1B3C04BC163E64
:102DF0003BE5B93CC93C37C29E5A3D660498083E43
:102E0000EA69AAAA3E000000803FCDCCCC3D0AD79B
:102E1000233C17B7D13877CC2B329595E6241FB1D8
:102E20004F0A000020410000C84200401C4620BC60
:102E3000BE4CCA1B0E5AAEC59D7400407A10F35AA0
:102E400000A0724E18090010A5D4E80000E87648EA
:102E5000170000E40B54020000CA9A3B000000E196
:102E6000F505000080969800000040420F00000029
:102E7000A08601000000102700000000E803000009
:102E800000006400000000000A00000000000100D3
:102E9000000000002C76D888DC674F0823DFC1DFF4
:102EA000AE59E1B1B796E5E3E453C63AE6519976F7
:102EB00096E8E6C28426EB898C9B62ED407C6FFC31
:102EC000EFBC9C9F40F2BAA56FA5F490055A2AF773
:102ED0005C936B6CF9676DC11BFCE0E40D47FEF57C
:102EE00020E6B500D0ED902E0300943577050080E4
:102EF000841E080000204E0A000000C80C33333343
:102F0000330F986E12831141EF8D2114893BE655E2
:102F100016CFFEE6DB18D1844B381BF77C1D901DC5
:102F2000A4BBE424203284725E228100C9F124EC27
:102F3000A1E53D270D050105F404E9045A04DE046A
:102F40005A04D1045A045A045A045A045A045A041A
:102F50005A045A045A045A045A045A045A045A0481
:102F60005A045A045A045A045A045A045A045A0471
:102F70005A045A045A045A045A045A045A045A0461
:102F80005A045A045A045A045A045A045A045A0451
:102F90005A045A045A045A045A045A045A045A0441
:102FA0005A045A045A045A045A04C4045A045A04C7
:102FB0005A045A045A045A045A045A04B7045A04C4
:0E2FC0005A045A046C095A045A04AC049F04C3
:102FCE003031323334353637383928297363742B20
:102FDE002D2A2F5E3D2E5F3C26303132333435366E
:102FEE0037383928294023242B6570256C3D2E5FF8
:0A2FFE003C26256C6620256E0000BD
:00000001FF
