:100000000C943D000C9452000C9452000C9452003D
:100010000C9452000C9452000C9452000C94520018
:100020000C9452000C9452000C9452000C94520008
:100030000C9452000C9452000C9452000C945200F8
:100040000C9452000C9452000C9452000C945200E8
:100050000C9452000C9452000C9452000C945200D8
:100060000C9452000C9452006364696E6F70737547
:1000700078585B6566674546470011241FBECFEF81
:10008000D8E0DEBFCDBF11E0A0E0B1E0EAE2F9E6E2
:1000900002C005900D92AA33B107D9F70E94222D14
:1000A0000C949F330C940000DC018D919C9111976E
:1000B000181619065CF4FB0180E090E0119201969D
:1000C0002D913C91119782179307C4F31D921C92B6
:1000D00008950F931F93CF93DF93DC018B01FA01F7
:1000E00011961C921E922081211589F0319680E094
:1000F00090E0800F911FEC0128838D919C911197C6
:10010000019611969C938E9321912111F2CFDF914C
:10011000CF911F910F9108959DE8980F923070F044
:10012000833661F08C3651F0803441F0835291E097
:10013000823008F090E0892F90E0089581E090E00F
:100140000895299A85ED8A95F1F700002998089578
:1001500095B1937C95B984FD2A9A85FD2B9A86FDED
:100160002C9A87FD2D9A299A85ED8A95F1F7000042
:1001700029980895CF93C82F0E94A8008C2F8295AC
:10018000807F0E94A8002D98CF910895CF93C82F0B
:1001900028980E94A8008C2F8295807F0E94A8003A
:1001A0002D98CF910895CF93C82F289A0E94A80028
:1001B0008C2F8295807F0E94A8002D98CF91089562
:1001C000289885B1837C85B92A9A2B9A299A85ED3E
:1001D0008A95F1F70000299880E30E94A8002D98E5
:1001E000289885B1837C85B92A9A2B9A299A95ED0E
:1001F0009A95F1F70000299880E20E94A8002D98B6
:10020000289885B1837C85B92B9A299A85ED8A95A2
:10021000F1F70000299880E80E94A8002D982898FE
:1002200085B1837C85B9299A95ED9A95F1F70000FF
:10023000299880EE0E94A8002D98289885B1837C8B
:1002400085B9299A85ED8A95F1F70000299880E60D
:100250000E94A8002D98289885B1837C85B9299A99
:1002600095ED9A95F1F70000299880E10E94A80089
:100270002D988FED9EE20197F1F700C000000895E0
:10028000289885B1837C85B9299A85ED8A95F1F7FF
:100290000000299885B1837C85B92A9A299A95ED21
:1002A0009A95F1F7000029982D988FED9EE201971D
:1002B000F1F700C0000008950F931F93CF93FC0146
:1002C000C081C11591F08C010F5F1F4F289A8C2FB0
:1002D0000E94A8008C2F8295807F0E94A8002D98F4
:1002E000F801C1918F01C111F1CFCF911F910F91F1
:1002F0000895EF92FF921F93CF93DF93CDB7DEB7B0
:1003000028970FB6F894DEBF0FBECDBFBE016F5F5A
:100310007F4F28E0FB0111922A95E9F74AE00E94FD
:10032000B8301981111599F07E01F2E0EF0EF11C41
:10033000289A812F0E94A800812F8295807F0E9499
:10034000A8002D98F70111917F011111F1CF289686
:100350000FB6F894DEBF0FBECDBFDF91CF911F91D6
:10036000FF90EF9008954F925F926F927F928F92DD
:100370009F92AF92BF92CF92DF92EF92FF920F9334
:100380001F93CF93DF93CDB7DEB7C058D1090FB617
:10039000F894DEBF0FBECDBF8C015B017A0149012D
:1003A000289885B1837C85B9299A85ED8A95F1F7DE
:1003B0000000299880E10E94A8002D98AFEDBEE2D0
:1003C0001197F1F700C00000FE0131966F0180E83F
:1003D000DF011D928A95E9F7F50180818A52863006
:1003E00008F007C19BE201C096958A95EAF790FF55
:1003F00000C181E489838EE68A8383E78B8363E08F
:1004000070E0101611060CF050C0F50140E050E00D
:100410008EE6B82E99E6792E91E623E7A22E3FE6E6
:10042000632EA3E65A2EB4E74B2E25C0803409F480
:10043000F8C00CF0E1C0833209F40FC1843261F5D9
:10044000D601A20FB31F9C93DE011296A20FB31F19
:100450004C92DE011396A20FB31F9C93DE011496FB
:100460002A0F3B1FD901BC926D5F7F4F4F5F5F4FDB
:1004700004171507D1F081919B01240F351F8C368D
:1004800009F4DEC09CF2833709F410C1843709F403
:10049000FBC0803709F487EF2C0D3D1DD9018C93EB
:1004A0004F5F5F4F0417150731F75801A60EB71EAF
:1004B000289885B1837C85B92D9A299AB5EDBA958E
:1004C000F1F70000299880E00E94A8002D98E1E152
:1004D000AE16B1040CF0F4C019816E01B2E0CB0E7F
:1004E000D11C111579F0289A812F0E94A800812F24
:1004F0008295807F0E94A8002D98F60111916F01CE
:100500001111F1CF289885B1837C85B92C9A2D9A49
:10051000299AF5EDFA95F1F70000299880E00E94FC
:10052000A8002D9881E1E816F1040CF4E6C0FFE084
:10053000EF1AF108E80CF91CD7011C91111591F084
:10054000BFEFEB1AFB0A289A812F0E94A800812F87
:100550008295807F0E94A8002D98F70111917F015C
:100560001111F1CF289885B1837C85B92D9A299AEC
:10057000B5EDBA95F1F70000299880E00E94A80037
:100580002D98E1E1AE16B1040CF0B4C085011A1447
:100590001B04BCF4E12CF12C289885B1837C85B92F
:1005A0002A9A299AB5EDBA95F1F70000299880E4C6
:1005B0000E94A8002D98EFEFEE1AFE0A0E151F05F7
:1005C00059F7C058DF4F0FB6F894DEBF0FBECDBF4E
:1005D000DF91CF911F910F91FF90EF90DF90CF901F
:1005E000BF90AF909F908F907F906F905F904F9053
:1005F000089560E070E005CF833609F04DCFD60155
:10060000A20FB31F8C93DE011296A20FB31F6C9240
:10061000DE0113962A0F3B1FD901AC926E5F7F4F0C
:1006200025CFD601A20FB31F9C93DE011296A20F15
:10063000B31FAC92DE011396A20FB31F7C920ECFB4
:10064000D601A20FB31F8C93DE0112962A0F3B1F17
:10065000D901BC926F5F7F4F09CFD601A20FB31FA4
:100660009C93DE011296A20FB31F5C92DE011396DB
:10067000A20FB31F6C92DE0114962A0F3B1FD90103
:10068000AC926D5F7F4FF2CED601A20FB31F8C9359
:10069000DE011296A20FB31F9C93DE0113962A0F60
:1006A0003B1FD901BC926E5F7F4FE0CED601A20FF7
:1006B000B31F8C93DE011296A20FB31F7C92EDCF75
:1006C000F5013F97EC0DFD1D1081111509F41ACFAE
:1006D00031966F01289A812F0E94A800812F829560
:1006E000807F0E94A8002D98D6011D916D011111E7
:1006F000F1CF08CF0FE010E04DCFD4011C91FFEFF8
:100700008F1A9F0A111509F42DCF289A812F0E9464
:10071000A800812F8295807F0E94A8002D98D40187
:100720001D914D011111F1CF1DCF0F931F93CF9349
:10073000DF93DC01EB01FA01808191810B973CF0A2
:100740008FEF9FEF11969C938E93998388838D9161
:100750009C911197019621F0808191810A9764F113
:1007600060E070E001E010E09BB1AB014E5F5F4FD5
:10077000980102C0220F331F4A95E2F7A901822F88
:10078000809589238BB920E030E086B190E0022E7D
:1007900002C0959587950A94E2F780FF12C02F5FFB
:1007A0003F4F2530310589F78BB1842B8BB96F5FB3
:1007B0007F4F65307105C1F6DF91CF911F910F9189
:1007C00008956D937C9339832883118210828BB1B5
:1007D000842B8BB9DF91CF911F910F9108950F93C7
:1007E0001F93CF93DF93CDB7DEB7E2970FB6F894A0
:1007F000DEBF0FBECDBF8C0189E1E0E0F1E0DE019C
:100800005A9601900D928A95E1F789E1E9E1F1E0CC
:10081000DE01119601900D928A95E1F7452BC9F4FE
:10082000CB01880F991F880F991F860F971FFE0114
:100830003196E80FF91FE00FF11F818DE2960FB698
:10084000F894DEBF0FBECDBFDF91CF911F910F9106
:100850000895FB01EE0FFF1FEE0FFF1FE60FF71FBE
:10086000CE010196E80FF91FE00FF11F8081E6CF5E
:100870009C018230910548F00297029748F024309D
:10088000310549F483E090E0089581E090E0089517
:1008900082E090E008958FEF9FEF0895EF92FF922E
:1008A0000F931F93CF93DF9300D000D000D0CDB72C
:1008B000DEB77B0109831A832B833C834D835E83E0
:1008C000FB0120813181A901440F551F420F531FA5
:1008D000440F551FDC01A40FB51F86E0FE013196C1
:1008E00001900D928A95E1F72F5F3F4FF701318319
:1008F00020830F900F900F900F900F900F90DF912B
:10090000CF911F910F91FF90EF9008950F931F9338
:10091000CF93DF93CDB7DEB72C970FB6F894DEBF39
:100920000FBECDBF8B01FB0120813181A901440F96
:10093000551F420F531F440F551F840F951FFC0175
:10094000369786E0DE01179601900D928A95E1F7C1
:1009500021503109F8013183208386E0FE0137966A
:10096000DE01119601900D928A95E1F729813A8175
:100970004B815C816D817E8180E090E02C960FB68A
:10098000F894DEBF0FBECDBFDF91CF911F910F91C5
:1009900008952F923F924F925F926F927F928F9223
:1009A0009F92AF92BF92CF92DF92EF92FF920F93FE
:1009B0001F93CF93DF93CDB7DEB7C458DC400FB69B
:1009C000F894DEBF0FBECDBF4C01CF5AD34F488342
:1009D000C155DC40CE5AD34F5883C255DC40CD5A66
:1009E000D34F6883C355DC40CC5AD34F7883C4556A
:1009F000DC408E010F5F164F6801A12CB12CE12C59
:100A0000F12C3E012FEF621A2CEF720AD401AE0DC9
:100A1000BF1D8C91811509F4A3C4F30111821082CA
:100A2000EDEDE80FE23508F41FC27F926F92CE0120
:100A300001969F938F9382E391E09F938F93BF934F
:100A4000AF930E94203149815A816B817C81D3010F
:100A50008D919C910FB6F894DEBF0FBECDBF20E004
:100A600030E0D6012D933C93F60142835383648397
:100A70007583FFEFAF1ABF0AE80EF91E26E0C20E1B
:100A8000D11C30E4E316F1040CF2C501880F991F64
:100A90008A0D9B1D880F991F4C01800E911E20E02E
:100AA00030E080E090E0412C512C772473942EC0EC
:100AB000CF5FD34F19821882C150DC40CD5FD34F36
:100AC00079836883C350DC4046E0FE01EF5FF34F5B
:100AD000DE01119601900D924A95E1F7DC01AA0F13
:100AE000BB1FA80FB91FAA0FBB1FFE013196AE0F87
:100AF000BF1FBA5F46E001900D924A95E1F701965B
:100B00000A5F1F4F8016910609F453C046E0F801B2
:100B1000DE01AF5FB34F01900D924A95E1F7D80126
:100B20004D915C91119712966D917C9141155105F3
:100B300009F4BECF4130510509F49DC14230510541
:100B400009F448C24330510509F40FC4443051053B
:100B5000B9F6CF5FD34F59834883C150DC40CD5F96
:100B6000D34F79836883C350DC4066E0FE01EF5FBA
:100B7000F34FAE014F5F5F4FDA0101900D926A951E
:100B8000E1F7D901AA0FBB1FA20FB31FAA0FBB1F0A
:100B9000A40FB51FBD5F66E0FA0101900D926A9542
:100BA000E1F72F5F3F4F0A5F1F4F8016910609F054
:100BB000ADCF121613060CF056C07E01AFEFEA1A45
:100BC000ACEFFA0AA901440F551F420F531F440FFF
:100BD000551F465051094E0D5F1DBC01660F771F12
:100BE000680F791F660F771F8E010F5F194F060F71
:100BF000171FBE016F5F7F4F6C0196E0FA01DB01AA
:100C000001900D929A95E1F796E0FB01DE01A75E57
:100C1000B34F01900D929A95E1F796E0FE01E75EE1
:100C2000F34FDE01A55DB34F01900D929A95E1F768
:100C300096E0FE01E55DF34FDB0101900D929A9580
:100C4000E1F796E0FB01D80101900D929A95E1F74A
:100C5000FA01465051090A5F1F4FEE16FF0669F66A
:100C6000C601820F931F181619060CF0DFC08E0103
:100C70000F5F194F6C01CC0CDD1CC80ED91ECC0CBB
:100C8000DD1CC00ED11EE12CF12C88248394912C04
:100C900034C0CD5BD34F19821882C354DC40CB5B88
:100CA000D34F59834883C554DC4086E0FE01ED5B99
:100CB000F34FDE01A95FB34F01900D928A95E1F7E2
:100CC000D701AA0FBB1FAE0DBF1DAA0FBB1F9E01F0
:100CD0002F5F3F4FA20FB31F86E0FE01E95FF34F86
:100CE00001900D928A95E1F73FEFE31AF30A0A5F4C
:100CF0001F4F0C151D0509F499C086E0F801DE01AF
:100D0000AD5BB34F01900D928A95E1F7F8018081B8
:100D1000918142815381009709F4BBCF81309105C5
:100D200009F485C1049719F75701AA0CBB1CAE0C36
:100D3000BF1CAA0CBB1CAC0EBD1E95012550310971
:100D4000590186E0F901DE01A95FB34F01900D92D0
:100D50008A95E1F786E0FE01E95FF34FDE01AF5FC0
:100D6000B34F01900D928A95E1F786E0FE01EF5FA7
:100D7000F34FDE01A35CB34F01900D928A95E1F72A
:100D8000CD5FD34F6881C350DC40CC5FD34F7881B7
:100D9000C450DC40CB5FD34F8881C550DC40CA5F74
:100DA000D34F9881C650DC404730510508F427C224
:100DB000C75BD34F6883C954DC40C65BD34F78838D
:100DC000CA54DC40C55BD34F8883CB54DC40C45B42
:100DD000D34F9883CC54DC40C75BD34F28813981F3
:100DE0004A815B81C954DC40C15CD34F288339837D
:100DF0004A835B83CF53DC4086E0FE01E35CF34F24
:100E0000DE01A95FB34F01900D928A95E1F786E06C
:100E1000FE01E95FF34FD50101900D928A95E1F74C
:100E20000A5F1F4F0C151D0509F067CF6B817C8190
:100E30008D819E81CC57D34F0FB6F894DEBF0FBE85
:100E4000CDBFDF91CF911F910F91FF90EF90DF9079
:100E5000CF90BF90AF909F908F907F906F905F905A
:100E60004F903F902F9008950E2E000CFF0BE45CE6
:100E7000FB4C0C943330A901440F551F420F531FF4
:100E8000440F551F121613060CF076C0411451047E
:100E900009F072C0FE01E550FD4FE40FF51F02801E
:100EA000F381E02D6230710508F463C0DB01129715
:100EB000129708F431C46430710519F4349709F0BD
:100EC0005BC05E01FFEFAF1AFCEFBF0A465051094D
:100ED0007501E40EF51EAC01440F551F480F591F54
:100EE000440F551FCC24C394E6E0DE2ECC0EDD1E4D
:100EF000C40ED51EAE014F5F5F4F1C0196E0F70197
:100F0000DA0101900D929A95E1F796E0FA01DE017F
:100F1000AB5DB34F01900D929A95E1F796E0FE011B
:100F2000EB5DF34FDE01A95CB34F01900D929A95F2
:100F3000E1F796E0FE01E95CF34FDA0101900D92D2
:100F40009A95E1F796E0FA01D60101900D929A95F3
:100F5000E1F7F70186E0E81AF10896E0C90ED11C26
:100F6000AE16BF0659F6C101820F931F21E030E093
:100F700010C0359708F4A5CFAA24A394F3E0BF2EA0
:100F8000AC0EBD1EA40EB51E2F5F3F4FAE014F5FCE
:100F90005F4FCF5FD34F7882C150DC40CE5FD34FDD
:100FA0001882C250DC40CD5FD34F79836883C35031
:100FB000DC4066E0FE01EF5FF34FDA0101900D9235
:100FC0006A95E1F766E0FA01D50101900D926A9504
:100FD000E1F796CDCF5FD34F59834883C150DC40B2
:100FE000CD5FD34F79836883C350DC4046E0FE0178
:100FF000EF5FF34FDE01119601900D924A95E1F7F4
:10100000D901AA0FBB1FA20FB31FAA0FBB1FFE015E
:101010003196AE0FBF1FBD5F46E001900D924A951D
:10102000E1F72F5F3F4F44244394512C69CD570182
:10103000AA0CBB1CAE0CBF1CAA0CBB1CFE01359736
:10104000EA0DFB1D86E0DE01A95FB34F01900D9212
:101050008A95E1F781E0E81AF10886E0FE01E95F90
:10106000F34FDE01AD5EB34F01900D928A95E1F72B
:10107000CB5ED34F688179818A819B81C551DC40E9
:10108000E114F10409F055C08114910409F4DBC1A5
:101090007401CF5AD34F9880C155DC40CE5AD34FFC
:1010A0008880C255DC40CD5AD34FF881C355DC400F
:1010B000CC5AD34FE881C455DC40DE0111965D0166
:1010C0004115510509F065C09B01AC01D401C35B1A
:1010D000D34FB883CD54DC40C25BD34F8882CE540B
:1010E000DC40C15BD34FF883CF54DC40C05BD34FAF
:1010F000E883C055DC40C35BD34F688179818A8126
:101100009B81CD54DC400E94F12E962E872EF82F25
:10111000E92FD5011D921C92D4014B2E582C6F2E15
:101120007E2EF5014282538264827582812C912C3D
:10113000DECDAC0EBD1EF5013B975F0126E0DE0162
:10114000A95FB34F01900D922A95E1F726E0FE01C9
:10115000E95FF34FDE01A35FB34F01900D922A9533
:10116000E1F7C15FD34F9880CF50DC40C05FD34FD1
:101170008880C051DC40CF5ED34FF881C151DC4044
:10118000CE5ED34FE881C251DC404115510509F4D0
:101190009BCF4130510509F473C24230510509F427
:1011A0005EC14330510509F491C24430510509F044
:1011B000B0CF9B01AC01D401CF57D34FB883C158F6
:1011C000DC40CE57D34F8882C258DC40CD57D34F36
:1011D000F883C358DC40CC57D34FE883C458DC4075
:1011E000CF57D34F688179818A819B81C158DC4078
:1011F0000E94DF21962E872EF82FE92F8ACF4257A3
:101200005B4CFA010C94333082E090E09C838B833A
:101210004B815C816D817E8181E090E024E030E053
:1012200020CC1C821B824B815C816D817E8181E0A0
:1012300090E024E030E015CC83E090E09C838B8349
:101240004B815C816D817E8181E090E024E030E023
:1012500008CC81E090E09C838B834B815C816D8125
:101260007E8124E030E0FDCB84E090E09C838B83A2
:101270004B815C816D817E8181E090E021E030E0F6
:10128000F0CB84E090E09C838B834B815C816D810B
:101290007E8181E090E024E030E0E3CB83E090E0E9
:1012A0009C838B834B815C816D817E8181E090E0AA
:1012B00021E030E0D6CB81E090E09C838B834B81B2
:1012C0005C816D817E8121E030E0CBCB1C821B8272
:1012D0004B815C816D817E8181E090E021E030E096
:1012E000C0CB82E090E09C838B834B815C816D81DD
:1012F0007E8181E090E021E030E0B3CB8B818E7F76
:101300008B834B815C816D817E8181E090E023E065
:1013100030E0A7CB8B818E7F8B834B815C816D818D
:101320007E8181E090E022E030E09BCB86E090E09F
:101330009C838B834B815C816D817E8181E090E019
:1013400024E030E08ECB85E090E09C838B834B8162
:101350005C816D817E8181E090E024E030E081CB92
:10136000A114B10409F091CB61CDA901440F551F1F
:10137000420F531F440F551FFE01EF5FFC4FE40F58
:10138000F51F608171816230710509F4CEC1590188
:10139000BA0166507109AE014F5F5C4F640F751F53
:1013A000AC01440F551F480F591F440F551FCC2443
:1013B000C394A6E0DA2ECC0EDD1EC40ED51EAE01FF
:1013C0004F5F5F4F2C0196E0FB01DA0101900D9217
:1013D0009A95E1F72150310996E0FA01DE01A15E0C
:1013E000B34F01900D929A95E1F796E0FE01E15E10
:1013F000F34FDE01AF5CB34F01900D929A95E1F788
:1014000096E0FE01EF5CF34FDA0101900D929A95A0
:10141000E1F796E0FA01D60101900D929A95E1F775
:1014200086E0C80ED11CFB010190F081E02D6650D2
:101430007109329741F6C2018A0D9B1D821B930BE5
:10144000412C512C5DCBEE24E394F12C9E012F5FB7
:101450003F4F5901912C812CF0E0E0E031CE9B010F
:10146000AC01D401C35AD34FB883CD55DC40C25A26
:10147000D34F8882CE55DC40C15AD34FF883CF5525
:10148000DC40C05AD34FE883C056DC40C35AD34F28
:10149000688179818A819B81CD55DC400E94642CD2
:1014A000962E872EF82FE92F34CE4BED5FE069E4BE
:1014B00070E481E090E020E030E0D3CA44E558EFEA
:1014C0006DE270E481E090E020E030E0CACACB58E1
:1014D000D34F6883C557DC40CA58D34F7883C6576B
:1014E000DC40C958D34F8883C757DC40C858D34F16
:1014F0009883C857DC40CB58D34F688179818A8163
:101500009B81C557DC400E94642752CCCF58D34FF3
:101510006883C157DC40CE58D34F7883C257DC4034
:10152000CD58D34F8883C357DC40CC58D34F9883D2
:10153000C457DC40CF58D34F688179818A819B8121
:10154000C157DC400E940C2733CCC359D34F68836A
:10155000CD56DC40C259D34F7883CE56DC40C159BA
:10156000D34F8883CF56DC40C059D34F9883C057A0
:10157000DC40C359D34F688179818A819B81CD56E4
:10158000DC400E94632214CCC759D34F6883C956EC
:10159000DC40C659D34F7883CA56DC40C559D34F77
:1015A0008883CB56DC40C459D34F9883CC56DC405B
:1015B000C759D34F688179818A819B81C956DC40A4
:1015C0000E947321F5CBCB59D34F6883C556DC40BD
:1015D000CA59D34F7883C656DC40C959D34F888344
:1015E000C756DC40C859D34F9883C856DC40CB5906
:1015F000D34F688179818A819B81C556DC400E94E6
:101600005D21D6CBCF59D34F6883C156DC40CE592C
:10161000D34F7883C256DC40CD59D34F8883C3560D
:10162000DC40CC59D34F9883C456DC40CF59D34FBC
:10163000688179818A819B81C156DC400E94511862
:10164000B7CBC758D34F6883C957DC40C658D34F70
:101650007883CA57DC40C558D34F8883CB57DC40CA
:10166000C458D34F9883CC57DC40C758D34F6881B8
:1016700079818A819B81C957DC400E94402498CBA4
:101680009B01AC01D401C75AD34FB883C955DC4084
:10169000C65AD34F8882CA55DC40C55AD34FF88307
:1016A000CB55DC40C45AD34FE883CC55DC40C75AF5
:1016B000D34F688179818A819B81C955DC400E9422
:1016C000F02E962E872EF82FE92F23CD9B01AC010B
:1016D000D401C358D34FB883CD57DC40C258D34F41
:1016E0008882CE57DC40C158D34FF883CF57DC40B7
:1016F000C058D34FE883C058DC40C358D34F6881EB
:1017000079818A819B81CD57DC400E94622F962E81
:10171000872EF82FE92FFDCCE230F10508F42CCC10
:101720003297339708F028CCCCCB412C512CE8C908
:101730002F923F924F925F926F927F928F929F92E1
:10174000AF92BF92CF92DF92EF92FF920F931F93CF
:10175000CF93DF93CDB7DEB7CF5AD1090FB6F89448
:10176000DEBF0FBECDBFCE55DF4F2883C25AD0405B
:10177000CF55DF4F3883C15AD040142F052F20E0BA
:1017800030E040E85FE32B013C01C301B2010E945D
:10179000F02E2AE037ED43E25CE34B015C01C5012A
:1017A000B4010E94622F6B017C01C701B6010E9447
:1017B000D42FC855DF4F79836883C85AD040161696
:1017C00017060CF03DC42AE037ED43E25CE3CE554A
:1017D000DF4F8881C25AD040C356DF4F8883CD592E
:1017E000D040CF55DF4F9881C15AD040C256DF4F0D
:1017F0009883CE59D040C156DF4F1883CF59D0407F
:10180000C056DF4F0883C05AD040C356DF4F6881AF
:1018100079818A819B81CD59D0400E94642CC35626
:10182000DF4F6883CD59D040CF55DF4F7883C15A01
:10183000D040CE55DF4F8883C25AD040CD55DF4FC0
:101840009883C35AD040212C312CE12CF12C80E814
:10185000482E9FE3592E00E010E020E88FE37E2C15
:101860006F2CC155DF4F2883CF5AD040C255DF4F70
:101870008883CE5AD04009831A83C155DF4F98819F
:10188000CF5AD0409B83C255DF4F2881CE5AD040DB
:101890002C8329813A814B815C81C356DF4F88813B
:1018A000CD59D0408D83CF55DF4F9881C15AD0405C
:1018B0009E83CE55DF4F8881C25AD0408F83CD554D
:1018C000DF4F9881C35AD04098876D817E818F8188
:1018D00098850E94642C79866A864B865C86298569
:1018E0003A854B855C856D877E878F87988B6D8564
:1018F0007E858F8598890E94622FCC55DF4F688343
:10190000C45AD040CB55DF4F7883C55AD040CA5512
:10191000DF4F8883C65AD040C955DF4F9883C75AD6
:10192000D0402AE037ED43EA5BE3798A6A8A4B8A42
:101930005C8A69897A898B899C890E94F12E6B0166
:101940007C0120E030E040E05FE3CC55DF4F888150
:10195000C45AD0408D8BCB55DF4F9881C55AD040AB
:101960009E8BCA55DF4F8881C65AD0408F8BC95590
:10197000DF4F9881C75AD040988F6D897E898F89B3
:10198000988D0E94642C098F1A8FC155DF4F2881D2
:10199000CF5AD0402B8FC255DF4F2881CE5AD0402E
:1019A0002C8F298D3A8D4B8D5C8D6D8F7E8F8F8F17
:1019B00098A36D8D7E8D8F8D98A10E94F12EC356B8
:1019C000DF4F2881CD59D04029A3CF55DF4F288143
:1019D000C15AD0402AA3CE55DF4F2881C25AD040E9
:1019E0002BA3CD55DF4F2881C35AD0402CA329A16A
:1019F0003AA14BA15CA16DA37EA38FA398A76DA173
:101A00007EA18FA198A50E94642CC9A6DAA6EBA698
:101A1000FCA629A53AA54BA55CA56DA77EA78FA717
:101A200098AB6DA57EA58FA598A90E94622F4B014A
:101A30005C0120E030E040E05FE369AB9AAA8BAB49
:101A4000BCAA69A97AA98BA99CA90E94642C0DAB98
:101A50001EABC155DF4F2881CF5AD0402FABC255A6
:101A6000DF4F2881CE5AD04028AF2DA93EA94FA9DB
:101A700058AD69AF7AAF8BAF9CAF69AD7AAD8BAD26
:101A80009CAD0E94F12EC356DF4F2881CD59D04026
:101A90002DAFCF55DF4F2881C15AD0402EAFCE5544
:101AA000DF4F2881C25AD0402FAFCD55DF4F28815C
:101AB000C35AD04021962FAF219721962CAD3DAD32
:101AC0004EAD5FAD219722966FAF229723967FAFE1
:101AD000239724968FAF249725969FAF2597259619
:101AE0006CAD7DAD8EAD9FAD25970E94642C269682
:101AF000CFAE26972796DFAE27972896EFAE28978A
:101B00002996FFAE299729962CAD3DAD4EAD5FAD20
:101B100029972A966FAF2A972B967FAF2B972C96F3
:101B20008FAF2C972D969FAF2D972D966CAD7DADD9
:101B30008EAD9FAD2D970E94622F6B017C012AE034
:101B400037ED43E25CE32E967FAE2E972F966FAE75
:101B50002F9760964FAE609761965FAE61976196E2
:101B60006CAD7DAD8EAD9FAD61970E94F12E762E4E
:101B7000672E2C0162968FAE629763969FAE639735
:101B80006496AFAE64976596BFAE659765962CADCB
:101B90003DAD4EAD5FAD659766968FAE6697679625
:101BA0009FAE67976896AFAE68976996BFAE699724
:101BB00069966CAD7DAD8EAD9FAD69970E94F12E9B
:101BC000CC55DF4F2881C45AD0406A962FAF6A9710
:101BD000CB55DF4F2881C55AD0406B962FAF6B97FE
:101BE000CA55DF4F2881C65AD0406C962FAF6C97EC
:101BF000C955DF4F2881C75AD0406D962FAF6D97DA
:101C00006D962CAD3DAD4EAD5FAD6D976E966FAFE1
:101C10006E976F967FAF6F97A0968FAFA097A196A4
:101C20009FAFA197A1966CAD7DAD8EAD9FADA197F5
:101C30000E94F12E4B015C01A296CFAEA297A39613
:101C4000DFAEA397A496EFAEA497A596FFAEA59797
:101C5000A5962CAD3DAD4EAD5FADA597A696CFAE8A
:101C6000A697A796DFAEA797A896EFAEA897A996D6
:101C7000FFAEA997A9966CAD7DAD8EAD9FADA9972E
:101C80000E94F12EAA966FAFAA97AB967FAFAB9743
:101C9000AC968FAFAC97AD969FAFAD97AD962CAD90
:101CA0003DAD4EAD5FADAD97AE968FAEAE97AF96F4
:101CB0009FAEAF97E096AFAEE097E196BFAEE197EB
:101CC000E1966CAD7DAD8EAD9FADE1970E94F12E9A
:101CD0004B015C01E2960FAFE297E3961FAFE397EB
:101CE000C155DF4F8881CF5AD040E4968FAFE4973B
:101CF000C255DF4F9881CE5AD040E5969FAFE59709
:101D0000E5962CAD3DAD4EAD5FADE597E696CFAE19
:101D1000E697E796DFAEE797E896EFAEE897E996A5
:101D2000FFAEE997E9966CAD7DAD8EAD9FADE997BD
:101D30000E94F12EC356DF4F2881CD59D040EA963C
:101D40002FAFEA97CF55DF4F2881C15AD040EB968D
:101D50002FAFEB97CE55DF4F2881C25AD040EC967B
:101D60002FAFEC97CD55DF4F2881C35AD040ED9669
:101D70002FAFED97ED962CAD3DAD4EAD5FADED9730
:101D8000EE966FAFEE97EF967FAFEF97C158DF4FAC
:101D90008883CF57D040C058DF4F9883C058D04079
:101DA000C358DF4F688179818A819B81CD57D040AC
:101DB0000E94642CCF57DF4F7882C158D040CE5755
:101DC000DF4F6882C258D040CD57DF4F4882C3589A
:101DD000D040CC57DF4F5882C458D040CF57DF4F48
:101DE000288139814A815B81C158D040CB57DF4F70
:101DF0006883C558D040CA57DF4F7883C658D04053
:101E0000C957DF4F8883C758D040C857DF4F9883E2
:101E1000C858D040CB57DF4F688179818A819B8138
:101E2000C558D0400E94622FC757DF4F6883C958FA
:101E3000D040C657DF4F7883CA58D040C557DF4FD0
:101E40008883CB58D040C457DF4F9883CC58D040BC
:101E5000C757DF4F288139814A815B81C958D040FB
:101E6000C357DF4F8882CD58D040C257DF4F98828A
:101E7000CE58D040C157DF4FA882CF58D040C0576E
:101E8000DF4FB882C059D040C357DF4F6881798196
:101E90008A819B81CD58D0400E94F12E20E030E015
:101EA00040EC50E4CF56DF4F6883C159D040CE5646
:101EB000DF4F7883C259D040CD56DF4F8883C35956
:101EC000D040CC56DF4F9883C459D040CF56DF4F17
:101ED000688179818A819B81C159D0400E94622F9B
:101EE000CB56DF4F6883C559D040CA56DF4F788341
:101EF000C659D040C956DF4F8883C759D040C8560D
:101F0000DF4F9883C859D040CB56DF4F28813981A5
:101F10004A815B81C559D040C756DF4F0883C959F4
:101F2000D040C656DF4F1883CA59D040C155DF4F45
:101F30008881CF5AD040C556DF4F8883CB59D040D7
:101F4000C255DF4F9881CE5AD040C456DF4F988398
:101F5000CC59D040C756DF4F688179818A819B81F7
:101F6000C959D0400E94F12E8B01C155DF4F8883A3
:101F7000CF5AD040C255DF4F9883CE5AD0402FEF72
:101F8000221A320AC855DF4F88819981C85AD04039
:101F90008215930509F06FCCC155DF4F9881CF5A58
:101FA000D040CB55DF4F9883C55AD040C255DF4F44
:101FB0002881CE5AD040CC55DF4F2883C45AD04018
:101FC000C655DF4F0883CA5AD040C555DF4F188326
:101FD000CB5AD040CB55DF4F2881C55AD040C4558D
:101FE000DF4F2883CC5AD040CC55DF4F8881C45A6C
:101FF000D040C355DF4F8883CD5AD040C655DF4F00
:10200000688179818A819B81CA5AD040C155DF4F4E
:102010000FB6F894DEBF0FBECDBFDF91CF911F91F9
:102020000F91FF90EF90DF90CF90BF90AF909F9077
:102030008F907F906F905F904F903F902F9008957A
:1020400000E010E080E8CB55DF4F8883C55AD040D0
:102050009FE3CC55DF4F9883C45AD040B1CF2F9225
:102060003F924F925F926F927F928F929F92AF9228
:10207000BF92CF92DF92EF92FF920F931F93CF9375
:10208000DF93CDB7DEB7C75FD1090FB6F894DEBFD7
:102090000FBECDBF6B017C0120E030E0A901C7017C
:1020A000B6010E942E3087FD2DC72AE037ED43E2AE
:1020B0005CE3C701B6010E94622F2B013C01C30102
:1020C000B2010E94D42FC851DF4F6883C85ED04050
:1020D000C751DF4F7883C95ED04080E090E0A0E830
:1020E000BFE3C452DF4F88839983AA83BB83CC5D4F
:1020F000D040C851DF4FA881B981C85ED0401A16C0
:102100001B060CF0A1C62AE037ED43E25CE3C452A3
:10211000DF4F688179818A819B81CC5DD0400E94AC
:10212000642CC651DF4F6883CA5ED040C551DF4F73
:102130007883CB5ED040C451DF4F8883CC5ED040E3
:10214000C351DF4F9883CD5ED04020E030E040E0C7
:102150005FE34B015C01C501B4010E94642CC251D4
:10216000DF4F6883CE5ED040C151DF4F7883CF5EB2
:10217000D040C051DF4F8883C05FD040CF50DF4F89
:102180009883C15FD04020E030E040E05FE3C4527C
:10219000DF4F688179818A819B81CC5DD0400E942C
:1021A000642CCC51DF4F6883C45ED040CB51DF4FED
:1021B0007883C55ED040CA51DF4F8883C65ED04069
:1021C000C951DF4F9883C75ED040212C312CC052BB
:1021D000DF4F1882C05ED040CF51DF4F1882C15E02
:1021E000D040CE51DF4F1882C25ED040CD51DF4F7C
:1021F0001882C35ED04010E0C752DF4F1882C95D1D
:10220000D040CB52DF4F1882C55DD040412CB0E0AA
:10221000C950DF4FB883C75FD04020E0CA50DF4FBE
:102220002883C65FD040B2C520E030E040E05FE3E5
:10223000CB53DF4FD882C55CD040CA53DF4FE88212
:10224000C65CD040C953DF4FF882C75CD040C8534A
:10225000DF4F0883C85CD040CB53DF4F6881798162
:102260008A819B81C55CD0400E94980B698B7A8BD8
:102270008B8B9C8B29893A894B895C896AE077ED45
:1022800083E29CE30E94622F862E572E3C01C251AE
:10229000DF4FA881CE5ED040AD8BC151DF4FB881FA
:1022A000CF5ED040BE8BC051DF4F2881C05FD04091
:1022B0002F8BCF50DF4F8881C15FD040888F2D8911
:1022C0003E894F89588DC950DF4F6881C75FD04024
:1022D000CA50DF4F9881C65FD040198F6A8F9B8F9D
:1022E0004C8E698D7A8D8B8D9C8D0E94F12ED62E11
:1022F000E72EF82E092FCC51DF4F9881C45ED040D5
:102300009D8FCB51DF4FA881C55ED040AE8FCA51A3
:10231000DF4FB881C65ED040BF8FC951DF4F2881E3
:10232000C75ED04028A32D8D3E8D4F8D58A189A228
:102330005AA26BA27CA269A17AA18BA19CA10E9446
:10234000642CC950DF4F4881C75FD040CA50DF4F6F
:102350003881C65FD0401DA34EA33FA348A62DA140
:102360003EA14FA158A569A77AA78BA79CA769A5ED
:102370007AA58BA59CA50E94F12EDDA6EEA6FFA650
:1023800008AB2DA53EA54FA558A969AB7AAB8BAB81
:102390009CAB69A97AA98BA99CA90E94642C6DABFE
:1023A0007EAB8FAB98AF2DA93EA94FA958AD60E089
:1023B00070E080E89FE30E94F02E962EA72EB82EA4
:1023C000C92E20E030E0A90169AF7AAF8BAF9CAF96
:1023D00069AD7AAD8BAD9CAD0E945D2F811509F47E
:1023E0002EC520E030E040E05FE3C753DF4F988226
:1023F000C95CD040C653DF4FA882CA5CD040C553E9
:10240000DF4FB882CB5CD040C453DF4FC882CC5C76
:10241000D040C753DF4F688179818A819B81C95C35
:10242000D0400E94980B6DAF7EAF8FAF21969FAFCB
:10243000219721962CAD3DAD4EAD5FAD21976AE061
:1024400077ED83E29CE30E94622F962EA72EB82E92
:10245000C92E22966FAF229723967FAF239724969B
:102460008FAF249725969FAF259725962CAD3DAD30
:102470004EAD5FAD2597CC51DF4F8881C45ED04013
:1024800026968FAF2697CB51DF4F9881C55ED040FF
:1024900027969FAF2797CA51DF4FA881C65ED040CD
:1024A0002896AFAF2897C951DF4FB881C75ED0409B
:1024B0002996BFAF299729966CAD7DAD8EAD9FADA6
:1024C00029970E94642CC950DF4F4881C75FD040D4
:1024D000CA50DF4F3881C65FD0402A961FAF2A9777
:1024E0002B964FAF2B972C963FAF2C972D964FAE38
:1024F0002D972D962CAD3DAD4EAD5FAD2D972E9603
:102500006FAF2E972F967FAF2F9760968FAF609704
:1025100061969FAF619761966CAD7DAD8EAD9FADBD
:1025200061970E94F12E6296DFAE62976396EFAEDE
:1025300063976496FFAE649765960FAF659765964F
:102540002CAD3DAD4EAD5FAD659766966FAF6697AE
:1025500067967FAF679768968FAF689769969FAFCA
:10256000699769966CAD7DAD8EAD9FAD69970E9400
:10257000642C6A966FAF6A976B967FAF6B976C9679
:102580008FAF6C976D969FAF6D976D962CAD3DADEF
:102590004EAD5FAD6D9760E070E080E89FE30E9414
:1025A000F02ED62EE72EF82E092F20E030E0A901DC
:1025B0006E966FAF6E976F967FAF6F97A0968FAF47
:1025C000A097A1969FAFA197A1966CAD7DAD8EAD62
:1025D0009FADA1970E945D2F811509F42BC420E0C7
:1025E00030E040E05FE3C353DF4FD882CD5CD040A2
:1025F000C253DF4FE882CE5CD040C153DF4FF88238
:10260000CF5CD040C053DF4F0883C05DD040C35380
:10261000DF4F688179818A819B81CD5CD0400E94A7
:10262000980BA2966FAFA297A3967FAFA397A4969D
:102630008FAFA497A5969FAFA597A5962CAD3DAD5E
:102640004EAD5FADA5976AE077ED83E29CE30E9413
:10265000622FD62EE72EF82E092FC651DF4F288184
:10266000CA5ED040A6962FAFA697C551DF4F88818E
:10267000CB5ED040A7968FAFA797C451DF4F98810C
:10268000CC5ED040A8969FAFA897C351DF4FA881DA
:10269000CD5ED040A996AFAFA997A9962CAD3DAD20
:1026A0004EAD5FADA997AA961FAFAA97C950DF4F4D
:1026B000B881C75FD040AB96BFAFAB97CA50DF4F72
:1026C0008881C65FD040AC968FAFAC97AD964FAEC9
:1026D000AD97AD966CAD7DAD8EAD9FADAD970E94C3
:1026E000F12ECB52DF4F6883C55DD040C752DF4F1C
:1026F0007883C95DD040C652DF4F8883CA5DD04021
:10270000C552DF4F9883CB5DD040AE96DFAEAE971B
:10271000AF96EFAEAF97E096FFAEE097E1960FAFC2
:10272000E197E1962CAD3DAD4EAD5FADE197C45262
:10273000DF4F688179818A819B81CC5DD0400E9486
:10274000642CE2961FAFE297C950DF4FA881C75FA4
:10275000D040E396AFAFE397CA50DF4FB881C65F72
:10276000D040E496BFAFE497E5964FAEE597E59687
:102770002CAD3DAD4EAD5FADE597E6966FAFE697FC
:10278000E7967FAFE797E8968FAFE897E9969FAF18
:10279000E997E9966CAD7DAD8EAD9FADE9970E944E
:1027A000F12ECB52DF4F5881C55DD040C752DF4F6D
:1027B0004881C95DD040C652DF4F3881CA5DD040E4
:1027C000C552DF4F2881CB5DD040EA965FAFEA97D4
:1027D000EB964FAFEB97EC963FAFEC97ED962FAFA4
:1027E000ED97ED962CAD3DAD4EAD5FADED97EE9610
:1027F0006FAFEE97EF967FAFEF97C158DF4F8883AB
:10280000CF57D040C058DF4F9883C058D040C358EE
:10281000DF4F688179818A819B81CD57D0400E94AA
:10282000642CCF57DF4F6883C158D040CE57DF4F5D
:102830007883C258D040CD57DF4F8883C358D040EB
:10284000CC57DF4F9883C458D040CF57DF4F2881F3
:1028500039814A815B81C158D04060E070E080E8F6
:102860009FE30E94F02E462E172FC950DF4F88831A
:10287000C75FD040CA50DF4F9883C65FD04020E08A
:1028800030E0A901CB57DF4F6883C558D040CA5705
:10289000DF4F7883C658D040C957DF4F8883C75869
:1028A000D040C857DF4F9883C858D040CB57DF4F30
:1028B000688179818A819B81C558D0400E945D2FB3
:1028C000811509F4AAC220E030E040E05FE3CF5276
:1028D000DF4F4882C15DD040CE52DF4F1883C25DCA
:1028E000D040C950DF4F8881C75FD040CD52DF4F05
:1028F0008883C35DD040CA50DF4F9881C65FD04007
:10290000CC52DF4F9883C45DD040CF52DF4F6881F7
:1029100079818A819B81C15DD0400E94980B462EAF
:10292000172FC950DF4F8883C75FD040CA50DF4F91
:102930009883C65FD040C757DF4F9882C958D040B0
:10294000C657DF4FA882CA58D040C557DF4FB8825C
:10295000CB58D040C457DF4FC882CC58D040C7575F
:10296000DF4F288139814A815B81C958D040C357E4
:10297000DF4F9882CD58D040C257DF4FA882CE5843
:10298000D040C157DF4FB882CF58D040C057DF4F3B
:10299000C882C059D040C357DF4F688179818A818E
:1029A0009B81CD58D0400E94F12ECF56DF4F8882B8
:1029B000C159D040CE56DF4F5882C259D040CD5673
:1029C000DF4F6882C359D040CC56DF4F7882C4595C
:1029D000D040CF56DF4F288139814A815B81C15970
:1029E000D040CB56DF4F6883C559D040CA56DF4F21
:1029F0007883C659D040C956DF4F8883C759D04025
:102A0000C856DF4F9883C859D040CB56DF4F6881F6
:102A100079818A819B81C559D0400E94F12E962EE2
:102A2000A72EB82EC92EC756DF4FD882C959D0401D
:102A3000C656DF4FE882CA59D040C556DF4FF882EC
:102A4000CB59D040C456DF4F0883CC59D040C7562D
:102A5000DF4F288139814A815B81C959D040C356F3
:102A6000DF4FD882CD59D040C256DF4FE882CE59D1
:102A7000D040C156DF4FF882CF59D040C056DF4F0B
:102A80000883C05AD040C356DF4F688179818A815C
:102A90009B81CD59D0400E94F12ECF55DF4F6883E6
:102AA000C15AD040CE55DF4F7883C25AD040CD5561
:102AB000DF4F8883C35AD040CC55DF4F9883C45A28
:102AC000D040CF55DF4F288139814A815B81C15A7F
:102AD000D040CB55DF4F9882C55AD040CA55DF4F02
:102AE000A882C65AD040C955DF4FB882C75AD040D5
:102AF000C855DF4FC882C85AD040CB55DF4F6881D8
:102B000079818A819B81C55AD0400E94F12ED62EB0
:102B1000E72EF82E092FC755DF4F4882C95AD040FB
:102B2000C655DF4F1883CA5AD040C950DF4FA8811D
:102B3000C75FD040C555DF4FA883CB5AD040CA509D
:102B4000DF4FB881C65FD040C455DF4FB883CC5A41
:102B5000D040C755DF4F288139814A815B81C95AEE
:102B6000D0406AE077ED83E29CE30E94622FC35578
:102B7000DF4F6883CD5AD040C255DF4F7883CE5A9D
:102B8000D040C155DF4F8883CF5AD040C055DF4F6A
:102B90009883C05BD040C355DF4F288139814A817B
:102BA0005B81CD5AD040CF54DF4FD882C15BD0403B
:102BB000CE54DF4FE882C25BD040CD54DF4FF88265
:102BC000C35BD040CC54DF4F0883C45BD040CF54AC
:102BD000DF4F688179818A819B81C15BD0400E94EF
:102BE000F12EC452DF4F288139814A815B81CC5D4F
:102BF000D040CB54DF4F6883C55BD040CA54DF4F11
:102C00007883C65BD040C954DF4F8883C75BD04010
:102C1000C854DF4F9883C85BD040CB54DF4F6881E6
:102C200079818A819B81C55BD0400E94642C20E021
:102C300030E040EC50E4C754DF4F6883C95BD040BC
:102C4000C654DF4F7883CA5BD040C554DF4F8883BA
:102C5000CB5BD040C454DF4F9883CC5BD040C7548B
:102C6000DF4F688179818A819B81C95BD0400E9456
:102C7000622FC354DF4F6883CD5BD040C254DF4F17
:102C80007883CE5BD040C154DF4F8883CF5BD04088
:102C9000C054DF4F9883C05CD040C354DF4F2881BD
:102CA00039814A815B81CD5BD040C052DF4F888142
:102CB000C05ED040CF53DF4F8883C15CD040CF513E
:102CC000DF4F9881C15ED040CE53DF4F9883C25C06
:102CD000D040CE51DF4FA881C25ED040CD53DF4FF0
:102CE000A883C35CD040CD51DF4FB881C35ED040D4
:102CF000CC53DF4FB883C45CD040CF53DF4F6881E3
:102D000079818A819B81C15CD0400E94F12EC052A2
:102D1000DF4F6883C05ED040CF51DF4F7883C15E04
:102D2000D040CE51DF4F8883C25ED040CD51DF4FBF
:102D30009883C35ED0402FEF221A320AC851DF4F6A
:102D400088819981C85ED0402816390609F490C060
:102D5000CB52DF4F1881C55DD040C752DF4F88810D
:102D6000C95DD040C950DF4F8883C75FD040C6528D
:102D7000DF4F9881CA5DD040CA50DF4F9883C65F4D
:102D8000D040C552DF4F4880CB5DD040C950DF4FA7
:102D90002881C75FD040CA50DF4F9881C65FD040BE
:102DA00019832A839B834C8229813A814B815C81E0
:102DB000C950DF4F6881C75FD0401D836E839F83FA
:102DC00048866D817E818F8198850E94642C6987F9
:102DD0007A878B879C8729853A854B855C8560E05F
:102DE00070E080E89FE30E94F02ED62EE72EF82EAA
:102DF000092F20E030E0A9016D877E878F87988BAF
:102E00006D857E858F8598890E945D2F81110CCA02
:102E100060E070E080E090E029CA412C10E0C950E9
:102E2000DF4F1882C75FD040CA50DF4F1882C65F9D
:102E3000D04081CD60E070E080E090E0F2CB60E0D7
:102E400070E080E090E0EFCAC052DF4F1882C05EB1
:102E5000D040CF51DF4F1882C15ED040CE51DF4FFE
:102E60001882C25ED040CD51DF4F1882C35ED04081
:102E7000C052DF4F9881C05ED040CE50DF4F988364
:102E8000C25FD040CF51DF4FA881C15ED040CD504E
:102E9000DF4FA883C35FD040CE51DF4FB881C25E01
:102EA000D040CC50DF4FB883C45FD040CD51DF4F0E
:102EB0002881C35ED040CB50DF4F2883C55FD04010
:102EC000CE50DF4F688179818A819B81C25FD0407B
:102ED000C950DF4F0FB6F894DEBF0FBECDBFDF91F4
:102EE000CF911F910F91FF90EF90DF90CF90BF9007
:102EF000AF909F908F907F906F905F904F903F909A
:102F00002F900895C701B60190582AE037ED43E2AB
:102F10005CE30E94622FCB52DF4F6883C55DD040D7
:102F2000CA52DF4F7883C65DD040C952DF4F8883D5
:102F3000C75DD040C852DF4F9883C85DD040CB52A8
:102F4000DF4F688179818A819B81C55DD0400E9475
:102F5000D42FC851DF4F79836883C85ED04080E0AA
:102F600090E0A0E8BFEBC452DF4F88839983AA8327
:102F7000BB83CC5DD040BDC84F925F926F927F9271
:102F80008F929F92AF92BF92CF92DF92EF92FF9279
:102F90000F931F93CF93DF93CDB7DEB766970FB62E
:102FA000F894DEBF0FBECDBF8B018E8B9D8B2BEDBA
:102FB0003FE049EC50E469831A838B839C836981E9
:102FC0007A818B819C810E94622F2B013C01C3017D
:102FD000B2010E94D42F072E000C880B990B0E947F
:102FE000292C2BED3FE049EC50E44B015C01C5017D
:102FF000B4010E94642C6B017C01A70196010D8332
:103000001E838E898F838D8988876D817E818F81D4
:1030100098850E94F02E8B018D83998320E030E00B
:10302000A90169871A878B879C8769857A858B8533
:103030009C850E945D2F87FF13C02BED3FE049EC7C
:1030400050E4098B1A8B8D818B8B89818C8B6989DC
:103050007A898B899C890E94F12E8B018D839983BB
:103060000D871E878D818F878981888B6D857E85F1
:103070008F85988966960FB6F894DEBF0FBECDBFD8
:10308000DF91CF911F910F91FF90EF90DF90CF9044
:10309000BF90AF909F908F907F906F905F904F9078
:1030A00008952F923F924F925F926F927F928F92EC
:1030B0009F92AF92BF92CF92DF92EF92FF920F93C7
:1030C0001F93CF93DF93CDB7DEB7CF51D1400FB66B
:1030D000F894DEBF0FBECDBFCB50DF4F6883C55F16
:1030E000D040CA50DF4F7883C65FD040182F092FD9
:1030F0002BED3FE049EC50E469837A838B839C831A
:1031000069817A818B819C810E94622F2B013C0115
:10311000C301B2010E94D42F072E000C880B990B1B
:103120000E94292C2BED3FE049EC50E44B015C015F
:10313000C501B4010E94642C6B017C01A7019601BA
:10314000CB50DF4F8881C55FD0408D83CA50DF4FA1
:103150008881C65FD0408E831F8308876D817E8102
:103160008F8198850E94F02ECA5FDE4F6883C6501B
:10317000D140C95FDE4F7883C750D140C85FDE4F72
:103180008883C850D140C75FDE4F9883C950D14073
:1031900020E030E0A90169877A87C85FDE4F888127
:1031A000C850D1408B879C8769857A858B859C85A3
:1031B0000E945D2F87FF4AC02BED3FE049EC50E4B1
:1031C000CA5FDE4F8881C650D140CF50DF4F888321
:1031D000C15FD040C95FDE4F8881C750D140CE501B
:1031E000DF4F8883C25FD040C85FDE4F8881C85000
:1031F000D140CD50DF4F8883C35FD040C75FDE4FE3
:103200008881C950D140CC50DF4F8883C45FD04003
:10321000CF50DF4F688179818A819B81C15FD04027
:103220000E94F12ECA5FDE4F6883C650D140C95F4D
:10323000DE4F7883C750D140C85FDE4F8883C850C7
:10324000D140C75FDE4F9883C950D14020E030E0C5
:10325000A901CA5FDE4F8881C650D140C351DF4FFC
:103260008883CD5ED040C95FDE4F8881C750D14092
:10327000C251DF4F8883CE5ED040C85FDE4F888169
:10328000C850D140C151DF4F8883CF5ED040C75F67
:10329000DE4F8881C950D140C051DF4F8883C05F65
:1032A000D040C351DF4F688179818A819B81CD5E97
:1032B000D0400E942E3018160CF0FAC7A12CB12C69
:1032C00020E829838FE38D8319861A861B861C8646
:1032D000D12CC12CC450DF4FD882CC5FD040C3501A
:1032E000DF4FC882CD5FD0407A2C6B2CC12CD12C03
:1032F00076014CC7C450DF4F9880CC5FD040C3509C
:10330000DF4F8880CD5FD040C65FDE4FB882CA50A5
:10331000D140C55FDE4FA882CB50D140C45FDE4FA5
:103320009882CC50D140C35FDE4F8882CD50D140CF
:10333000C65FDE4F288139814A815B81CA50D14006
:10334000CA5FDE4F8881C650D140C25FDE4F88839E
:10335000CE50D140C95FDE4F8881C750D140C15F98
:10336000DE4F8883CF50D140C85FDE4F8881C85080
:10337000D140C05FDE4F8883C051D140C75FDE4F70
:103380008881C950D140CF5EDE4F8883C151D14082
:10339000C25FDE4F688179818A819B81CE50D140A6
:1033A0000E94F02E8B01C15EDE4F8883CF51D14049
:1033B000C25EDE4F9883CE51D140CE5EDE4F688331
:1033C000C251D140CD5EDE4F1883C351D140CC5E97
:1033D000DE4F8883C451D140CB5EDE4F9883C55108
:1033E000D140CE5EDE4F288139814A815B81C25156
:1033F000D140CA5EDE4FB882C651D140C95EDE4FB1
:10340000A882C751D140C85EDE4F9882C851D140D2
:10341000C75EDE4F8882C951D140CA5EDE4F6881E7
:1034200079818A819B81C651D1400E94F12EB62EAE
:10343000A72EC450DF4F8883CC5FD040C350DF4FEE
:103440009883CD5FD040798E6A8E89818B8F2D8154
:103450002C8F298D3A8D4B8D5C8D0D8F1E8FC15E0B
:10346000DE4F8881CF51D1408F8FC25EDE4F888181
:10347000CE51D14088A36D8D7E8D8F8D98A10E94F5
:10348000642CC250DF4F6883CE5FD040C150DF4F05
:103490007883CF5FD040C050DF4F8883C050D14089
:1034A000CF5FDE4F9883C150D140C701B60190581D
:1034B00009A31AA3C15EDE4F2881CF51D1402BA3AF
:1034C000C25EDE4F2881CE51D1402CA329A13AA162
:1034D0004BA15CA10E94642CCE5FDE4F6883C2507A
:1034E000D140CD5FDE4F7883C350D140CC5FDE4FFB
:1034F0008883C450D140CB5FDE4F9883C550D14004
:1035000020E030E040E05FE36DA37EA3CC5FDE4FC0
:103510008881C450D1408FA398A76DA17EA18FA1AF
:1035200098A50E94642C79A66AA629812BA72D81D3
:103530002CA729A53AA54BA55CA56DA77EA78FA7AB
:1035400098AB6DA57EA58FA598A90E94F12E09AB19
:103550001AABC15EDE4F2881CF51D1402BABC25E8A
:10356000DE4F2881CE51D1402CAB29A93AA94BA9D5
:103570005CA96DAB7EAB8FAB98AF6DA97EA98FA90F
:1035800098AD0E94642C1B012C0120E030E040E04B
:103590005FE3C250DF4F8881CE5FD04089AFC1501A
:1035A000DF4F8881CF5FD0408AAFC050DF4F888126
:1035B000C050D1408BAFCF5FDE4F8881C150D1402A
:1035C0008CAF69AD7AAD8BAD9CAD0E94642CA70128
:1035D00096016DAF7EAF8FAF21969FAF2197219659
:1035E0006CAD7DAD8EAD9FAD21970E94F12E9058B0
:1035F00022960FAF229723961FAF2397C15EDE4F0F
:103600002881CF51D14024962FAF2497C25EDE4F40
:103610002881CE51D14025962FAF259725962CADE8
:103620003DAD4EAD5FAD25970E94642C6987C351B7
:10363000DF4F7883CD5ED040CF50DF4F8883C15FAE
:10364000D040CB50DF4F9883C55FD04020E030E0C2
:1036500040E05FE326966FAF269727967FAF2797C8
:10366000CF50DF4F8881C15FD04028968FAF289719
:1036700029969FAF299729966CAD7DAD8EAD9FADF4
:1036800029970E94642C2A967FAE2A972B966FAEBC
:103690002B9729812C962FAF2C972D812D962FAF0C
:1036A0002D972D962CAD3DAD4EAD5FAD2D972E9641
:1036B0006FAF2E972F967FAF2F9760968FAF609743
:1036C00061969FAF619761966CAD7DAD8EAD9FADFC
:1036D00061970E94F12E62960FAF629763961FAFBB
:1036E0006397C15EDE4F2881CF51D14064962FAFE2
:1036F0006497C25EDE4F2881CE51D14065962FAFD0
:10370000659765962CAD3DAD4EAD5FAD6597669600
:103710006FAF669767967FAF679768968FAF68972A
:1037200069969FAF699769966CAD7DAD8EAD9FAD83
:1037300069970E94642CCA50DF4F6883C65FD040EF
:10374000C950DF4F7883C75FD0404C0120E030E0A4
:1037500040E05FE36A962FAE6A976B963FAE6B9739
:103760006C964FAE6C976D965FAE6D976D966CAD27
:103770007DAD8EAD9FAD6D970E94642CA701960123
:103780006E966FAF6E976F967FAF6F97A0968FAF65
:10379000A097A1969FAFA197A1966CAD7DAD8EAD80
:1037A0009FADA1970E94F12E9058A2960FAFA297BD
:1037B000A3961FAFA397C15EDE4F2881CF51D140A2
:1037C000A4962FAFA497C25EDE4F2881CE51D14080
:1037D000A5962FAFA597A5962CAD3DAD4EAD5FAD8F
:1037E000A5970E94642CC850DF4F6883C85FD04003
:1037F000C750DF4F7883C95FD040C650DF4F888302
:10380000CA5FD040C550DF4F9883CB5FD040A7013F
:103810009601CA50DF4F8881C65FD040A6968FAF11
:10382000A697C950DF4F8881C75FD040A7968FAF5A
:10383000A797A8968FAEA897A9969FAEA997A99685
:103840006CAD7DAD8EAD9FADA9970E94F12E9058C5
:10385000AA960FAFAA97AB961FAFAB97C15EDE4F8C
:103860002881CF51D140AC962FAFAC97C25EDE4FCE
:103870002881CE51D140AD962FAFAD97AD962CADEE
:103880003DAD4EAD5FADAD970E94642CC65EDE4F80
:103890006883CA51D140C55EDE4F7883CB51D14099
:1038A000C45EDE4F8883CC51D140C35EDE4F988327
:1038B000CD51D140AE962FAEAE97AF963FAEAF97FB
:1038C000E0964FAEE097E1965FAEE197E1962CADC2
:1038D0003DAD4EAD5FADE197E2962FAEE297E39638
:1038E0003FAEE397E4964FAEE497E5965FAEE5977B
:1038F000E5966CAD7DAD8EAD9FADE5970E94F12E46
:10390000C250DF4F2881CE5FD040E6962FAFE697BA
:10391000C150DF4F2881CF5FD040E7962FAFE797A8
:10392000C050DF4F2881C050D140E8962FAFE897B4
:10393000CF5FDE4F2881C150D140E9962FAFE99784
:10394000E9962CAD3DAD4EAD5FADE997EA966FAF10
:10395000EA97EB967FAFEB97EC968FAFEC97ED96EF
:103960009FAFED97ED966CAD7DAD8EAD9FADED97B4
:103970000E94F12E1B012C01CA50DF4F8881C65FC7
:10398000D040EE968FAFEE97C950DF4F2881C75FCA
:10399000D040EF962FAFEF97C158DF4F8882CF57B7
:1039A000D040C058DF4F9882C058D040C358DF4F36
:1039B000288139814A815B81CD57D040CF57DF4F75
:1039C0008883C158D040C950DF4F8881C75FD0403D
:1039D000CE57DF4F8883C258D040CD57DF4F888203
:1039E000C358D040CC57DF4F9882C458D040CF57EF
:1039F000DF4F688179818A819B81C158D0400E94C4
:103A0000F12ECB57DF4F6883C558D040CA57DF4FE0
:103A10007883C658D040C957DF4F8883C758D040F5
:103A2000C857DF4F9883C858D040CB57DF4F288105
:103A300039814A815B81C558D040C757DF4F288202
:103A4000C958D040C657DF4F3882CA58D040C557F2
:103A5000DF4F4882CB58D040C457DF4F5882CC58F4
:103A6000D040C757DF4F688179818A819B81C958CF
:103A7000D0400E94F12E2B014C01C357DF4F7882BA
:103A8000CD58D040C257DF4F6882CE58D0402981F0
:103A9000C157DF4F2883CF58D0408D81C057DF4FAB
:103AA0008883C059D040C357DF4F288139814A816C
:103AB0005B81CD58D040C850DF4F8881C85FD0406F
:103AC000CF56DF4F8883C159D040C750DF4F888120
:103AD000C95FD040CE56DF4F8883C259D040C65010
:103AE000DF4F8881CA5FD040CD56DF4F8883C359EE
:103AF000D040C550DF4F8881CB5FD040CC56DF4FE0
:103B00008883C459D040CF56DF4F688179818A813C
:103B10009B81C159D0400E94F12ECB56DF4F0883C4
:103B2000C559D040CA56DF4F1883C659D040C15E30
:103B3000DE4F2881CF51D140C956DF4F2883C75966
:103B4000D040C25EDE4F2881CE51D140C856DF4FF3
:103B50002883C859D040CB56DF4F288139814A810C
:103B60005B81C559D040C756DF4F6883C959D040E3
:103B7000C656DF4F7883CA59D040C556DF4F888379
:103B8000CB59D040C456DF4F9883CC59D040C7564C
:103B9000DF4F688179818A819B81C959D0400E9419
:103BA000642CC356DF4F6883CD59D040C256DF4FD7
:103BB0007883CE59D040C156DF4F8883CF59D0404B
:103BC000C056DF4F9883C05AD040C356DF4F28817C
:103BD00039814A815B81CD59D040CF55DF4F488232
:103BE000C15AD040CE55DF4F5882C25AD040CD5531
:103BF000DF4F8882C35AD040CC55DF4F9882C45AD9
:103C0000D040CF55DF4F688179818A819B81C15A2D
:103C1000D0400E94F12E20E030E040EC50E4CB5543
:103C2000DF4F6883C55AD040CA55DF4F7883C65AE4
:103C3000D040C955DF4F8883C75AD040C855DF4FA1
:103C40009883C85AD040CB55DF4F688179818A81EB
:103C50009B81C55AD0400E94622FC755DF4F6883B1
:103C6000C95AD040C655DF4F7883CA5AD040C5558F
:103C7000DF4F8883CB5AD040C455DF4F9883CC5A4E
:103C8000D040C755DF4F288139814A815B81C95AAD
:103C9000D040C701B6010E94F12EC355DF4F6883A3
:103CA000CD5AD040C255DF4F7883CE5AD040C1554F
:103CB000DF4F8883CF5AD040C055DF4F9883C05B19
:103CC000D040C355DF4FC880D980EA80FB80CD5AF1
:103CD000D0408985CF54DF4F8883C15BD040C3512A
:103CE000DF4F2881CD5ED040CE54DF4F2883C25BAA
:103CF000D040CF50DF4F8881C15FD040CD54DF4FDF
:103D00008883C35BD040CB50DF4F2881C55FD04054
:103D1000CC54DF4F2883C45BD040CF54DF4F288181
:103D200039814A815B81C15BD0408985CB54DF4FAB
:103D30008883C55BD040C351DF4F8881CD5ED040C2
:103D4000CA54DF4F8883C65BD040CF50DF4F888195
:103D5000C15FD040C954DF4F8883C75BD040CB5090
:103D6000DF4F8881C55FD040C854DF4F8883C85B70
:103D7000D040CB54DF4F688179818A819B81C55BBC
:103D8000D0400E94F12ECE5FDE4F2881C250D1403C
:103D9000C754DF4F2883C95BD040CD5FDE4F2881F9
:103DA000C350D140C654DF4F2883CA5BD040CC5F9C
:103DB000DE4F2881C450D140C554DF4F2883CB5BF0
:103DC000D040CB5FDE4F2881C550D140C454DF4F77
:103DD0002883CC5BD040C754DF4F288139814A818A
:103DE0005B81C95BD040C354DF4F6883CD5BD0405B
:103DF000C254DF4F7883CE5BD040C154DF4F8883FD
:103E0000CF5BD040C054DF4F9883C05CD040C354D8
:103E1000DF4F688179818A819B81CD5BD0400E9490
:103E2000F12E8B01C351DF4F8883CD5ED04099873F
:103E3000C850DF4F8881C85FD040CF53DF4F8883A1
:103E4000C15CD040C750DF4F2881C95FD040CE53FE
:103E5000DF4F2883C25CD040C650DF4F8881CA5FE5
:103E6000D040CD53DF4F8883C35CD040C550DF4F77
:103E70002881CB5FD040CC53DF4F2883C45CD04037
:103E8000CF53DF4F288139814A815B81C15CD040AB
:103E9000C850DF4F8881C85FD040CB53DF4F888345
:103EA000C55CD040C750DF4F8881C95FD040CA533E
:103EB000DF4F8883C65CD040C650DF4F8881CA5F21
:103EC000D040C953DF4F8883C75CD040C550DF4F17
:103ED0008881CB5FD040C853DF4F8883C85CD04017
:103EE000CB53DF4F688179818A819B81C55CD0404B
:103EF0000E94F12EC753DF4F6883C95CD040C65380
:103F0000DF4F7883CA5CD040C553DF4F8883CB5CDA
:103F1000D040C453DF4F9883CC5CD040C753DF4FB1
:103F2000288139814A815B81C95CD040C353DF4F0E
:103F30000883CD5CD040C253DF4F1883CE5CD040A5
:103F4000C351DF4F8881CD5ED040C153DF4F88839E
:103F5000CF5CD0408985C053DF4F8883C05DD0409F
:103F6000C353DF4F688179818A819B81CD5CD040CA
:103F70000E94F12EC65EDE4F2881CA51D140CF5239
:103F8000DF4F2883C15DD040C55EDE4F2881CB5115
:103F9000D140CE52DF4F2883C25DD040C45EDE4F99
:103FA0002881CC51D140CD52DF4F2883C35DD04012
:103FB000C35EDE4F2881CD51D140CC52DF4F2883E4
:103FC000C45DD040CF52DF4F288139814A815B8167
:103FD000C15DD040CB52DF4F6883C55DD040CA522F
:103FE000DF4F7883C65DD040C952DF4F8883C75DFD
:103FF000D040C852DF4F9883C85DD040CB52DF4FCE
:10400000688179818A819B81C55DD0400E94F12EB3
:1040100020E030E040EC50E4C752DF4F6883C95DD8
:10402000D040C652DF4F7883CA5DD040C552DF4FC3
:104030008883CB5DD040C452DF4F9883CC5DD040A5
:10404000C752DF4F688179818A819B81C95DD040E9
:104050000E94622FC352DF4F6883CD5DD040C252B1
:10406000DF4F7883CE5DD040C152DF4F8883CF5D74
:10407000D040C052DF4F9883C05ED040C352DF4F64
:10408000288139814A815B81CD5DD040CF51DF4F9E
:104090007882C15ED040CE51DF4F6882C25ED04090
:1040A0008981CD51DF4F8883C35ED0408D81CC5153
:1040B000DF4F8883C45ED040CF51DF4F6881798164
:1040C0008A819B81C15ED0400E94F12E762E672EA0
:1040D00089839D839501C450DF4F9881CC5FD04088
:1040E000C350DF4F8881CD5FD040CB51DF4F388345
:1040F000C55ED040CA51DF4FA882C65ED040C951CC
:10410000DF4F9883C75ED040C851DF4F8883C85EB9
:10411000D040CB51DF4F288139814A815B81C55E18
:10412000D040CA5FDE4F8881C650D140C751DF4FB3
:104130008883C95ED040C95FDE4F8881C750D140B7
:10414000C651DF4F8883CA5ED040C85FDE4F88818A
:10415000C850D140C551DF4F8883CB5ED040C75F88
:10416000DE4F8881C950D140C451DF4F8883CC5E77
:10417000D040C751DF4F688179818A819B81C95EB8
:10418000D0400E942E3018160CF070C02AE037ED97
:1041900043E25CE3B501C450DF4F9881CC5FD0406F
:1041A000C350DF4F8881CD5FD0407D87AE869F872B
:1041B000888B6D857E858F8598890E94F12E8B0175
:1041C000C351DF4F8883CD5ED0409987CA5FDE4FF1
:1041D0002881C650D140298BC95FDE4F8881C750E6
:1041E000D1408A8BC85FDE4F2881C850D1402B8BCD
:1041F000C75FDE4F8881C950D1408C8B29893A89AD
:104200004B895C89C351DF4F9881CD5ED040898551
:104210000D8B1E8B9F8B888F6D897E898F89988DE2
:104220000E942E3018160CF465C8B02EA12EC35172
:10423000DF4F8881CD5ED040C450DF4F8883CC5F94
:10424000D0402985C350DF4F2883CD5FD0400AE09E
:1042500017ED83E2C15EDE4F8883CF51D1402CE35E
:10426000C25EDE4F2883CE51D140EDC8C986DA86C2
:10427000EB86FC8669857A858B859C85C15EDE4FE1
:104280000FB6F894DEBF0FBECDBFDF91CF911F9167
:104290000F91FF90EF90DF90CF90BF90AF909F90E5
:1042A0008F907F906F905F904F903F902F900895E8
:1042B00019861A861B861C86DDCFCF92DF92EF927D
:1042C000FF929B01AC016BED7FE089EC9FE30E94C4
:1042D000F02E6B017C01C701B601FF90EF90DF90DB
:1042E000CF900C9451182F923F924F925F926F9201
:1042F0007F928F929F92AF92BF92CF92DF92EF9276
:10430000FF920F931F93CF93DF93CDB7DEB72C9718
:104310000FB6F894DEBF0FBECDBF6C877B87182F1A
:10432000092F9B01482F592FCA01B9010E9451182A
:10433000362E272E89879A87CC84DB84E12EF02EB7
:10434000A70196016BED7FE089EC9FE30E94F02EC0
:1043500069837A838B839C8369817A818B819C8139
:104360000E9451182B013C01A3019201832C922C35
:10437000A984BA84C501B4010E94622F6D837E8333
:104380008F8398876D817E818F8198852C960FB65B
:10439000F894DEBF0FBECDBFDF91CF911F910F917B
:1043A000FF90EF90DF90CF90BF90AF909F908F9055
:1043B0007F906F905F904F903F902F9008952F9235
:1043C0003F924F925F926F927F928F929F92AF92A5
:1043D000BF92CF92DF92EF92FF920F931F93CF93F2
:1043E000DF93CDB7DEB728970FB6F894DEBF0FBEC8
:1043F000CDBF68877F83182F092F322E232E4D8340
:104400005E8320E030E0A9016B01E82EF92EC701A0
:10441000B6010E945D2F811509F451C020E030E003
:10442000A901832C922CAD80BE80C501B4010E94ED
:104430005D2F811539F1432C522C3501A3019201D6
:10444000C982DA821B830C8369817A818B819C818A
:1044500028960FB6F894DEBF0FBECDBFDF91CF9187
:104460001F910F91FF90EF90DF90CF90BF90AF9092
:104470009F908F907F906F905F904F903F902F9084
:104480000C94980B60E070E080E89FE328960FB6EC
:10449000F894DEBF0FBECDBFDF91CF911F910F917A
:1044A000FF90EF90DF90CF90BF90AF909F908F9054
:1044B0007F906F905F904F903F902F90089560E0B5
:1044C00070E0CB01E3CF2F923F924F925F926F92B9
:1044D0007F928F929F92AF92BF92CF92DF92EF9294
:1044E000FF920F931F93CF93DF93CDB7DEB7C255E3
:1044F000D1090FB6F894DEBF0FBECDBF8B01639616
:104500008FAF639762969FAF629720E030E0A9017A
:104510006B017C01C701B6010E945D2F18160CF0DB
:1045200072C120E030E040E85FE348015701C50177
:10453000B4010E945D2F87FD6DC120E030E040E8AE
:104540005FE30DAF1EAF63968FAD63978FAF62963B
:104550009FAD629721969FAF219721966CAD7DAD5F
:104560008EAD9FAD21970E94F02E2AE037ED43E2F9
:104570005CE322966FAF229723967FAF2397249612
:104580008FAF249725969FAF259725966CAD7DAD6F
:104590008EAD9FAD25970E94622F26966FAF26970E
:1045A00027967FAF279728968FAF289729969FAF9A
:1045B000299729966CAD7DAD8EAD9FAD29970E9450
:1045C000D42F23967FAF6EAF2397161617060CF0E5
:1045D0001AC1A12CB12C21961CAE1DAE1EAE1FAE71
:1045E000219700E010E020E82A962FAF2A973FE3BA
:1045F00026963FAF269709831A832A964FAD2A97AE
:104600004B8326965FAD26975C8329813A814B8147
:104610005C816AE077ED83E29CE30E94622F962E34
:10462000872E382E292E2AE037ED43EA5BE30D83EF
:104630001E832A968FAD2A978F8326969FAD269745
:1046400098876D817E818F8198850E94F12E698780
:104650007A878B879C8729853A854B855C856AE0BC
:1046600077ED83E29CE30E94622F6B017C012AE0DC
:1046700037ED43E25CE30D871E872A968FAD2A97BC
:104680008F8726969FAD2697988B6D857E858F8523
:1046900098890E94F12E8B012A968FAF2A97269631
:1046A0009FAF2697C98ADA8AEB8AFC8A29893A89D8
:1046B0004B895C89CD8ADE8AEF8AF88E6D897E8986
:1046C0008F89988D0E94F12E6B017C01998E8A8EC4
:1046D0003B8E2C8E298D3A8D4B8D5C8D6D8FDE8EB1
:1046E0008F8FF8A26D8D7E8D8F8D98A10E94F12EF7
:1046F000C9A2DAA2EBA2FCA229A13AA14BA15CA11A
:104700006DA37EA38FA398A76DA17EA18FA198A56D
:104710000E94F12E6B017C0109A71AA72A962FADE2
:104720002A972BA726963FAD26973CA729A53AA501
:104730004BA55CA56AE077ED83E29CE30E94622FC3
:104740006DA77EA78FA798AB2DA53EA54FA558A90D
:10475000C9AADAAAEBAAFCAA69A97AA98BA99CA979
:104760000E94F12E20E030E040EC50E46DAB7EABD7
:104770008FAB98AF6DA97EA98FA998AD0E94622FCB
:1047800069AF7AAF8BAF9CAF29AD3AAD4BAD5CADA5
:1047900021966CAD7DAD8EAD9FAD21970E94F12E1F
:1047A0002B013C0121964CAE5DAE6EAE7FAE2197E3
:1047B0004FEFA41AB40A23968EAD9FAD23978A15A6
:1047C0009B0509F018CF21966CAD7DAD8EAD9FADE8
:1047D0002197CE5ADF4F0FB6F894DEBF0FBECDBF84
:1047E000DF91CF911F910F91FF90EF90DF90CF90CD
:1047F000BF90AF909F908F907F906F905F904F9001
:104800003F902F90089521961CAE1DAE1EAE1FAE98
:104810002197D9CF2A960FAF2A972B961FAF2B97A8
:104820002C96EFAE2C972D96BFAE2D972D962CADD6
:104830003DAD4EAD5FAD2D9760E070E080E89FE349
:104840000E94622F2E966FAF2E972F967FAF2F97D5
:1048500060968FAF609761969FAF619761966CADE0
:104860007DAD8EAD9FAD61970E9463229B01AC012F
:10487000505821962CAF3DAF4EAF5FAF2197A3CFDD
:104880002F923F924F925F926F927F928F929F9260
:10489000AF92BF92CF92DF92EF92FF920F931F934E
:1048A000CF93DF93CDB7DEB7C058D1090FB6F894D8
:1048B000DEBF0FBECDBF6B017C0120E030E0A9015F
:1048C000C701B6010E942E3087FD7CC22AE037ED79
:1048D00043E25CE3C701B6010E94622F4B015C0119
:1048E000C501B4010E94D42FE2966FAFE297E39620
:1048F0007FAFE39780E090E0A0E8BFE3E7968CAF5E
:104900009DAFAEAFBFAFE797E396AEADBFADE39758
:104910001A161B060CF07BC22AE037ED43E25CE37B
:10492000E7966CAD7DAD8EAD9FADE7970E94642C90
:10493000E8966FAFE897E9967FAFE997EA968FAF71
:10494000EA97EB969FAFEB97A12CB12C212C312C41
:10495000412C512C00E010E0C058DF4F1882C058A5
:10496000D040C158DF4F1882CF57D0402AE037EDF2
:1049700043EA5BE309831A83C058DF4FB881C0580C
:10498000D040BB83C158DF4F8881CF57D0408C8344
:1049900069817A818B819C810E94F12E3B014C01BF
:1049A0002AE037ED43E25CE30D831E83C058DF4FFE
:1049B0009881C058D0409F83C158DF4FA881CF57FE
:1049C000D040A8876D817E818F8198850E94F12ECD
:1049D0006B017C0169867A868B869C8629853A855F
:1049E0004B855C856D867E868F86988A6D857E85F3
:1049F0008F8598890E94642C20E030E040E85FE3D6
:104A0000698B7A8B8B8B9C8B69897A898B899C8942
:104A10000E94F12E6D8B7E8B8F8B988F2D893E8916
:104A20004F89588D6AE077ED83E29CE30E94622F04
:104A3000698F7A8F8B8F9C8F298D3A8D4B8D5C8DF2
:104A40006D8F7E8F8F8F98A36D8D7E8D8F8D98A1AA
:104A50000E94F12E3B014C0109A31AA3C058DF4F5D
:104A6000B881C058D040BBA3C158DF4F8881CF5711
:104A7000D0408CA329A13AA14BA15CA10DA31EA3F8
:104A8000BFA388A76DA17EA18FA198A50E94642CC9
:104A900020E030E040E85FE369A77AA78BA79CA7F6
:104AA00069A57AA58BA59CA50E94F12E6DA77EA76E
:104AB0008FA798AB2DA53EA54FA558A96AE077ED25
:104AC00083E29CE30E94622F69AA7AAA8BAA9CAA1D
:104AD00029A93AA94BA95CA96DAB7EAB8FAB98AF66
:104AE0006DA97EA98FA998AD0E94F12E69AE7AAE0C
:104AF0008BAE9CAE29AD3AAD4BAD5CAD6DAF7EAF2C
:104B00008FAF21969FAF219721966CAD7DAD8EAD75
:104B10009FAD21970E94F12E3B014C012296CFAE12
:104B200022972396DFAE23972496EFAE24972596FF
:104B3000FFAE259725962CAD3DAD4EAD5FAD2597CB
:104B40002696CFAE26972796DFAE27972896EFAE0C
:104B500028972996FFAE299729966CAD7DAD8EAD2D
:104B60009FAD29970E94642C20E030E040E85FE38D
:104B70002A966FAF2A972B967FAF2B972C968FAFE5
:104B80002C972D969FAF2D972D966CAD7DAD8EAD4C
:104B90009FAD2D970E94F12E2E966FAF2E972F96D8
:104BA0007FAF2F9760968FAF609761969FAF6197A9
:104BB00061962CAD3DAD4EAD5FAD61976AE077ED8E
:104BC00083E29CE30E94622F62966FAF62976396C6
:104BD0007FAF639764968FAF649765969FAF659735
:104BE00065962CAD3DAD4EAD5FAD659766966FAEEB
:104BF000669767967FAE679768968FAE6897699657
:104C00009FAE699769966CAD7DAD8EAD9FAD69978E
:104C10000E94F12EE7962CAD3DAD4EAD5FADE7970E
:104C20006A966FAF6A976B967FAF6B976C968FAFF4
:104C30006C976D969FAF6D976D966CAD7DAD8EAD9B
:104C40009FAD6D970E94642C20E030E040EC50E472
:104C50006E966FAF6E976F967FAF6F97A0968FAF80
:104C6000A097A1969FAFA197A1966CAD7DAD8EAD9B
:104C70009FADA1970E94622FA2966FAFA297A396B5
:104C80007FAFA397A4968FAFA497A5969FAFA59744
:104C9000A5962CAD3DAD4EAD5FADA597A6962FAEBA
:104CA000A697A7963FAEA797A8964FAEA897A996A6
:104CB0005FAEA997A9966CAD7DAD8EAD9FADA9975E
:104CC0000E94F12E1B012C01E8969FADE897AA9651
:104CD0009FAFAA97E996AFADE997AB96AFAFAB9709
:104CE000EA96BFADEA97AC96BFAFAC97EB968FADA7
:104CF000EB97AD968FAFAD97AD962CAD3DAD4EAD6C
:104D00005FADAD97AE960FAFAE97AF961FAFAF97B3
:104D1000C058DF4F9881C058D040E0969FAFE097D1
:104D2000C158DF4FA881CF57D040E196AFAFE19790
:104D3000E1966CAD7DAD8EAD9FADE1970E94F12EF9
:104D40008B01C058DF4F8883C058D040C158DF4F17
:104D50009883CF57D040BFEFAB1ABB0AE3968EAD16
:104D60009FADE397A816B90609F000CEEC962FAEDA
:104D7000EC97ED963FAEED97EE964FAEEE97EF9631
:104D80005FAEEF97EF966CAD7DAD8EAD9FADEF97BB
:104D9000C058DF4F0FB6F894DEBF0FBECDBFDF9116
:104DA000CF911F910F91FF90EF90DF90CF90BF9028
:104DB000AF909F908F907F906F905F904F903F90BB
:104DC0002F900895C701B60190582AE037ED43E2CD
:104DD0005CE30E94622F2B013C01C301B2010E94DF
:104DE000D42FE3967FAF6EAFE39780E090E0A0E82A
:104DF000BFEBE7968CAF9DAFAEAFBFAFE797E39643
:104E0000AEADBFADE3971A161B060CF485CD212C71
:104E1000312C412C512CAACF4F925F926F927F92EE
:104E20008F929F92AF92BF92CF92DF92EF92FF92BA
:104E30000F931F93CF93DF938B01D82FC92F20E0BF
:104E400030E040E85FEB2B01682E792EC301B20100
:104E50000E945D2F87FD24C020E030E040E85FE342
:104E60006801ED2EFC2EC701B6010E942E301816E7
:104E7000BCF04801AD2EBC2EC501B401DF91CF912D
:104E80001F910F91FF90EF90DF90CF90BF90AF9068
:104E90009F908F907F906F905F904F900C942F1009
:104EA00060E070E0CB01DF91CF911F910F91FF90F7
:104EB000EF90DF90CF90BF90AF909F908F907F90BA
:104EC0006F905F904F9008954F925F926F927F9294
:104ED0008F929F92AF92BF92CF92DF92EF92FF920A
:104EE0000F931F93CF93DF93CDB7DEB72A970FB6FB
:104EF000F894DEBF0FBECDBF6A877987182F092FC0
:104F000020E030E040E85FEB4B01A82EB92EC50150
:104F1000B4010E945D2F87FD25C020E030E040E80D
:104F20005FE389829A821B830C8369817A818B81FA
:104F30009C810E942E301816ACF08D829E821F83B9
:104F400008876D817E818F8198850E942F102B01AB
:104F50003C01A30192016BED7FE089EC9FE30E948D
:104F6000F02E04C06BED7FE089EC9FE36B017C01C8
:104F7000C701B6012A960FB6F894DEBF0FBECDBFAB
:104F8000DF91CF911F910F91FF90EF90DF90CF9025
:104F9000BF90AF909F908F907F906F905F904F9059
:104FA0000895CF92DF92EF92FF92FC016A017B019C
:104FB00020FD08C023FD05C022FF02C0F382E2826B
:104FC000D182C082FF90EF90DF90CF900895CF9272
:104FD000DF92EF92FF926B017C0183E044FD10C0F1
:104FE00084E046FD0DC0D601F701AA0FBB1FEE1FDE
:104FF000FF1F1094D1F7CA0EDB1EEE1EFF1E81E0CC
:10500000CC0CDD1CEE1CFF1C8A95D1F7C701B60144
:10501000620F711D811D911DFF90EF90DF90CF9069
:1050200008950F931F93CF93DF938C01C8010E94C3
:10503000DD30EC0197FD08C00E949530892BB1F757
:10504000B801CE010E943931CE01DF91CF911F917D
:105050000F910895A0E0B0E0E0E3F8E20C943E3058
:10506000D82EE92E8B01742EC52EB22E0E94DD3073
:10507000EC019927CB3221F08D9791F46894B7F821
:105080000150104031F480E0CDB7DEB7EDE00C9474
:105090005A308D2D9E2D0E94DD30EC0197FDF3CF0F
:1050A000FB2CE894F1F88B2D8073811134C0C03350
:1050B00091F5480121E0821A910839F08D2D9E2D3D
:1050C0000E94DD30EC0197FF16C0812C912C540119
:1050D000F7FE08C0B094A09490948094811C911C19
:1050E000A11CB11C2F2DB501A401872D9C2D0E9460
:1050F000D12781E0C9CF8F7D883539F58B2D82642A
:10510000F82E0250104009F38D2D9E2D0E94DD30A7
:10511000EC0197FDDACF812C912C54012C2F2053D8
:105120002830F0F0F4FC09C02A30D0F0F6FE05C0BB
:105130002F7D8FEE820F863090F06D2D7E2DCE016B
:105140000E943931F1FE9FCFC3CFFB2C6894F1F858
:10515000B6FC03C02B2D2261F22E8401DCCF275038
:105160004F2DC501B4010E94E7274B015C016894F3
:10517000F1F80150104009F4ABCF8D2D9E2D0E9407
:10518000DD30EC0197FFCACFA3CFA0E2B0E0EBEC9B
:10519000F8E20C943B303C015B017A01CE010196B0
:1051A0004C0180E2F40111928A95E9F7F301B38191
:1051B000890180E090E0A0E050E070E021E030E084
:1051C000F801B3FD4591B3FF4191642F8F01411167
:1051D00007C000E010E0C801A096E0E10C94573051
:1051E0004E3511F4009741F178171906FCF44D354E
:1051F00051F14D32D9F4511511F1E62FE695E695AE
:10520000E695E80DF92DF11D462F4770290102C0E2
:10521000440C551C4A95E2F7A2015081452B40836E
:105220006A1779F06A1730F46F5FE7CF5111E5CF55
:10523000A42FE3CF6150E1CF71E00196C1CF51E0DF
:10524000FCCF50E0FACF511519F08E8180628E8329
:10525000711561F0F4019E012F5D3F4F8081DF01E8
:10526000319680958C93E217F307C1F75524539438
:10527000C3010E94DD306C0197FD17C0E82FE69551
:10528000E695E695E80DF92DF11D808190E09601F7
:105290002770332702C0959587952A95E2F780FD00
:1052A00007C0B301C6010E943931511471F091CF8A
:1052B000E114F10419F0F701C1927F0181E0A81A0D
:1052C000B108512CA114B10499F6E114F10409F4C8
:1052D00082CFF70110827FCFA6E0B0E0E2E7F9E2EB
:1052E0000C943A30C82E392E8B014A010E94DD30D1
:1052F0008D839E838D819E8199272D812B3269F02C
:105300008D9709F0D2C090E8B92E0150104039F4C1
:1053100080E02696E1E10C945630B12CF6CF8C2D2E
:10532000932D0E94DD308D839E838D819E8197FD1C
:10533000EFCF8D819E810E949E303C0199E66916D7
:10534000710409F4DCC0EEE66E16710409F4F2C0D3
:10535000412C512C3201E12CF12C2D812053DB2CDE
:105360002A3008F007C16894D1F88B2D8870B2FEFE
:10537000E8C0811103C0FFEFEF1AFF0A015010408F
:1053800051F08C2D932D0E94DD308D839E838D8175
:105390009E8197FFD4C0D1FEBBCF8D818F7D853498
:1053A00009F054C0580191E0A91AB10809F4B0CF2E
:1053B0008C2D932D0E94DD308D839E83ED81FE81A7
:1053C000F7FDA6CFCF019927EB3221F08D9771F42D
:1053D0006894D4F85801F2E0AF1AB10809F498CFF4
:1053E0008C2D932D0E94DD308D839E838D819E8137
:1053F000C0970A9708F08CCF00E010E0B801110FB9
:10540000880B990B2D81205340E20E94E727698386
:105410007A838B839C8309811A8121E0A21AB108C7
:1054200059F08C2D932D0E94DD308D839E838D81CC
:105430009E81C0970A9710F3D4FE05C009811A8196
:10544000119501951109E00EF11E8501012B41F026
:105450008D819E8197FD04C06C2D732D0E94393182
:10546000C301B2010E94272C9B01AC01F7FE8AC048
:10547000F194E194F108E1E6F7E6FA83E983A98083
:10548000BA8098E1A91AB10800E210E0E981FA8136
:10549000E016F10608F07BC03497FA83E98316958D
:1054A0000795EA15FB0591F722C0B12C42CF801772
:1054B000910781F08C2D932D0E94DD307C0197FDAA
:1054C00009C00E949E30D81611F16C2D732DC701B2
:1054D0000E943931E981FA81E854F74609F018CF82
:1054E00080E090E0A0E8BFE79C01AD01DB2CD7FC99
:1054F00050588114910409F055C081E00ACF85E429
:1055000097E69A83898389819A81080F191FE98117
:10551000FA813196FA83E9833197D49089819A810F
:10552000D110C5CF85549746D9F680E090E0A0EC25
:10553000BFE7DACFE2E4F7E6FA83E983E4CFBD2CF4
:105540000CCF811519F081E0E81AF10840E2C3019F
:10555000B2010E94E7272B013C0198E9491699E91D
:105560005906690699E1790608F408CFEB2DE66043
:10557000DE2E04CF2E3F09F00ECFB3FC0CCF689483
:10558000D3F8FCCE89E797E69A83898378CF659133
:105590007591859195910E94642C9B01AC01E01A54
:1055A000F10A74CFF4012083318342835383A5CF62
:1055B000A8E0B0E0EEEDFAE20C9439306C016F83B4
:1055C00078874B835C83FC0117821682212CF601BD
:1055D0003380EF81F88533FCF59033FEF190F88746
:1055E000EF83F11419F18F2D90E00E949530892BF3
:1055F00021F0C6010E941128EACFF5E2FF120BC08C
:10560000EF81F88533FC559033FE5190F887EF8396
:1056100085E258120EC0C6010E94DD304C0197FD94
:10562000B2C0F816A1F2B6010E943931822D90E085
:10563000AEC09AE2412C59120AC0EF81F88533FCC2
:10564000559033FE5190F887EF8344244394E12C26
:10565000F12C20ED250D2A3080F141FE43C0E114EC
:10566000F10421F3E8E65E1609F440C0FCE65F169B
:1056700009F449C05114D1F2652D70E088E690E03C
:105680000E94A630892B91F200E010E040FC08C097
:10569000AB80BC80F501019111915F01EB83BC826D
:1056A000FEE65F123BC0F6014681578160E070E084
:1056B000242DC8010E94D1278ACF689441F8B701F0
:1056C00080E090E040E20E94E7276D837E83ED80DA
:1056D000FE80EF81F88533FC559033FE5190F887BA
:1056E000EF83B7CFEE24EA94FE2CBCCFEF81F88590
:1056F00033FC559033FE5190F887EF8388E65812BB
:10570000B9CF689443F8689442F8EF81F88533FC88
:10571000559033FE5190F887EF83ACCFF3E65F12DC
:105720001CC041FC03C0EE24E394F12CC6010E948E
:10573000DD3089839A8389819A8197FD24C0011580
:10574000110519F0F80181938F0191E0E91AF10830
:1057500069F740FC3CCF23943ACFEBE55E121BC0C7
:105760002F813885A801B701C6010E94C5288F8303
:1057700098878F819885892B61F7F60183818073E3
:10578000811509F453CF8FEF9FEF21104FCF28964B
:10579000E2E10C945530C6010E94112897FDF3CF29
:1057A000FFE65F1609F450C080E7581690F499E6BA
:1057B0005916D1F0EAE65E1630F4F8E55F1691F07E
:1057C00084E65816F1F1A801B701C6010E946C29C0
:1057D00011C093E7591601F1E4E75E1668F4F0E7AB
:1057E0005F1689F7689446F8242DA801B701C60111
:1057F0000E942A288115C0CF85E7581611F198E735
:105800005916EFCF0115110519F0F80161928F01BA
:10581000E1E0EE1AF10871F0C6010E94DD303C01B2
:1058200097FD08C00E949530892B61F3B601C30132
:105830000E9439310115110509F48BCFF80110824E
:1058400088CF689445F8D0CF689444F8CDCFE894D9
:1058500009C097FB3EF490958095709561957F4FB8
:105860008F4F9F4F9923A9F0F92F96E9BB27939566
:10587000F695879577956795B795F111F8CFFAF476
:10588000BB0F11F460FF1BC06F5F7F4F8F4F9F4FA7
:1058900016C0882311F096E911C0772321F09EE805
:1058A000872F762F05C0662371F096E8862F70E06B
:1058B00060E02AF09A95660F771F881FDAF7880F45
:1058C0009695879597F908950E94772C0C94E82C6B
:1058D0000E94DA2C38F00E94E12C20F0952311F080
:1058E0000C94D12C0C94D72C11240C941C2D0E94B8
:1058F000F92C70F3959FC1F3950F50E0551F629FEF
:10590000F001729FBB27F00DB11D639FAA27F00D18
:10591000B11DAA1F649F6627B00DA11D661F829F3F
:105920002227B00DA11D621F739FB00DA11D621F24
:10593000839FA00D611D221F749F3327A00D611D41
:10594000231F849F600D211D822F762F6A2F112423
:105950009F5750409AF0F1F088234AF0EE0FFF1F56
:10596000BB1F661F771F881F91505040A9F79E3FAD
:10597000510580F00C94D12C0C941C2D5F3FE4F366
:10598000983ED4F3869577956795B795F795E79503
:105990009F5FC1F7FE2B880F911D9695879597F90C
:1059A000089597F99F6780E870E060E008959FEFA1
:1059B00080EC089500240A941616170618060906A6
:1059C000089500240A941216130614060506089575
:1059D000092E0394000C11F4882352F0BB0F40F4FD
:1059E000BF2B11F460FF04C06F5F7F4F8F4F9F4F3D
:1059F000089557FD9058440F551F59F05F3F71F0BF
:105A00004795880F97FB991F61F09F3F79F0879525
:105A10000895121613061406551FF2CF4695F1DFAE
:105A200008C0161617061806991FF1CF869571053E
:105A3000610508940895E894BB2766277727CB0172
:105A400097F90895CDB7DEB7C151D1400FB6F8949C
:105A5000DEBF0FBECDBF80917A008F7780937A0032
:105A600017B88FEF88B984B98AB98BB90E94E00062
:105A70008FEF9FEFCB5FDE4F99838883C550D14076
:105A8000CD5FDE4F99838883C350D140CF5FDE4F17
:105A900019821882C150D1406E0121E8C20ED11C7A
:105AA00080E8F601282F11922A95E9F7FE01319638
:105AB0001F0111928A95E9F7A12CB12CE12CF12C50
:105AC000C15FDE4F19821882CF50D140412C512C3A
:105AD000612CCF5EDE4F1882C151D140812C912CB8
