:100000000C943D000C9452000C9452000C9452003D
:100010000C9452000C9452000C9452000C94520018
:100020000C9452000C9452000C9452000C94520008
:100030000C9452000C9452000C9452000C945200F8
:100040000C9452000C9452000C9452000C945200E8
:100050000C9452000C9452000C9452000C945200D8
:100060000C9452000C9452006364696E6F70737547
:1000700078585B6566674546470011241FBECFEF81
:10008000D8E0DEBFCDBF11E0A0E0B1E0E2EEF5E2E6
:1000900002C005900D92A032B107D9F70E94DC0C86
:1000A0000C9454120C940000DC018D919C911197DA
:1000B000181619065CF4FB0180E090E0119201969D
:1000C0002D913C91119782179307C4F31D921C92B6
:1000D00008950F931F93CF93DF93DC018B01FA01F7
:1000E00011961C921E922081211589F0319680E094
:1000F00090E0800F911FEC0128838D919C911197C6
:10010000019611969C938E9321912111F2CFDF914C
:10011000CF911F910F910895CF92DF92EF92FF92AE
:100120000F931F93CF93DF93EC018B01922F842FBA
:1001300025E040E1C92ED32EE82EF52EC701B601E9
:100140000E94250F80E190E099838883DF91CF9111
:100150001F910F91FF90EF90DF90CF900895299A13
:1001600085ED8A95F1F700002998089595B1937C63
:1001700095B984FD2A9A85FD2B9A86FD2C9A87FDD8
:100180002D9A299A85ED8A95F1F70000299808950E
:10019000CF93C82F0E94B6008C2F8295807F0E943B
:1001A000B6002D98CF910895CF93C82F28980E941C
:1001B000B6008C2F8295807F0E94B6002D98CF913B
:1001C0000895CF93C82F289A0E94B6008C2F82954D
:1001D000807F0E94B6002D98CF910895289885B110
:1001E000837C85B92A9A2B9A299A85ED8A95F1F70D
:1001F0000000299880E30E94B6002D98289885B1C8
:10020000837C85B92A9A2B9A299A95ED9A95F1F7CC
:100210000000299880E20E94B6002D98289885B1A8
:10022000837C85B92B9A299A85ED8A95F1F7000090
:10023000299880E80E94B6002D98289885B1837C83
:1002400085B9299A95ED9A95F1F70000299880EEE5
:100250000E94B6002D98289885B1837C85B9299A8B
:1002600085ED8A95F1F70000299880E60E94B60096
:100270002D98289885B1837C85B9299A95ED9A9512
:10028000F1F70000299880E10E94B6002D988FEDCB
:100290009EE20197F1F700C000000895289885B10B
:1002A000837C85B9299A85ED8A95F1F70000299814
:1002B00085B1837C85B92A9A299A95ED9A95F1F7AB
:1002C000000029982D988FED9EE20197F1F700C06C
:1002D000000008950F931F93CF93FC01C081C115B7
:1002E00091F08C010F5F1F4F289A8C2F0E94B6004F
:1002F0008C2F8295807F0E94B6002D98F801C191C5
:100300008F01C111F1CFCF911F910F910895EF92FD
:10031000FF921F93CF93DF93CDB7DEB728970FB629
:10032000F894DEBF0FBECDBFBE016F5F7F4F28E0E8
:10033000FB0111922A95E9F74AE00E946D0F19819D
:10034000111599F07E01F2E0EF0EF11C289A812F31
:100350000E94B600812F8295807F0E94B6002D9862
:10036000F70111917F011111F1CF28960FB6F89482
:10037000DEBF0FBECDBFDF91CF911F91FF90EF90F9
:100380000895AF92BF92CF92DF92EF92FF920F93B8
:100390001F93CF938C015B017A016901289885B185
:1003A000837C85B9299A85ED8A95F1F70000299813
:1003B00080E10E94B6002D98EFEDFEE23197F1F753
:1003C00000C00000289885B1837C85B92D9A299AB0
:1003D000F5EDFA95F1F70000299880E00E94B6004B
:1003E0002D98013111050CF09DC0F501C081FFEF82
:1003F000AF1ABF0AC11579F0289A8C2F0E94B60057
:100400008C2F8295807F0E94B6002D98F501C191B6
:100410005F01C111F1CF289885B1837C85B92C9AF1
:100420002D9A299AF5EDFA95F1F70000299880E0C8
:100430000E94B6002D9881E1E816F1040CF055C039
:10044000F601C081FFEFCF1ADF0AC11579F0289AB3
:100450008C2F0E94B6008C2F8295807F0E94B60060
:100460002D98F601C1916F01C111F1CF289885B186
:10047000837C85B92D9A299AF5EDFA95F1F700005C
:10048000299880E00E94B6002D980131110554F59D
:1004900010161106ECF420E030E0289885B1837C3A
:1004A00085B92A9A299A85ED8A95F1F7000029984D
:1004B00085B1837C85B92C9A299A95ED9A95F1F7A7
:1004C000000029982D982F5F3F4F0217130729F737
:1004D000CF911F910F91FF90EF90DF90CF90BF9041
:1004E000AF9008950FE010E0D6CFFFE0EF1AF108CB
:1004F000EC0CFD1CF701C081C11509F4B7CFFFEF6B
:10050000EF1AFF0A289A8C2F0E94B6008C2F829532
:10051000807F0E94B6002D98F701C1917F01C11123
:10052000F1CFA4CFF8013F97EA0DFB1DC081C115A3
:1005300009F471CF31965F01289A8C2F0E94B60082
:100540008C2F8295807F0E94B6002D98F501C19175
:100550005F01C111F1CF5FCF0F931F93CF93DF9353
:10056000DC01EB01FA01808191810B973CF08FEF68
:100570009FEF11969C938E93998388838D919C9184
:100580001197019621F0808191810A9764F160E0D2
:1005900070E001E010E09BB1AB014E5F5F4F98014E
:1005A00002C0220F331F4A95E2F7A901822F8095DE
:1005B00089238BB920E030E086B190E0022E02C0A2
:1005C000959587950A94E2F780FF12C02F5F3F4F01
:1005D0002530310589F78BB1842B8BB96F5F7F4F45
:1005E00065307105C1F6DF91CF911F910F9108958C
:1005F0006D937C9339832883118210828BB1842B75
:100600008BB9DF91CF911F910F910895CF93DF9315
:10061000CDB7DEB769970FB6F894DEBF0FBECDBF7A
:10062000AC0199E1E0E0F1E0DE01119601900D925C
:100630009A95E1F79B01220F331F220F331F620FA0
:10064000731FCE010196680F791F640F751FFB01A0
:10065000808169960FB6F894DEBF0FBECDBFDF91E3
:10066000CF9108959C01029740F022503109223029
:10067000310530F482E090E0089581E090E0089543
:100680008FEF9FEF0895EF92FF920F931F93CF93F9
:10069000DF9300D000D000D0CDB7DEB77B01098357
:1006A0001A832B833C834D835E83FB012081318140
:1006B000A901440F551F420F531F440F551FDC0162
:1006C000A40FB51F86E0FE01319601900D928A9528
:1006D000E1F72F5F3F4FF701318320830F900F9099
:1006E0000F900F900F900F90DF91CF911F910F916E
:1006F000FF90EF9008950F931F93CF93DF93CDB7A3
:10070000DEB72C970FB6F894DEBF0FBECDBF8B01BE
:10071000FB0120813181A901440F551F420F531F56
:10072000440F551F840F951FFC01369786E0DE01AC
:10073000179601900D928A95E1F721503109F80141
:100740003183208386E0FE013796DE011196019009
:100750000D928A95E1F729813A814B815C816D8107
:100760007E8180E090E02C960FB6F894DEBF0FBE3D
:10077000CDBFDF91CF911F910F9108952F923F929E
:100780004F925F926F927F928F929F92AF92BF92A1
:10079000CF92DF92EF92FF920F931F93CF93DF934D
:1007A000CDB7DEB7C654D6400FB6F894DEBF0FBE45
:1007B000CDBF4C01C75CD94F4883C953D640C65CF6
:1007C000D94F5883CA53D6401B018E010F571B4F78
:1007D0007801A12CB12CC12CD12C3E014FE7641A19
:1007E0004EEF740A2EC0893209F442C08B3209F4EC
:1007F0004BC08D3209F483C28A3209F4AEC28F3203
:1008000009F0AEC283E090E09C838B838B819C8156
:10081000AD81BE8121E030E051E040E0F70150833E
:10082000418382839383A483B583FFEFAF1ABF0A0A
:10083000C20ED31E46E0E40EF11C50E4C516D104EE
:1008400094F5F401EC0DFD1D8081811541F1D3017A
:100850001D921C92883239F68B818E7F8B838B811F
:100860009C81AD81BE8121E030E052E040E0D6CFF6
:100870008B818E7F8B838B819C81AD81BE8121E0BA
:1008800030E053E040E0CACF1C821B828B819C8108
:10089000AD81BE8121E030E051E040E0BFCFA11446
:1008A000B10409F40EC2A501440F551F4A0D5B1D8A
:1008B000440F551F400F511F812C912C80E090E078
:1008C00066246394712C2EC0CF5FD94F1982188291
:1008D000C150D640CD5FD94F79836883C350D6408D
:1008E00026E0FE01EF5FF94FDE01119601900D92B7
:1008F0002A95E1F7DC01AA0FBB1FA80FB91FAA0FA9
:10090000BB1FFE013196AE0FBF1FBD5F26E00190F9
:100910000D922A95E1F701960A5F1F4F4017510784
:1009200009F48FC026E0F801DE01AF5FB94F0190F6
:100930000D922A95E1F7D8012D913C9111971296CD
:100940006D917C912115310509F4BECF213031051F
:1009500019F79401220F331F280D391D220F331F61
:10096000181419040CF0CEC1FE01E558FE4FE20F39
:10097000F31F0280F381E02D6230710508F468C234
:10098000DB011297129720F43297329708F072C267
:100990006E01AFE7CA1AAEEFDA0A265031097601C6
:1009A000E20EF31E9C01220F331F280F391F220F66
:1009B000331FAA24A394E3E0BE2EAC0EBD1EA20EEC
:1009C000B31E9E012F5F3F4F2C0196E0F701D90126
:1009D00001900D929A95E1F796E0F901DE01A75E8C
:1009E000B94F01900D929A95E1F796E0FE01E75E0E
:1009F000F94FDE01AB5DB94F01900D929A95E1F789
:100A000096E0FE01EB5DF94FD90101900D929A95A8
:100A1000E1F796E0F901D50101900D929A95E1F781
:100A2000F701B6E0EB1AF10886E0A80EB11CCE166D
:100A3000DF0659F6C201880D991D88248394912CF4
:100A40006FC1181419040CF054C08E010F571E4FBB
:100A50009401220F331F280D391D220F331F2650FA
:100A60003109200F311FAC01440F551F480F591F8A
:100A7000440F551FBE016F5F7C4F640F751FAE01A1
:100A80004F5F5F4F7C0196E0F901DA0101900D9212
:100A90009A95E1F796E0FA01DE01AD5EB94F01905B
:100AA0000D929A95E1F796E0FE01ED5EF94FDE01B9
:100AB000A15EB94F01900D929A95E1F796E0FE0183
:100AC000E15EF94FDA0101900D929A95E1F796E017
:100AD000FA01DB0101900D929A95E1F7F901265098
:100AE00031096A5F7F4F0E171F0769F6C701880D2E
:100AF000991D181619060CF0E4C08E010F5F1C4FEB
:100B00006C01CC0CDD1CC80ED91ECC0CDD1CC00E3B
:100B1000D11EE12CF12C34C0C55DD94F1982188249
:100B2000CB52D640C35DD94F59834883CD52D6406E
:100B300086E0FE01E55DF94FDE01A95FB94F019046
:100B40000D928A95E1F7D701AA0FBB1FAE0DBF1D0D
:100B5000AA0FBB1F9E012F5F3F4FA20FB31F86E05E
:100B6000FE01E95FF94F01900D928A95E1F73FEFA1
:100B7000E31AF30A0A5F1F4F0C151D0509F4A1C003
:100B800086E0F801DE01A55DB94F01900D928A95CE
:100B9000E1F7F8018081918142815381009709F446
:100BA000BBCF019739F75701AA0CBB1CAE0CBF1C79
:100BB000AA0CBB1CFE013597EA0DFB1D86E0DE0189
:100BC000A95FB94F01900D928A95E1F781E0E81A8B
:100BD000F10886E0FE01E95FF94FDE01A35FB94F3E
:100BE00001900D928A95E1F7C15FD94F48805980F5
:100BF0006A807B80CF50D640E114F10409F0FAC03E
:100C0000C75CD94F6881C953D640C65CD94F78813B
:100C1000CA53D640C101EE24E394F12CFE01319673
:100C20005F014115510509F0B8C0A3019201CB5CE9
:100C3000D94F6883C553D640CA5CD94F7883C65311
:100C4000D640C95CD94F8883C753D640C85CD94FBA
:100C50009883C853D640CB5CD94F688179818A810B
:100C60009B81C553D6400E94100ED50111961C924F
:100C70001E92CF5CD94F6883C153D640CE5CD94F0A
:100C80007883C253D640CD5CD94F8883C353D640B6
:100C9000CC5CD94F9883C453D640CF5CD94F2881C0
:100CA00039814A815B81C153D64012962D933D9381
:100CB0004D935C9315970A5F1F4F0C151D0509F0A6
:100CC0005FCF6B817C818D819E81CA5BD94F0FB6CE
:100CD000F894DEBF0FBECDBFDF91CF911F910F9172
:100CE000FF90EF90DF90CF90BF90AF909F908F904C
:100CF0007F906F905F904F903F902F90089581E08C
:100D000090E082CDE1E8CE2EDD24D394CC0EDD1E22
:100D1000C20ED31EAFEF8A1A9A0A9E012F5F3F4F71
:100D2000CF5FD94F79826882C150D640CD5FD94F0D
:100D300079836883C350D64066E0FE01EF5FF94FC8
:100D4000D90101900D926A95E1F766E0F901D601AB
:100D500001900D926A95E1F7DFCD82E090E054CDED
:100D60007F926F92CE0101969F938F9389E191E0DC
:100D70009F938F93FF93EF930E94D50F89819A8160
:100D8000AB81BC81F301208131810FB6F894DEBFC5
:100D90000FBECDBF50E040E041CD4130510509F4D8
:100DA00099C04230510509F474C04330510509F02F
:100DB0005CCFA3019201CD5BD94F6883C354D64069
:100DC000CC5BD94F7883C454D640CB5BD94F888352
:100DD000C554D640CA5BD94F9883C654D640CD5B24
:100DE000D94F688179818A819B81C354D6400E9402
:100DF0007C0E3BCFAC0EBD1ED5011B975D0186E07E
:100E0000FD01DE01A95FB94F01900D928A95E1F7CE
:100E100086E0FE01E95FF94FDE01AF5FB94F019057
:100E20000D928A95E1F7CD5FD94F6881C350D640C6
:100E3000CC5FD94F7881C450D640CB5FD94F8881E1
:100E4000C550D640CA5FD94F9881C650D640E9CE2A
:100E5000349708F49DCDA1E8CA2EDD24D394CC0E9E
:100E6000DD1EC20ED31EFFEF8F1A9F0A9E012F5F59
:100E70003F4F56CFF1E8CF2EDD24D394CC0EDD1EAC
:100E8000C20ED31E2FEF821A920A9E012F5F3F4F90
:100E900047CFA3019201C15CD94F6883CF53D6409D
:100EA000C05CD94F7883C054D640CF5BD94F88837C
:100EB000C154D640CE5BD94F9883C254D640C15C52
:100EC000D94F688179818A819B81CF53D6400E9416
:100ED0001E0CCBCEA3019201C55CD94F6883CB53C6
:100EE000D640C45CD94F7883CC53D640C35CD94F2D
:100EF0008883CD53D640C25CD94F9883CE53D64019
:100F0000C55CD94F688179818A819B81CB53D6405A
:100F10000E940F0EAACECF92DF92EF92FF92FC01B9
:100F20006A017B0120FD08C023FD05C022FF02C02D
:100F3000F382E282D182C082FF90EF90DF90CF9067
:100F40000895CF92DF92EF92FF926B017C0183E0D4
:100F500044FD10C084E046FD0DC0D601F701AA0F84
:100F6000BB1FEE1FFF1F1094D1F7CA0EDB1EEE1E33
:100F7000FF1E81E0CC0CDD1CEE1CFF1C8A95D1F716
:100F8000C701B601620F711D811D911DFF90EF9089
:100F9000DF90CF9008950F931F93CF93DF938C0131
:100FA000C8010E94920FEC0197FD08C00E944A0FF1
:100FB000892BB1F7B801CE010E94EE0FCE01DF916F
:100FC000CF911F910F910895A0E0B0E0EAEEF7E015
:100FD0000C94F30ED82EE92E8B01742EC52EB22E52
:100FE0000E94920FEC019927CB3221F08D9791F45A
:100FF0006894B7F80150104031F480E0CDB7DEB707
:10100000EDE00C940F0F8D2D9E2D0E94920FEC01A0
:1010100097FDF3CFFB2CE894F1F88B2D80738111B1
:1010200034C0C03391F5480121E0821A910839F0AB
:101030008D2D9E2D0E94920FEC0197FF16C0812CE2
:10104000912C5401F7FE08C0B094A0949094809421
:10105000811C911CA11CB11C2F2DB501A401872D51
:101060009C2D0E948B0781E0C9CF8F7D883539F593
:101070008B2D8264F82E0250104009F38D2D9E2D89
:101080000E94920FEC0197FDDACF812C912C540134
:101090002C2F20532830F0F0F4FC09C02A30D0F077
:1010A000F6FE05C02F7D8FEE820F863090F06D2DFD
:1010B0007E2DCE010E94EE0FF1FE9FCFC3CFFB2C01
:1010C0006894F1F8B6FC03C02B2D2261F22E840146
:1010D000DCCF27504F2DC501B4010E94A1074B0161
:1010E0005C016894F1F80150104009F4ABCF8D2DEC
:1010F0009E2D0E94920FEC0197FFCACFA3CFA0E2D2
:10110000B0E0E5E8F8E00C94F00E3C015B017A01F8
:10111000CE0101964C0180E2F40111928A95E9F723
:10112000F301B381890180E090E0A0E050E070E03D
:1011300021E030E0F801B3FD4591B3FF4191642F08
:101140008F01411107C000E010E0C801A096E0E166
:101150000C940C0F4E3511F4009741F178171906D5
:10116000FCF44D3551F14D32D9F4511511F1E62F02
:10117000E695E695E695E80DF92DF11D462F4770A9
:10118000290102C0440C551C4A95E2F7A201508186
:10119000452B40836A1779F06A1730F46F5FE7CF09
:1011A0005111E5CFA42FE3CF6150E1CF71E001965B
:1011B000C1CF51E0FCCF50E0FACF511519F08E812C
:1011C00080628E83711561F0F4019E012F5D3F4FA7
:1011D0008081DF01319680958C93E217F307C1F788
:1011E00055245394C3010E94920F6C0197FD17C0C0
:1011F000E82FE695E695E695E80DF92DF11D80813D
:1012000090E096012770332702C0959587952A951F
:10121000E2F780FD07C0B301C6010E94EE0F511432
:1012200071F091CFE114F10419F0F701C1927F013F
:1012300081E0A81AB108512CA114B10499F6E11467
:10124000F10409F482CFF70110827FCFA6E0B0E06D
:10125000ECE2F9E00C94EF0EC82E392E8B014A0116
:101260000E94920F8D839E838D819E8199272D816F
:101270002B3269F08D9709F0D2C090E8B92E015059
:10128000104039F480E02696E1E10C940B0FB12C6C
:10129000F6CF8C2D932D0E94920F8D839E838D818E
:1012A0009E8197FDEFCF8D819E810E94530F3C015F
:1012B00099E66916710409F4DCC0EEE66E16710455
:1012C00009F4F2C0412C512C3201E12CF12C2D817A
:1012D0002053DB2C2A3008F007C16894D1F88B2DFD
:1012E0008870B2FEE8C0811103C0FFEFEF1AFF0A59
:1012F0000150104051F08C2D932D0E94920F8D8340
:101300009E838D819E8197FFD4C0D1FEBBCF8D81FE
:101310008F7D853409F054C0580191E0A91AB108B5
:1013200009F4B0CF8C2D932D0E94920F8D839E8354
:10133000ED81FE81F7FDA6CFCF019927EB3221F099
:101340008D9771F46894D4F85801F2E0AF1AB1089F
:1013500009F498CF8C2D932D0E94920F8D839E833C
:101360008D819E81C0970A9708F08CCF00E010E035
:10137000B801110F880B990B2D81205340E20E9478
:10138000A10769837A838B839C8309811A8121E079
:10139000A21AB10859F08C2D932D0E94920F8D83C3
:1013A0009E838D819E81C0970A9710F3D4FE05C05D
:1013B00009811A81119501951109E00EF11E85012F
:1013C000012B41F08D819E8197FD04C06C2D732D02
:1013D0000E94EE0FC301B2010E94E10B9B01AC0120
:1013E000F7FE8AC0F194E194F108EBECF4E2FA83A1
:1013F000E983A980BA8098E1A91AB10800E210E057
:10140000E981FA81E016F10608F07BC03497FA838F
:10141000E98316950795EA15FB0591F722C0B12CD3
:1014200042CF8017910781F08C2D932D0E94920F4F
:101430007C0197FD09C00E94530FD81611F16C2D45
:10144000732DC7010E94EE0FE981FA81E25BF4423D
:1014500009F018CF80E090E0A0E8BFE79C01AD0163
:10146000DB2CD7FC50588114910409F055C081E061
:101470000ACF8FEA94E29A83898389819A81080F3F
:10148000191FE981FA813196FA83E9833197D49063
:1014900089819A81D110C5CF8F5A9442D9F680E0C4
:1014A00090E0A0ECBFE7DACFECEAF4E2FA83E9835C
:1014B000E4CFBD2C0CCF811519F081E0E81AF108BA
:1014C00040E2C301B2010E94A1072B013C0198E94F
:1014D000491699E95906690699E1790608F408CF91
:1014E000EB2DE660DE2E04CF2E3F09F00ECFB3FCCD
:1014F0000CCF6894D3F8FCCE83EE94E29A83898370
:1015000078CF65917591859195910E941E0C9B01F4
:10151000AC01E01AF10A74CFF401208331834283D5
:101520005383A5CFA8E0B0E0E8E9FAE00C94EE0E12
:101530006C016F8378874B835C83FC011782168272
:10154000212CF6013380EF81F88533FCF59033FED2
:10155000F190F887EF83F11419F18F2D90E00E943C
:101560004A0F892B21F0C6010E94CB07EACFF5E292
:10157000FF120BC0EF81F88533FC559033FE51907C
:10158000F887EF8385E258120EC0C6010E94920FC1
:101590004C0197FDB2C0F816A1F2B6010E94EE0F01
:1015A000822D90E0AEC09AE2412C59120AC0EF8120
:1015B000F88533FC559033FE5190F887EF8344242F
:1015C0004394E12CF12C20ED250D2A3080F141FED1
:1015D00043C0E114F10421F3E8E65E1609F440C0CB
:1015E000FCE65F1609F449C05114D1F2652D70E094
:1015F00088E690E00E945B0F892B91F200E010E0FA
:1016000040FC08C0AB80BC80F501019111915F01E5
:10161000EB83BC82FEE65F123BC0F6014681578138
:1016200060E070E0242DC8010E948B078ACF689487
:1016300041F8B70180E090E040E20E94A1076D838D
:101640007E83ED80FE80EF81F88533FC559033FE7C
:101650005190F887EF83B7CFEE24EA94FE2CBCCFED
:10166000EF81F88533FC559033FE5190F887EF8376
:1016700088E65812B9CF689443F8689442F8EF812D
:10168000F88533FC559033FE5190F887EF83ACCF4B
:10169000F3E65F121CC041FC03C0EE24E394F12C7E
:1016A000C6010E94920F89839A8389819A8197FD4E
:1016B00024C00115110519F0F80181938F0191E003
:1016C000E91AF10869F740FC3CCF23943ACFEBE5E7
:1016D0005E121BC02F813885A801B701C6010E9488
:1016E0007F088F8398878F819885892B61F7F60112
:1016F00083818073811509F453CF8FEF9FEF211001
:101700004FCF2896E2E10C940A0FC6010E94CB0746
:1017100097FDF3CFFFE65F1609F450C080E7581637
:1017200090F499E65916D1F0EAE65E1630F4F8E541
:101730005F1691F084E65816F1F1A801B701C601D1
:101740000E94260911C093E7591601F1E4E75E16DD
:1017500068F4F0E75F1689F7689446F8242DA8012D
:10176000B701C6010E94E4078115C0CF85E758166E
:1017700011F198E75916EFCF0115110519F0F8018D
:1017800061928F01E1E0EE1AF10871F0C6010E944A
:10179000920F3C0197FD08C00E944A0F892B61F30C
:1017A000B601C3010E94EE0F0115110509F48BCF9C
:1017B000F801108288CF689445F8D0CF689444F837
:1017C000CDCFE89409C097FB3EF490958095709535
:1017D00061957F4F8F4F9F4F9923A9F0F92F96E97D
:1017E000BB279395F695879577956795B795F111F2
:1017F000F8CFFAF4BB0F11F460FF1BC06F5F7F4F8F
:101800008F4F9F4F16C0882311F096E911C07723A0
:1018100021F09EE8872F762F05C0662371F096E8A9
:10182000862F70E060E02AF09A95660F771F881F78
:10183000DAF7880F9695879597F908950E94310CED
:101840000C94A20C0E94940C38F00E949B0C20F087
:10185000952311F00C948B0C0C94910C11240C9486
:10186000D60C0E94B30C70F3959FC1F3950F50E016
:10187000551F629FF001729FBB27F00DB11D639F42
:10188000AA27F00DB11DAA1F649F6627B00DA11DE8
:10189000661F829F2227B00DA11D621F739FB00D8E
:1018A000A11D621F839FA00D611D221F749F3327FE
:1018B000A00D611D231F849F600D211D822F762F97
:1018C0006A2F11249F5750409AF0F1F088234AF074
:1018D000EE0FFF1FBB1F661F771F881F91505040E0
:1018E000A9F79E3F510580F00C948B0C0C94D60CFC
:1018F0005F3FE4F3983ED4F3869577956795B79567
:10190000F795E7959F5FC1F7FE2B880F911D969580
:10191000879597F9089597F99F6780E870E060E0F0
:1019200008959FEF80EC089500240A941616170678
:1019300018060906089500240A94121613061406C0
:1019400005060895092E0394000C11F4882352F023
:10195000BB0F40F4BF2B11F460FF04C06F5F7F4FDB
:101960008F4F9F4F089557FD9058440F551F59F0C2
:101970005F3F71F04795880F97FB991F61F09F3F7C
:1019800079F087950895121613061406551FF2CFA5
:101990004695F1DF08C0161617061806991FF1CFF5
:1019A00086957105610508940895E894BB2766271C
:1019B0007727CB0197F90895CDB7DEB7C35AD10980
:1019C0000FB6F894DEBF0FBECDBF80917A008F773F
:1019D00080937A0017B88FEF88B984B98AB98BB928
:1019E0000E94EE008FEF9FEFC256DF4F99838883EE
:1019F000CE59D040C456DF4F99838883CC59D0400C
:101A0000C656DF4F19821882CA59D04080E45E0161
:101A100021E4A20EB11CF501282F11922A95E9F7B5
:101A2000FE0131964F0111928A95E9F7C12CD12C14
:101A3000E12CF12C612C712C50E1352E442443947F
:101A400027C0672809F0B8C09FE5591609F4CCC033
:101A5000F501EE0DFF1D50823FEFE31AF30A612CF2
:101A6000712C9401A601B501C7010E94C1010F5F4D
:101A70001F4FC656DF4F19830883CA59D0408FEFD6
:101A800090E7E2E081509040E040E1F700C00000C4
:101A9000AE0146565F4FBE0164567F4FCE0182565F
:101AA0009F4F0E94AC02C256DF4F88819981CE5968
:101AB000D040C656DF4F08811981CA59D0408F3FA8
:101AC000980779F20115110561F6C456DF4F288198
:101AD0003981CC59D04049E1E0E0F1E0DE01AF5777
:101AE000BF4F01900D924A95E1F7F901EE0FFF1FEC
:101AF000EE0FFF1FE20FF31F9E012F573F4FE20F24
:101B0000F31FE80FF91F50803DE353129ACF289836
:101B100085B1837C85B9299A85ED8A95F1F7000016
:101B2000299880E10E94B6002D98EFEDFEE23197F2
:101B3000F1F700C0000040E050E0BA01C5010E948A
:101B4000BE03840125E040E1C056DF4F6883C05AE0
:101B5000D040CF55DF4F7883C15AD040CE55DF4FAC
:101B60008883C25AD040CD55DF4F9883C35AD040A6
:101B7000C056DF4F688179818A819B81C05AD040ED
:101B80000E94250FC656DF4F4882CA59D040C5561D
:101B9000DF4F1882CB59D040FFEF20E732E0F15001
:101BA00020403040E1F700C0000080E1C82ED12C79
:101BB00066246394712C6CCFE114F10431F0A70119
:101BC00060E070E0C5010E94660FCD2821F1F401AC
:101BD000232D11922A95E9F73FE55316A9F0C12C60
:101BE000D12CE12CF12C34CFE114F10431F0A70118
:101BF00060E070E0C5010E94660FCD2829F0F40175
:101C0000232D11922A95E9F7C12CD12CE12CF12C2E
:101C1000612C712C26CF8FE55812E1CFF5CF5058AB
:101C2000BB27AA270E94270E0C94A20C0E94940C9A
:101C300038F00E949B0C20F039F49F3F19F426F4F1
:101C40000C94910C0EF4E095E7FB0C948B0CE92FAF
:101C50000E94B30C58F3BA176207730784079507FD
:101C600020F079F4A6F50C94D50C0EF4E0950B2E2B
:101C7000BA2FA02D0B01B90190010C01CA01A001DE
:101C80001124FF27591B99F0593F50F4503E68F139
:101C90001A16F040A22F232F342F4427585FF3CF7A
:101CA000469537952795A795F0405395C9F77EF44B
:101CB0001F16BA0B620B730B840BBAF09150A1F094
:101CC000FF0FBB1F661F771F881FC2F70EC0BA0F1A
:101CD000621F731F841F48F4879577956795B795A2
:101CE000F7959E3F08F0B0CF9395880F08F099279D
:101CF000EE0F9795879508950E94900E0C94A20C74
:101D00000E949B0C58F00E94940C40F029F45F3F15
:101D100029F00C948B0C51110C94D60C0C94910C52
:101D20000E94B30C68F39923B1F3552391F3951BEB
:101D3000550BBB27AA2762177307840738F09F5FEC
:101D40005F4F220F331F441FAA1FA9F335D00E2E59
:101D50003AF0E0E832D091505040E695001CCAF7C6
:101D60002BD0FE2F29D0660F771F881FBB1F261789
:101D700037074807AB07B0E809F0BB0B802DBF0160
:101D8000FF2793585F4F3AF09E3F510578F00C942F
:101D90008B0C0C94D60C5F3FE4F3983ED4F38695FD
:101DA00077956795B795F7959F5FC9F7880F911D50
:101DB0009695879597F90895E1E0660F771F881F3C
:101DC000BB1F621773078407BA0720F0621B730BEF
:101DD000840BBA0BEE1F88F7E09508952F923F927F
:101DE0004F925F926F927F928F929F92AF92BF922B
:101DF000CF92DF92EF92FF920F931F93CF93DF93D7
:101E0000CDB7DEB7CA1BDB0B0FB6F894DEBF0FBE33
:101E1000CDBF09942A88398848885F846E847D8480
:101E20008C849B84AA84B984C884DF80EE80FD8082
:101E30000C811B81AA81B981CE0FD11D0FB6F894F8
:101E4000DEBF0FBECDBFED0108958F929F92AF927E
:101E5000BF92EF920F931F93CF93322FC02F54E175
:101E600047FF54E0242F27FD2195E52E032F4C2F0B
:101E7000512F4B015C01C501B4010E9407108C2F4A
:101E8000912FCF911F910F91EF90BF90AF909F90A6
:101E90008F90089591110C944112803219F089505D
:101EA0008550C8F708959111089581548A5108F416
:101EB000805E855A0895FC010590061621F00020E9
:101EC000D9F7C00108953197CF010895DC0101C011
:101ED0006D9341505040E0F70895BB274A3031F4EC
:101EE000992322F4BDE2909581959F4F0C94790F30
:101EF000BB27FB015527AA27880F991FAA1FA417E4
:101F000010F0A41B83955051B9F7A05DAA3308F0D7
:101F1000A95DA193009779F7B111B1931192CB010B
:101F20000C9444120F931F93CF93DF93EC018B819A
:101F300080FF1DC086FF0EC08F7B8B838E819F81AB
:101F400001969F838E838A8190E0DF91CF911F91CC
:101F50000F91089582FF19C0E881F9819081092FBE
:101F6000092E000C110B911105C080628B838FEF3D
:101F70009FEFEBCF3196F983E8838E819F810196A5
:101F80009F838E83C8019927E0CFEA85FB85CE0128
:101F900009958C0197FFF1CF8B810F3F1F4F19F4EB
:101FA00090E1892BE3CF90E2FCCFAEE0B0E0EBED27
:101FB000FFE00C94FE0E85E08C838B899C899A83CC
:101FC0008983AE01495E5F4F6D897E89CE0101969E
:101FD0000E94920A2E96E2E00C941A0F9C01FB01DB
:101FE000838180FF11C086FD0FC02F3F320751F063
:101FF00022838F7D80648383868197810197978375
:1020000086833327C90108952FEF3FEFFBCFA0E16F
:10201000B0E0EDE0F0E10C94EE0E6A01122FF02E2C
:10202000202F3CE3031708F02BE32F5F288B022FB0
:1020300027E0AE014F5F5F4F6C877D878E879F875C
:102040006C857D858E859F850E9469115C019981D3
:10205000892F8970813039F0E0FA882785F9E1FE0F
:1020600003C08BE201C08DE2292F2870BE2DB07114
:1020700093FF44C094E0811101C093E09117C8F42C
:10208000191BB11519F1811519F0F60181936F0132
:10209000C601039631E62EE6E2FE02C031E42EE4EC
:1020A000F601208331832283212F382F492F50E2DC
:1020B00019C010E0E6CFF90141932F0191509F0123
:1020C0009111F9CFC10ED11C10E0DDCF912F9601F7
:1020D00040E2F6CF632E742EF30151933F0121505D
:1020E0003E2F472D2111F6CF810F911DFC0110824B
:1020F0008EEF9FEF6096E2E10C940A0FA92FA47077
:1021000092FF3EC094E0811101C093E0911710F45A
:10211000212F291BB11529F1811519F0F6018193A1
:102120006F01C601039659E64EE636E6E2FE03C0AD
:1021300059E44EE436E4F601508341833283322F72
:10214000AC0160E218C0832E942EF40151934F012C
:1021500091503E2F492D9111F6CFC20ED11C20E097
:10216000DBCF922F3C2D4D2D50E2F5CFFA0161933C
:102170001F013150AF013111F9CF820F911DB6CF40
:102180009501B7FE02C020E030E061E070E081110F
:1021900002C060E070E0A9014F5F5F4F460F571F1C
:1021A0006F2D70E0FB013196F11002C0E0E0F0E02D
:1021B0004E0F5F1F4117510514F4A12FA41B4E2D84
:1021C0004871411155C0F6014A2F50E241114DC0EE
:1021D000CA0ED11CA0E0811531F0F6018193A42F25
:1021E0006F01B11108C0F6018A2F40E3811145C08B
:1021F000CA0ED11CA0E088898A0D5A81B92FB0710E
:1022000094FF03C0513309F481501816CCF589307E
:1022100008F088E0FE013196EA0DFB1D4F01821A9D
:10222000930A7501E81AF1087195619571091EE22A
:10223000A216B3063CF1E216F30624F5F40141813F
:1022400021503109C6010196FFEF8F1A9F0A261708
:102250003707D4F0F60140832F3F320721F4C6013F
:102260000296F60111836C01E3CF51934150AECF3A
:10227000811509F4B6CF4A2FB0CF41938150B6CF24
:1022800081E0C8CF40E3DCCFA216B30631F4563369
:1022900098F4553311F4B11579F0F60140832A2FE3
:1022A000382F492F50E2211109C08A0F911DFC01DE
:1022B000108280E090E01ECF41E3EFCF3A874B875A
:1022C000EA85FB855193FB87EA8721503A854B8548
:1022D000EACF283008F027E03327DA01990F311DC3
:1022E00087FD916000966105710539F432602E5FBB
:1022F0003D9330E32A95E1F708959F3F30F0803811
:102300007105610509F03C5F3C5F3D93913008F039
:102310008068911DDF93CF931F930F93FF92EF92ED
:10232000192F987F9695E92F96959695E90FFF2797
:10233000EF5BFA4D99273327EE24FF24A701E7012D
:1023400005900894079428F4360FE71EF81E491FDD
:10235000511D660F771F881F991F0694A1F70590DE
:10236000079428F4E70EF81E491F561FC11D770F6A
:10237000881F991F661F0694A1F70590079428F4FB
:10238000F80E491F561FC71FD11D880F991F661FC2
:10239000771F0694A1F70590079420F4490F561F64
:1023A000C71FD81F990F661F771F881F0694A9F7AC
:1023B00084911095177041F0D695C795579547951C
:1023C000F794E7941A95C1F7E7EEF4E26894159054
:1023D000159135916591959105907FE27395E1187E
:1023E000F10A430B560BC90BD009C0F7E10CF11EE3
:1023F000431F561FC91FD01D7EF4703311F48A95F8
:10240000E6CFE894015030F0080F0AF400270217D5
:1024100008F4202F2395022F7A3328F079E37D9357
:102420002A95E9F710C07D932A9589F60694979529
:102430006795379517951794E118F10A430B560BDA
:10244000C90BD00998F023957E9173957A3308F0E3
:1024500070E37C932013B8F77E9170617D9330F028
:10246000839571E37D9370E32A95E1F71124EF9052
:10247000FF900F911F91CF91DF91992787FD909544
:102480000895992788270895DC01FC01672F719131
:102490007723E1F7329704C07C916D93708362914A
:1024A000AE17BF07C8F30895F894FFCF616E006EB2
:1024B00066696E69747900CDCCCC3D0AD7233C1790
:1024C000B7D13877CC2B329595E6241FB14F0A004F
:1024D0000020410000C84200401C4620BCBE4CCA3F
:1024E0001B0E5AAEC59D7400407A10F35A00A072BC
:1024F0004E18090010A5D4E80000E876481700003F
:10250000E40B54020000CA9A3B000000E1F505000C
:102510000080969800000040420F000000A0860155
:10252000000000102700000000E803000000006425
:1025300000000000000A0000000000010000000090
:10254000002C76D888DC674F0823DFC1DFAE59E165
:10255000B1B796E5E3E453C63AE651997696E8E6D4
:10256000C28426EB898C9B62ED407C6FFCEFBC9CA7
:102570009F40F2BAA56FA5F490055A2AF75C936BB9
:102580006CF9676DC11BFCE0E40D47FEF520E6B574
:1025900000D0ED902E0300943577050080841E084E
:1025A0000000204E0A000000C80C333333330F986C
:1025B0006E12831141EF8D2114893BE65516CFFE33
:1025C000E6DB18D1844B381BF77C1D901DA4BBE4BF
:1025D00024203284725E228100C9F124ECA1E53D01
:0225E0002700D2
:1025E2003031323334353637383900000000002BB1
:1025F2002D2A2F003D2E5F0000256C6620256E00DF
:00000001FF
