:020000020000FC
:100000000FEF0AB90FEF04B9E4E01BB92B9ADFEF49
:100010000E9432002B982BB92A9ADFEF0E943200FF
:100020002A983BB9299ADFEF0E94320029984BB9F0
:10003000289ADFEF0E9432002898493069F43395FE
:1000400040E0363041F430E02395253039F4123069
:1000500011F410E020E00895439508952A30D8F374
:1000600020E01395FE2F0000FA95E9F7DA95D1F715
:100070000895002711272227332744270E941D00B7
:0A008000002708951BB92B9AFDCF4D
:00000001FF
