:100000000C9434000C9446000C9446000C9446006A
:100010000C9446000C9446000C9446000C94460048
:100020000C9446000C9446000C9446000C945D0021
:100030000C9446000C9446000C9446000C94460028
:100040000C9446000C9446000C9446000C94460018
:100050000C9446000C9446000C9446000C94460008
:100060000C9446000C94460011241FBECFEFD8E03C
:10007000DEBFCDBF21E0A0E0B1E001C01D92A23003
:10008000B207E1F70E9403010C943A010C940000BE
:10009000E1E8F0E0808188608083808185608083F2
:1000A00088E09DE39093890080938800EFE6F0E07C
:1000B000808182608083789408958F939F9381E0FC
:1000C00090E090930101809300019F918F9118958A
:1000D000AC0122E030E061E070E0CB01022E01C013
:1000E000880F0A94EAF79BB140FF0AC0892B8BB9AD
:1000F000559547952F5F3F4F2630310571F708958D
:1001000080958923F4CFEF92FF920F931F93CF93A3
:10011000DF937B018A01D22FC32F0E9468002B9AA4
:100120008FE99FE00197F1F700C000002B98C7010D
:100130000E9468002A9A8FE99FE00197F1F700C0BA
:1001400000002A98C8010E946800299A8FE99FE060
:100150000197F1F700C0000029988D2F9C2F0E9475
:100160006800289A8FE99FE00197F1F700C000002E
:100170002898DF91CF911F910F91FF90EF900895F4
:10018000EF92FF920F931F93CF93DF937C01DB01DC
:10019000EA01F901808191818930910591F5888189
:1001A000998101969983888311821082888199812F
:1001B0000697A9F4198218828D919C911197019646
:1001C00011969C938E938530910581F4F70180817F
:1001D0009181029721F4118210821D921C92DF916D
:1001E000CF911F910F91FF90EF9008950A97BCF364
:1001F0001D921C92F70180819181019691838083E9
:10020000EECF0196FBCFCDB7DEB728970FB6F894A7
:10021000DEBF0FBECDBF8FEF84B98AB918861F82AB
:100220001E821D821C821B821A8219820E94480033
:100230008091000190910101892B89F09E012F5F2F
:100240003F4FAE014D5F5F4FBE016B5F7F4FCE01F1
:1002500007960E94C00010920101109200012981AE
:100260003A814B815C816D817E818F8198850E946E
:080270008300DECFF894FFCFFC
:00000001FF
